{
  "contractName": "Fees",
  "abi": [
    {
      "constant": true,
      "inputs": [],
      "name": "bot",
      "outputs": [
        {
          "name": "",
          "type": "address"
        }
      ],
      "payable": false,
      "stateMutability": "view",
      "type": "function"
    },
    {
      "constant": true,
      "inputs": [],
      "name": "managerApprovalFee",
      "outputs": [
        {
          "name": "",
          "type": "uint256"
        }
      ],
      "payable": false,
      "stateMutability": "view",
      "type": "function"
    },
    {
      "constant": true,
      "inputs": [],
      "name": "validate",
      "outputs": [
        {
          "name": "",
          "type": "bool"
        }
      ],
      "payable": false,
      "stateMutability": "view",
      "type": "function"
    },
    {
      "constant": false,
      "inputs": [
        {
          "name": "_bot",
          "type": "address"
        }
      ],
      "name": "setBot",
      "outputs": [],
      "payable": false,
      "stateMutability": "nonpayable",
      "type": "function"
    },
    {
      "constant": true,
      "inputs": [],
      "name": "managerRegistrationFee",
      "outputs": [
        {
          "name": "",
          "type": "uint256"
        }
      ],
      "payable": false,
      "stateMutability": "view",
      "type": "function"
    },
    {
      "constant": true,
      "inputs": [],
      "name": "owner",
      "outputs": [
        {
          "name": "",
          "type": "address"
        }
      ],
      "payable": false,
      "stateMutability": "view",
      "type": "function"
    },
    {
      "constant": true,
      "inputs": [],
      "name": "managerRegistrationFeeTokens",
      "outputs": [
        {
          "name": "",
          "type": "uint256"
        }
      ],
      "payable": false,
      "stateMutability": "view",
      "type": "function"
    },
    {
      "constant": true,
      "inputs": [],
      "name": "voteFeeTokens",
      "outputs": [
        {
          "name": "",
          "type": "uint256"
        }
      ],
      "payable": false,
      "stateMutability": "view",
      "type": "function"
    },
    {
      "constant": false,
      "inputs": [
        {
          "name": "_newOwner",
          "type": "address"
        }
      ],
      "name": "transferOwnership",
      "outputs": [],
      "payable": false,
      "stateMutability": "nonpayable",
      "type": "function"
    },
    {
      "constant": true,
      "inputs": [],
      "name": "managerApprovalFeeTokens",
      "outputs": [
        {
          "name": "",
          "type": "uint256"
        }
      ],
      "payable": false,
      "stateMutability": "view",
      "type": "function"
    },
    {
      "anonymous": false,
      "inputs": [
        {
          "indexed": true,
          "name": "previousOwner",
          "type": "address"
        },
        {
          "indexed": true,
          "name": "newOwner",
          "type": "address"
        }
      ],
      "name": "OwnershipTransferred",
      "type": "event"
    },
    {
      "constant": false,
      "inputs": [
        {
          "name": "_fee",
          "type": "uint256"
        }
      ],
      "name": "setManagerRegistrationFee",
      "outputs": [],
      "payable": false,
      "stateMutability": "nonpayable",
      "type": "function"
    },
    {
      "constant": false,
      "inputs": [
        {
          "name": "_fee",
          "type": "uint256"
        }
      ],
      "name": "setManagerApprovalFee",
      "outputs": [],
      "payable": false,
      "stateMutability": "nonpayable",
      "type": "function"
    },
    {
      "constant": false,
      "inputs": [
        {
          "name": "_fee",
          "type": "uint256"
        }
      ],
      "name": "setManagerRegistrationFeeTokens",
      "outputs": [],
      "payable": false,
      "stateMutability": "nonpayable",
      "type": "function"
    },
    {
      "constant": false,
      "inputs": [
        {
          "name": "_fee",
          "type": "uint256"
        }
      ],
      "name": "setManagerApprovalFeeTokens",
      "outputs": [],
      "payable": false,
      "stateMutability": "nonpayable",
      "type": "function"
    },
    {
      "constant": false,
      "inputs": [
        {
          "name": "_fee",
          "type": "uint256"
        }
      ],
      "name": "setVoteFeeTokens",
      "outputs": [],
      "payable": false,
      "stateMutability": "nonpayable",
      "type": "function"
    }
  ],
  "bytecode": "0x6080604052670de0b6b3a7640000600255674563918244f4000060035569021e19e0c9bab2400000600455690a968163f0a57b400000600555678ac7230489e8000060065560001960075560008054600160a060020a031916331790556104f58061006b6000396000f3006080604052600436106100da5763ffffffff7c01000000000000000000000000000000000000000000000000000000006000350416630592d9f581146100df57806310814c37146100f95780633f0d11c11461012a5780636901f668146101515780636b5caec41461017a57806376cf05611461019b57806388eaa8e0146101b05780638da5cb5b146101c85780638e6ddf3b146101dd578063ad4f1de1146101f5578063cd6af74b1461020d578063d754dd5114610222578063e890f0931461023a578063f2fde38b1461024f578063f79269c414610270575b600080fd5b3480156100eb57600080fd5b506100f7600435610285565b005b34801561010557600080fd5b5061010e6102be565b60408051600160a060020a039092168252519081900360200190f35b34801561013657600080fd5b5061013f6102cd565b60408051918252519081900360200190f35b34801561015d57600080fd5b506101666102d3565b604080519115158252519081900360200190f35b34801561018657600080fd5b506100f7600160a060020a03600435166102e4565b3480156101a757600080fd5b5061013f61032a565b3480156101bc57600080fd5b506100f7600435610330565b3480156101d457600080fd5b5061010e610369565b3480156101e957600080fd5b506100f7600435610378565b34801561020157600080fd5b506100f76004356103b1565b34801561021957600080fd5b5061013f6103ea565b34801561022e57600080fd5b506100f76004356103f0565b34801561024657600080fd5b5061013f610429565b34801561025b57600080fd5b506100f7600160a060020a036004351661042f565b34801561027c57600080fd5b5061013f6104c3565b600054600160a060020a0316331461029c57600080fd5b6000811180156102ae57506007548111155b15156102b957600080fd5b600555565b600154600160a060020a031681565b60035481565b600054600160a060020a0316331490565b600054600160a060020a031633146102fb57600080fd5b6001805473ffffffffffffffffffffffffffffffffffffffff1916600160a060020a0392909216919091179055565b60025481565b600054600160a060020a0316331461034757600080fd5b60008111801561035957506007548111155b151561036457600080fd5b600455565b600054600160a060020a031681565b600054600160a060020a0316331461038f57600080fd5b6000811180156103a157506007548111155b15156103ac57600080fd5b600355565b600054600160a060020a031633146103c857600080fd5b6000811180156103da57506007548111155b15156103e557600080fd5b600655565b60045481565b600054600160a060020a0316331461040757600080fd5b60008111801561041957506007548111155b151561042457600080fd5b600255565b60065481565b600054600160a060020a0316331461044657600080fd5b600160a060020a038116151561045b57600080fd5b60008054604051600160a060020a03808516939216917f8be0079c531659141344cd1fd0a4f28419497f9722a3daafe3b4186f6b6457e091a36000805473ffffffffffffffffffffffffffffffffffffffff1916600160a060020a0392909216919091179055565b600554815600a165627a7a72305820c987a041caf1f055b0430af00514ae9bcef328231e20d7204e22bead5d290c3e0029",
  "source": "pragma solidity ^0.4.23;\r\n\r\nimport \"./Ownable.sol\";\r\n\r\n\r\ncontract Fees is Ownable {\r\n\r\n    uint public managerRegistrationFee = 1 ether;\r\n    uint public managerApprovalFee = 5 ether;\r\n\r\n    uint public managerRegistrationFeeTokens = 10000 * 10 ** 18;\r\n    uint public managerApprovalFeeTokens = 50000 * 10 ** 18;\r\n    uint public voteFeeTokens = 10 * 10 ** 18;\r\n    uint private max = 2**256-1;\r\n\r\n    /*\r\n    * @title Set manager registration fee\r\n    * @author Tadas Talaikis <info@talaikis.com>\r\n    * @param {uint} _fee Fee in wei\r\n    */\r\n    function setManagerRegistrationFee(uint _fee)\r\n    public\r\n    onlyOwner {\r\n        require(_fee > 0 && _fee <= max);\r\n        managerRegistrationFee = _fee;\r\n    }\r\n\r\n    /*\r\n    * @title Set manager approval fee\r\n    * @author Tadas Talaikis <info@talaikis.com>\r\n    * @param {uint} _fee Fee in wei\r\n    */\r\n    function setManagerApprovalFee(uint _fee)\r\n    public\r\n    onlyOwner {\r\n        require(_fee > 0 && _fee <= max);\r\n        managerApprovalFee = _fee;\r\n    }\r\n\r\n    /*\r\n    * @title Set manager registration fee in tokens\r\n    * @author Tadas Talaikis <info@talaikis.com>\r\n    * @param {uint} _fee Fee in tokens\r\n    */\r\n    function setManagerRegistrationFeeTokens(uint _fee)\r\n    public\r\n    onlyOwner {\r\n        require(_fee > 0 && _fee <= max);\r\n        managerRegistrationFeeTokens = _fee;\r\n    }\r\n\r\n    /*\r\n    * @title Set manager approval fee in tokens\r\n    * @author Tadas Talaikis <info@talaikis.com>\r\n    * @param {uint} _fee Fee in tokens\r\n    */\r\n    function setManagerApprovalFeeTokens(uint _fee)\r\n    public\r\n    onlyOwner {\r\n        require(_fee > 0 && _fee <= max);\r\n        managerApprovalFeeTokens = _fee;\r\n    }\r\n\r\n    /*\r\n    * @title Set voting fee in tokens\r\n    * @author Tadas Talaikis <info@talaikis.com>\r\n    * @param {uint} _fee Fee in tokens\r\n    */\r\n    function setVoteFeeTokens(uint _fee)\r\n    public\r\n    onlyOwner {\r\n        require(_fee > 0 && _fee <= max);\r\n        voteFeeTokens = _fee;\r\n    }\r\n\r\n}\r\n",
  "sourcePath": "C:\\Users\\DXenu\\Desktop\\box\\identiform\\contracts\\database\\Fees.sol",
  "compiler": {
    "name": "solc",
    "version": "0.4.24+commit.e67f0147.Emscripten.clang"
  },
  "schemaVersion": "2.0.0",
  "updatedAt": "2018-06-17T09:46:19.802Z"
}