{
  "contractName": "Ownable",
  "abi": [
    {
      "constant": true,
      "inputs": [],
      "name": "bot",
      "outputs": [
        {
          "name": "",
          "type": "address"
        }
      ],
      "payable": false,
      "stateMutability": "view",
      "type": "function"
    },
    {
      "constant": true,
      "inputs": [],
      "name": "owner",
      "outputs": [
        {
          "name": "",
          "type": "address"
        }
      ],
      "payable": false,
      "stateMutability": "view",
      "type": "function"
    },
    {
      "inputs": [],
      "payable": false,
      "stateMutability": "nonpayable",
      "type": "constructor"
    },
    {
      "anonymous": false,
      "inputs": [
        {
          "indexed": true,
          "name": "previousOwner",
          "type": "address"
        },
        {
          "indexed": true,
          "name": "newOwner",
          "type": "address"
        }
      ],
      "name": "OwnershipTransferred",
      "type": "event"
    },
    {
      "constant": false,
      "inputs": [
        {
          "name": "_bot",
          "type": "address"
        }
      ],
      "name": "setBot",
      "outputs": [],
      "payable": false,
      "stateMutability": "nonpayable",
      "type": "function"
    },
    {
      "constant": true,
      "inputs": [],
      "name": "validate",
      "outputs": [
        {
          "name": "",
          "type": "bool"
        }
      ],
      "payable": false,
      "stateMutability": "view",
      "type": "function"
    },
    {
      "constant": false,
      "inputs": [
        {
          "name": "_newOwner",
          "type": "address"
        }
      ],
      "name": "transferOwnership",
      "outputs": [],
      "payable": false,
      "stateMutability": "nonpayable",
      "type": "function"
    }
  ],
  "bytecode": "0x608060405234801561001057600080fd5b5060008054600160a060020a03191633179055610259806100326000396000f30060806040526004361061006c5763ffffffff7c010000000000000000000000000000000000000000000000000000000060003504166310814c3781146100715780636901f668146100a25780636b5caec4146100cb5780638da5cb5b146100ee578063f2fde38b14610103575b600080fd5b34801561007d57600080fd5b50610086610124565b60408051600160a060020a039092168252519081900360200190f35b3480156100ae57600080fd5b506100b7610133565b604080519115158252519081900360200190f35b3480156100d757600080fd5b506100ec600160a060020a0360043516610144565b005b3480156100fa57600080fd5b5061008661018a565b34801561010f57600080fd5b506100ec600160a060020a0360043516610199565b600154600160a060020a031681565b600054600160a060020a0316331490565b600054600160a060020a0316331461015b57600080fd5b6001805473ffffffffffffffffffffffffffffffffffffffff1916600160a060020a0392909216919091179055565b600054600160a060020a031681565b600054600160a060020a031633146101b057600080fd5b600160a060020a03811615156101c557600080fd5b60008054604051600160a060020a03808516939216917f8be0079c531659141344cd1fd0a4f28419497f9722a3daafe3b4186f6b6457e091a36000805473ffffffffffffffffffffffffffffffffffffffff1916600160a060020a03929092169190911790555600a165627a7a72305820445bb639c4f9a1e65dd52f65584305e6287f6517a667479af6c55b521ccdee140029",
  "source": "pragma solidity ^0.4.23;\r\n\r\n\r\ncontract Ownable {\r\n\r\n    address public owner;\r\n    address public bot;\r\n\r\n    event OwnershipTransferred(address indexed previousOwner, address indexed newOwner);\r\n\r\n    constructor() public {\r\n        owner = msg.sender;\r\n    }\r\n\r\n    modifier onlyOwner() {\r\n        require(msg.sender == owner);\r\n        _;\r\n    }\r\n\r\n    modifier onlyBy(address _account) {\r\n        require(msg.sender == _account);\r\n        _;\r\n    }\r\n\r\n    modifier onlyOwnerOrBy(address _account) {\r\n        require(msg.sender == _account || msg.sender == owner);\r\n        _;\r\n    }\r\n\r\n    modifier botOnly() {\r\n        require(msg.sender == bot);\r\n        _;\r\n    }\r\n\r\n    /*\r\n    * @title Set bot\r\n    * @author Tadas Talaikis <info@talaikis.com>\r\n    * @param {address} _bot Address of bot\r\n    */\r\n    function setBot(address _bot) external onlyOwner {\r\n        bot = _bot;\r\n    }\r\n\r\n    /*\r\n    * @title Validate if user is owner\r\n    * @author Tadas Talaikis <info@talaikis.com>\r\n    */\r\n    function validate() public view returns (bool) {\r\n        return (msg.sender == owner);\r\n    }\r\n\r\n    /*\r\n    * @title Transfer ownership of contract\r\n    * @author Tadas Talaikis <info@talaikis.com>\r\n    * @param {address} _newOwner Address of new owner\r\n    */\r\n    function transferOwnership(address _newOwner) public onlyOwner {\r\n        require(_newOwner != address(0));\r\n        emit OwnershipTransferred(owner, _newOwner);\r\n        owner = _newOwner;\r\n    }\r\n\r\n}\r\n",
  "sourcePath": "C:\\Users\\DXenu\\Desktop\\box\\identiform\\contracts\\database\\Ownable.sol",
  "compiler": {
    "name": "solc",
    "version": "0.4.24+commit.e67f0147.Emscripten.clang"
  },
  "schemaVersion": "2.0.0",
  "updatedAt": "2018-06-17T09:46:19.843Z"
}