{
  "contractName": "Reputation",
  "abi": [
    {
      "constant": true,
      "inputs": [],
      "name": "bot",
      "outputs": [
        {
          "name": "",
          "type": "address"
        }
      ],
      "payable": false,
      "stateMutability": "view",
      "type": "function"
    },
    {
      "constant": true,
      "inputs": [],
      "name": "addressDocumentPoints",
      "outputs": [
        {
          "name": "",
          "type": "uint256"
        }
      ],
      "payable": false,
      "stateMutability": "view",
      "type": "function"
    },
    {
      "constant": true,
      "inputs": [],
      "name": "emailConfirmationPoints",
      "outputs": [
        {
          "name": "",
          "type": "uint256"
        }
      ],
      "payable": false,
      "stateMutability": "view",
      "type": "function"
    },
    {
      "constant": true,
      "inputs": [],
      "name": "idDocumentPoints",
      "outputs": [
        {
          "name": "",
          "type": "uint256"
        }
      ],
      "payable": false,
      "stateMutability": "view",
      "type": "function"
    },
    {
      "constant": true,
      "inputs": [],
      "name": "validate",
      "outputs": [
        {
          "name": "",
          "type": "bool"
        }
      ],
      "payable": false,
      "stateMutability": "view",
      "type": "function"
    },
    {
      "constant": false,
      "inputs": [
        {
          "name": "_bot",
          "type": "address"
        }
      ],
      "name": "setBot",
      "outputs": [],
      "payable": false,
      "stateMutability": "nonpayable",
      "type": "function"
    },
    {
      "constant": true,
      "inputs": [],
      "name": "owner",
      "outputs": [
        {
          "name": "",
          "type": "address"
        }
      ],
      "payable": false,
      "stateMutability": "view",
      "type": "function"
    },
    {
      "constant": true,
      "inputs": [],
      "name": "phonePoints",
      "outputs": [
        {
          "name": "",
          "type": "uint256"
        }
      ],
      "payable": false,
      "stateMutability": "view",
      "type": "function"
    },
    {
      "constant": true,
      "inputs": [],
      "name": "upVote",
      "outputs": [
        {
          "name": "",
          "type": "uint256"
        }
      ],
      "payable": false,
      "stateMutability": "view",
      "type": "function"
    },
    {
      "constant": false,
      "inputs": [
        {
          "name": "_newOwner",
          "type": "address"
        }
      ],
      "name": "transferOwnership",
      "outputs": [],
      "payable": false,
      "stateMutability": "nonpayable",
      "type": "function"
    },
    {
      "anonymous": false,
      "inputs": [
        {
          "indexed": true,
          "name": "previousOwner",
          "type": "address"
        },
        {
          "indexed": true,
          "name": "newOwner",
          "type": "address"
        }
      ],
      "name": "OwnershipTransferred",
      "type": "event"
    },
    {
      "constant": false,
      "inputs": [
        {
          "name": "_amount",
          "type": "uint256"
        }
      ],
      "name": "setEmailConfirmationPoints",
      "outputs": [],
      "payable": false,
      "stateMutability": "nonpayable",
      "type": "function"
    },
    {
      "constant": false,
      "inputs": [
        {
          "name": "_amount",
          "type": "uint256"
        }
      ],
      "name": "setIdDocumentPoints",
      "outputs": [],
      "payable": false,
      "stateMutability": "nonpayable",
      "type": "function"
    },
    {
      "constant": false,
      "inputs": [
        {
          "name": "_amount",
          "type": "uint256"
        }
      ],
      "name": "setAddressDocumentPoints",
      "outputs": [],
      "payable": false,
      "stateMutability": "nonpayable",
      "type": "function"
    },
    {
      "constant": false,
      "inputs": [
        {
          "name": "_amount",
          "type": "uint256"
        }
      ],
      "name": "setUpVote",
      "outputs": [],
      "payable": false,
      "stateMutability": "nonpayable",
      "type": "function"
    },
    {
      "constant": false,
      "inputs": [
        {
          "name": "_amount",
          "type": "uint256"
        }
      ],
      "name": "setPhonePoints",
      "outputs": [],
      "payable": false,
      "stateMutability": "nonpayable",
      "type": "function"
    }
  ],
  "bytecode": "0x6080604052600a600281905560038190556004819055600555600160065560001960075560008054600160a060020a031916331790556104f5806100446000396000f3006080604052600436106100da5763ffffffff7c010000000000000000000000000000000000000000000000000000000060003504166310814c3781146100df578063164d065c146101105780631824fe0614610137578063556ec0ff1461014c578063571d1b9114610161578063652209461461017b5780636901f668146101935780636b5caec4146101bc5780637f5984bb146101dd5780638da5cb5b146101f5578063ad60b64b1461020a578063cf56619b1461021f578063d4d0c6de14610237578063eed7c1281461024f578063f2fde38b14610264575b600080fd5b3480156100eb57600080fd5b506100f4610285565b60408051600160a060020a039092168252519081900360200190f35b34801561011c57600080fd5b50610125610294565b60408051918252519081900360200190f35b34801561014357600080fd5b5061012561029a565b34801561015857600080fd5b506101256102a0565b34801561016d57600080fd5b506101796004356102a6565b005b34801561018757600080fd5b506101796004356102df565b34801561019f57600080fd5b506101a8610318565b604080519115158252519081900360200190f35b3480156101c857600080fd5b50610179600160a060020a0360043516610329565b3480156101e957600080fd5b5061017960043561036f565b34801561020157600080fd5b506100f46103a8565b34801561021657600080fd5b506101256103b7565b34801561022b57600080fd5b506101796004356103bd565b34801561024357600080fd5b506101796004356103f6565b34801561025b57600080fd5b5061012561042f565b34801561027057600080fd5b50610179600160a060020a0360043516610435565b600154600160a060020a031681565b60045481565b60025481565b60035481565b600054600160a060020a031633146102bd57600080fd5b6000811180156102cf57506007548111155b15156102da57600080fd5b600455565b600054600160a060020a031633146102f657600080fd5b60008111801561030857506007548111155b151561031357600080fd5b600555565b600054600160a060020a0316331490565b600054600160a060020a0316331461034057600080fd5b6001805473ffffffffffffffffffffffffffffffffffffffff1916600160a060020a0392909216919091179055565b600054600160a060020a0316331461038657600080fd5b60008111801561039857506007548111155b15156103a357600080fd5b600355565b600054600160a060020a031681565b60055481565b600054600160a060020a031633146103d457600080fd5b6000811180156103e657506007548111155b15156103f157600080fd5b600655565b600054600160a060020a0316331461040d57600080fd5b60008111801561041f57506007548111155b151561042a57600080fd5b600255565b60065481565b600054600160a060020a0316331461044c57600080fd5b600160a060020a038116151561046157600080fd5b60008054604051600160a060020a03808516939216917f8be0079c531659141344cd1fd0a4f28419497f9722a3daafe3b4186f6b6457e091a36000805473ffffffffffffffffffffffffffffffffffffffff1916600160a060020a03929092169190911790555600a165627a7a72305820b9901247f7e2ab501f254bfffdcddcd7ac67efa7cb804ac0fe28304d84eba5ff0029",
  "source": "pragma solidity ^0.4.23;\r\n\r\nimport \"./Ownable.sol\";\r\n\r\n\r\ncontract Reputation is Ownable {\r\n\r\n    uint public emailConfirmationPoints = 10;\r\n    uint public idDocumentPoints = 10;\r\n    uint public addressDocumentPoints = 10;\r\n    uint public phonePoints = 10;\r\n    uint public upVote = 1;\r\n    uint private max = 2**256-1;\r\n\r\n    /*\r\n    * @title Set email confrmation reputation\r\n    * @author Tadas Talaikis <info@talaikis.com>\r\n    * @param {uint} _amount Amount in repuation points\r\n    */\r\n    function setEmailConfirmationPoints(uint _amount) public onlyOwner {\r\n        require(_amount > 0 && _amount <= max);\r\n        emailConfirmationPoints = _amount;\r\n    }\r\n\r\n    /*\r\n    * @title Set ID confirmation reputation\r\n    * @author Tadas Talaikis <info@talaikis.com>\r\n    * @param {uint} _amount Amount in repuation points\r\n    */\r\n    function setIdDocumentPoints(uint _amount) public onlyOwner {\r\n        require(_amount > 0 && _amount <= max);\r\n        idDocumentPoints = _amount;\r\n    }\r\n\r\n    /*\r\n    * @title Set address confrmation reputation\r\n    * @author Tadas Talaikis <info@talaikis.com>\r\n    * @param {uint} _amount Amount in repuation points\r\n    */\r\n    function setAddressDocumentPoints(uint _amount) public onlyOwner {\r\n        require(_amount > 0 && _amount <= max);\r\n        addressDocumentPoints = _amount;\r\n    }\r\n\r\n    /*\r\n    * @title Set vote points\r\n    * @author Tadas Talaikis <info@talaikis.com>\r\n    * @param {uint} _amount Amount in repuation points\r\n    */\r\n    function setUpVote(uint _amount) public onlyOwner {\r\n        require(_amount > 0 && _amount <= max);\r\n        upVote = _amount;\r\n    }\r\n\r\n    /*\r\n    * @title Set phone confirmation points\r\n    * @author Tadas Talaikis <info@talaikis.com>\r\n    * @param {uint} _amount Amount in repuation points\r\n    */\r\n    function setPhonePoints(uint _amount) public onlyOwner {\r\n        require(_amount > 0 && _amount <= max);\r\n        phonePoints = _amount;\r\n    }\r\n\r\n}\r\n",
  "sourcePath": "C:\\Users\\DXenu\\Desktop\\box\\identiform\\contracts\\database\\Reputation.sol",
  "compiler": {
    "name": "solc",
    "version": "0.4.24+commit.e67f0147.Emscripten.clang"
  },
  "schemaVersion": "2.0.0",
  "updatedAt": "2018-06-17T09:46:19.841Z"
}