{
  "contractName": "Roles",
  "abi": [
    {
      "constant": true,
      "inputs": [],
      "name": "bot",
      "outputs": [
        {
          "name": "",
          "type": "address"
        }
      ],
      "payable": false,
      "stateMutability": "view",
      "type": "function"
    },
    {
      "constant": true,
      "inputs": [],
      "name": "validate",
      "outputs": [
        {
          "name": "",
          "type": "bool"
        }
      ],
      "payable": false,
      "stateMutability": "view",
      "type": "function"
    },
    {
      "constant": false,
      "inputs": [
        {
          "name": "_bot",
          "type": "address"
        }
      ],
      "name": "setBot",
      "outputs": [],
      "payable": false,
      "stateMutability": "nonpayable",
      "type": "function"
    },
    {
      "constant": true,
      "inputs": [],
      "name": "owner",
      "outputs": [
        {
          "name": "",
          "type": "address"
        }
      ],
      "payable": false,
      "stateMutability": "view",
      "type": "function"
    },
    {
      "constant": false,
      "inputs": [
        {
          "name": "_newOwner",
          "type": "address"
        }
      ],
      "name": "transferOwnership",
      "outputs": [],
      "payable": false,
      "stateMutability": "nonpayable",
      "type": "function"
    },
    {
      "anonymous": false,
      "inputs": [
        {
          "indexed": true,
          "name": "previousOwner",
          "type": "address"
        },
        {
          "indexed": true,
          "name": "newOwner",
          "type": "address"
        }
      ],
      "name": "OwnershipTransferred",
      "type": "event"
    },
    {
      "constant": false,
      "inputs": [
        {
          "name": "_user",
          "type": "address"
        },
        {
          "name": "_role",
          "type": "uint8"
        }
      ],
      "name": "setUserRole",
      "outputs": [
        {
          "name": "",
          "type": "bool"
        }
      ],
      "payable": false,
      "stateMutability": "nonpayable",
      "type": "function"
    },
    {
      "constant": true,
      "inputs": [
        {
          "name": "_user",
          "type": "address"
        }
      ],
      "name": "getRole",
      "outputs": [
        {
          "name": "",
          "type": "uint8"
        }
      ],
      "payable": false,
      "stateMutability": "view",
      "type": "function"
    },
    {
      "constant": true,
      "inputs": [
        {
          "name": "_role",
          "type": "uint8"
        }
      ],
      "name": "validateAs",
      "outputs": [
        {
          "name": "",
          "type": "bool"
        }
      ],
      "payable": false,
      "stateMutability": "view",
      "type": "function"
    }
  ],
  "bytecode": "0x608060405260008054600160a060020a031916331790556103d4806100256000396000f30060806040526004361061008d5763ffffffff7c010000000000000000000000000000000000000000000000000000000060003504166303a69611811461009257806310814c37146100cd57806344276733146100fe5780636901f668146101435780636b5caec4146101585780638da5cb5b1461017b578063990892d414610190578063f2fde38b146101ab575b600080fd5b34801561009e57600080fd5b506100b9600160a060020a036004351660ff602435166101cc565b604080519115158252519081900360200190f35b3480156100d957600080fd5b506100e261024e565b60408051600160a060020a039092168252519081900360200190f35b34801561010a57600080fd5b5061011f600160a060020a036004351661025d565b6040518082600381111561012f57fe5b60ff16815260200191505060405180910390f35b34801561014f57600080fd5b506100b961027b565b34801561016457600080fd5b50610179600160a060020a036004351661028c565b005b34801561018757600080fd5b506100e26102d2565b34801561019c57600080fd5b506100b960ff600435166102e1565b3480156101b757600080fd5b50610179600160a060020a0360043516610314565b60006003803360009081526002602052604090205460ff1660038111156101ef57fe5b14806102055750600054600160a060020a031633145b151561021057600080fd5b600160a060020a0384166000908152600260205260409020805484919060ff1916600183600381111561023f57fe5b02179055506001949350505050565b600154600160a060020a031681565b600160a060020a031660009081526002602052604090205460ff1690565b600054600160a060020a0316331490565b600054600160a060020a031633146102a357600080fd5b6001805473ffffffffffffffffffffffffffffffffffffffff1916600160a060020a0392909216919091179055565b600054600160a060020a031681565b60008160038111156102ef57fe5b3360009081526002602052604090205460ff16600381111561030d57fe5b1492915050565b600054600160a060020a0316331461032b57600080fd5b600160a060020a038116151561034057600080fd5b60008054604051600160a060020a03808516939216917f8be0079c531659141344cd1fd0a4f28419497f9722a3daafe3b4186f6b6457e091a36000805473ffffffffffffffffffffffffffffffffffffffff1916600160a060020a03929092169190911790555600a165627a7a72305820a13ebf5895d443ee4a9f89e10f28c2a33f514a8554c5cab3d39fb70ae2d90e8d0029",
  "source": "pragma solidity ^0.4.23;\r\n\r\nimport \"./Ownable.sol\";\r\n\r\n\r\ncontract Roles is Ownable {\r\n\r\n    enum Role {\r\n        Default,\r\n        Admin,\r\n        Manager,\r\n        SuperAdmin\r\n    }\r\n\r\n    mapping(address => Role) internal roles;\r\n\r\n    modifier onlyAs(Role _role) {\r\n        require(roles[msg.sender] == _role);\r\n        _;\r\n    }\r\n\r\n    modifier onlyAsOrOwner(Role _role) {\r\n        require(roles[msg.sender] == _role || msg.sender == owner);\r\n        _;\r\n    }\r\n\r\n    modifier onlyAsOrOwnerOrBy(Role _role, address _account) {\r\n        require(msg.sender == _account || msg.sender == owner || roles[msg.sender] == _role);\r\n        _;\r\n    }\r\n\r\n    /*\r\n    * @title Set user's role\r\n    * @author Tadas Talaikis <info@talaikis.com>\r\n    * @param {address} _user User's address\r\n    * @param {Role} _role Role ID\r\n    * @dev only owner or suepr admin can set this to avoid removal \r\n    * of role from owner itsefl\r\n    */\r\n    function setUserRole(address _user, Role _role)\r\n    public\r\n    onlyAsOrOwner(Role.SuperAdmin)\r\n    returns (bool) {\r\n        roles[_user] = _role;\r\n        return true;\r\n    }\r\n\r\n    /*\r\n    * @title Get user's role\r\n    * @author Tadas Talaikis <info@talaikis.com>\r\n    * @param {address} _user Amount in repuation points\r\n    */\r\n    function getRole(address _user) public view returns (Role) {\r\n        return roles[_user];\r\n    }\r\n\r\n    /*\r\n    * @title Validate as role\r\n    * @author Tadas Talaikis <info@talaikis.com>\r\n    * @param {Role} _role Role ID\r\n    */\r\n    function validateAs(Role _role) public view returns (bool) {\r\n        return (roles[msg.sender] == _role);\r\n    }\r\n\r\n}\r\n",
  "sourcePath": "C:\\Users\\DXenu\\Desktop\\box\\identiform\\contracts\\database\\Roles.sol",
  "compiler": {
    "name": "solc",
    "version": "0.4.24+commit.e67f0147.Emscripten.clang"
  },
  "schemaVersion": "2.0.0",
  "updatedAt": "2018-06-17T09:46:19.868Z"
}