{
  "contractName": "Users",
  "abi": [
    {
      "constant": false,
      "inputs": [
        {
          "name": "_user",
          "type": "address"
        },
        {
          "name": "_role",
          "type": "uint8"
        }
      ],
      "name": "setUserRole",
      "outputs": [
        {
          "name": "",
          "type": "bool"
        }
      ],
      "payable": false,
      "stateMutability": "nonpayable",
      "type": "function"
    },
    {
      "constant": false,
      "inputs": [
        {
          "name": "_fee",
          "type": "uint256"
        }
      ],
      "name": "setManagerApprovalFeeTokens",
      "outputs": [],
      "payable": false,
      "stateMutability": "nonpayable",
      "type": "function"
    },
    {
      "constant": false,
      "inputs": [
        {
          "name": "_spender",
          "type": "address"
        },
        {
          "name": "_tokens",
          "type": "uint256"
        }
      ],
      "name": "approve",
      "outputs": [
        {
          "name": "success",
          "type": "bool"
        }
      ],
      "payable": false,
      "stateMutability": "nonpayable",
      "type": "function"
    },
    {
      "constant": true,
      "inputs": [],
      "name": "bot",
      "outputs": [
        {
          "name": "",
          "type": "address"
        }
      ],
      "payable": false,
      "stateMutability": "view",
      "type": "function"
    },
    {
      "constant": false,
      "inputs": [
        {
          "name": "_amount",
          "type": "uint256"
        }
      ],
      "name": "setRegistrationBonus",
      "outputs": [],
      "payable": false,
      "stateMutability": "nonpayable",
      "type": "function"
    },
    {
      "constant": true,
      "inputs": [],
      "name": "addressDocumentPoints",
      "outputs": [
        {
          "name": "",
          "type": "uint256"
        }
      ],
      "payable": false,
      "stateMutability": "view",
      "type": "function"
    },
    {
      "constant": true,
      "inputs": [],
      "name": "totalSupply",
      "outputs": [
        {
          "name": "",
          "type": "uint256"
        }
      ],
      "payable": false,
      "stateMutability": "view",
      "type": "function"
    },
    {
      "constant": true,
      "inputs": [],
      "name": "emailConfirmationPoints",
      "outputs": [
        {
          "name": "",
          "type": "uint256"
        }
      ],
      "payable": false,
      "stateMutability": "view",
      "type": "function"
    },
    {
      "constant": false,
      "inputs": [
        {
          "name": "_from",
          "type": "address"
        },
        {
          "name": "_to",
          "type": "address"
        },
        {
          "name": "_tokens",
          "type": "uint256"
        }
      ],
      "name": "transferFrom",
      "outputs": [
        {
          "name": "success",
          "type": "bool"
        }
      ],
      "payable": false,
      "stateMutability": "nonpayable",
      "type": "function"
    },
    {
      "constant": true,
      "inputs": [],
      "name": "_totalSupply",
      "outputs": [
        {
          "name": "",
          "type": "uint256"
        }
      ],
      "payable": false,
      "stateMutability": "view",
      "type": "function"
    },
    {
      "constant": true,
      "inputs": [],
      "name": "managerApprovalFee",
      "outputs": [
        {
          "name": "",
          "type": "uint256"
        }
      ],
      "payable": false,
      "stateMutability": "view",
      "type": "function"
    },
    {
      "constant": false,
      "inputs": [],
      "name": "unpause",
      "outputs": [],
      "payable": false,
      "stateMutability": "nonpayable",
      "type": "function"
    },
    {
      "constant": true,
      "inputs": [
        {
          "name": "_user",
          "type": "address"
        }
      ],
      "name": "getRole",
      "outputs": [
        {
          "name": "",
          "type": "uint8"
        }
      ],
      "payable": false,
      "stateMutability": "view",
      "type": "function"
    },
    {
      "constant": true,
      "inputs": [],
      "name": "idDocumentPoints",
      "outputs": [
        {
          "name": "",
          "type": "uint256"
        }
      ],
      "payable": false,
      "stateMutability": "view",
      "type": "function"
    },
    {
      "constant": false,
      "inputs": [
        {
          "name": "_amount",
          "type": "uint256"
        }
      ],
      "name": "setAddressDocumentPoints",
      "outputs": [],
      "payable": false,
      "stateMutability": "nonpayable",
      "type": "function"
    },
    {
      "constant": true,
      "inputs": [],
      "name": "paused",
      "outputs": [
        {
          "name": "",
          "type": "bool"
        }
      ],
      "payable": false,
      "stateMutability": "view",
      "type": "function"
    },
    {
      "constant": false,
      "inputs": [
        {
          "name": "_amount",
          "type": "uint256"
        }
      ],
      "name": "setPhonePoints",
      "outputs": [],
      "payable": false,
      "stateMutability": "nonpayable",
      "type": "function"
    },
    {
      "constant": true,
      "inputs": [],
      "name": "validate",
      "outputs": [
        {
          "name": "",
          "type": "bool"
        }
      ],
      "payable": false,
      "stateMutability": "view",
      "type": "function"
    },
    {
      "constant": false,
      "inputs": [
        {
          "name": "_bot",
          "type": "address"
        }
      ],
      "name": "setBot",
      "outputs": [],
      "payable": false,
      "stateMutability": "nonpayable",
      "type": "function"
    },
    {
      "constant": true,
      "inputs": [
        {
          "name": "_tokenOwner",
          "type": "address"
        }
      ],
      "name": "balanceOf",
      "outputs": [
        {
          "name": "balance",
          "type": "uint256"
        }
      ],
      "payable": false,
      "stateMutability": "view",
      "type": "function"
    },
    {
      "constant": true,
      "inputs": [
        {
          "name": "",
          "type": "address"
        }
      ],
      "name": "refs",
      "outputs": [
        {
          "name": "index",
          "type": "uint256"
        }
      ],
      "payable": false,
      "stateMutability": "view",
      "type": "function"
    },
    {
      "constant": true,
      "inputs": [],
      "name": "managerRegistrationFee",
      "outputs": [
        {
          "name": "",
          "type": "uint256"
        }
      ],
      "payable": false,
      "stateMutability": "view",
      "type": "function"
    },
    {
      "constant": false,
      "inputs": [
        {
          "name": "_amount",
          "type": "uint256"
        }
      ],
      "name": "setIdDocumentPoints",
      "outputs": [],
      "payable": false,
      "stateMutability": "nonpayable",
      "type": "function"
    },
    {
      "constant": false,
      "inputs": [],
      "name": "pause",
      "outputs": [],
      "payable": false,
      "stateMutability": "nonpayable",
      "type": "function"
    },
    {
      "constant": true,
      "inputs": [
        {
          "name": "",
          "type": "uint256"
        }
      ],
      "name": "refIndex",
      "outputs": [
        {
          "name": "",
          "type": "address"
        }
      ],
      "payable": false,
      "stateMutability": "view",
      "type": "function"
    },
    {
      "constant": true,
      "inputs": [
        {
          "name": "_addr",
          "type": "address"
        }
      ],
      "name": "existsManager",
      "outputs": [
        {
          "name": "isIndexed",
          "type": "bool"
        }
      ],
      "payable": false,
      "stateMutability": "view",
      "type": "function"
    },
    {
      "constant": false,
      "inputs": [
        {
          "name": "_fee",
          "type": "uint256"
        }
      ],
      "name": "setManagerRegistrationFeeTokens",
      "outputs": [],
      "payable": false,
      "stateMutability": "nonpayable",
      "type": "function"
    },
    {
      "constant": false,
      "inputs": [
        {
          "name": "_manager",
          "type": "address"
        }
      ],
      "name": "removeFromWhitelist",
      "outputs": [],
      "payable": false,
      "stateMutability": "nonpayable",
      "type": "function"
    },
    {
      "constant": true,
      "inputs": [],
      "name": "owner",
      "outputs": [
        {
          "name": "",
          "type": "address"
        }
      ],
      "payable": false,
      "stateMutability": "view",
      "type": "function"
    },
    {
      "constant": false,
      "inputs": [
        {
          "name": "_fee",
          "type": "uint256"
        }
      ],
      "name": "setManagerApprovalFee",
      "outputs": [],
      "payable": false,
      "stateMutability": "nonpayable",
      "type": "function"
    },
    {
      "constant": true,
      "inputs": [
        {
          "name": "",
          "type": "uint256"
        }
      ],
      "name": "managerIndex",
      "outputs": [
        {
          "name": "",
          "type": "address"
        }
      ],
      "payable": false,
      "stateMutability": "view",
      "type": "function"
    },
    {
      "constant": true,
      "inputs": [
        {
          "name": "_role",
          "type": "uint8"
        }
      ],
      "name": "validateAs",
      "outputs": [
        {
          "name": "",
          "type": "bool"
        }
      ],
      "payable": false,
      "stateMutability": "view",
      "type": "function"
    },
    {
      "constant": true,
      "inputs": [
        {
          "name": "_addr",
          "type": "address"
        }
      ],
      "name": "existsRef",
      "outputs": [
        {
          "name": "isIndexed",
          "type": "bool"
        }
      ],
      "payable": false,
      "stateMutability": "view",
      "type": "function"
    },
    {
      "constant": false,
      "inputs": [
        {
          "name": "_amount",
          "type": "uint256"
        }
      ],
      "name": "setReferralBonus",
      "outputs": [],
      "payable": false,
      "stateMutability": "nonpayable",
      "type": "function"
    },
    {
      "constant": true,
      "inputs": [
        {
          "name": "",
          "type": "address"
        }
      ],
      "name": "users",
      "outputs": [
        {
          "name": "index",
          "type": "uint256"
        },
        {
          "name": "_hash",
          "type": "string"
        },
        {
          "name": "reputationPoints",
          "type": "uint256"
        },
        {
          "name": "ref",
          "type": "address"
        },
        {
          "name": "paid",
          "type": "bool"
        },
        {
          "name": "publicHash",
          "type": "string"
        },
        {
          "name": "rulesHash",
          "type": "string"
        }
      ],
      "payable": false,
      "stateMutability": "view",
      "type": "function"
    },
    {
      "constant": false,
      "inputs": [
        {
          "name": "_to",
          "type": "address"
        },
        {
          "name": "_tokens",
          "type": "uint256"
        }
      ],
      "name": "transfer",
      "outputs": [
        {
          "name": "success",
          "type": "bool"
        }
      ],
      "payable": false,
      "stateMutability": "nonpayable",
      "type": "function"
    },
    {
      "constant": false,
      "inputs": [
        {
          "name": "_fee",
          "type": "uint256"
        }
      ],
      "name": "setVoteFeeTokens",
      "outputs": [],
      "payable": false,
      "stateMutability": "nonpayable",
      "type": "function"
    },
    {
      "constant": true,
      "inputs": [],
      "name": "phonePoints",
      "outputs": [
        {
          "name": "",
          "type": "uint256"
        }
      ],
      "payable": false,
      "stateMutability": "view",
      "type": "function"
    },
    {
      "constant": true,
      "inputs": [
        {
          "name": "",
          "type": "uint256"
        }
      ],
      "name": "userIndex",
      "outputs": [
        {
          "name": "",
          "type": "address"
        }
      ],
      "payable": false,
      "stateMutability": "view",
      "type": "function"
    },
    {
      "constant": true,
      "inputs": [],
      "name": "managerRegistrationFeeTokens",
      "outputs": [
        {
          "name": "",
          "type": "uint256"
        }
      ],
      "payable": false,
      "stateMutability": "view",
      "type": "function"
    },
    {
      "constant": true,
      "inputs": [],
      "name": "referralBonus",
      "outputs": [
        {
          "name": "",
          "type": "uint256"
        }
      ],
      "payable": false,
      "stateMutability": "view",
      "type": "function"
    },
    {
      "constant": false,
      "inputs": [
        {
          "name": "_amount",
          "type": "uint256"
        }
      ],
      "name": "setUpVote",
      "outputs": [],
      "payable": false,
      "stateMutability": "nonpayable",
      "type": "function"
    },
    {
      "constant": false,
      "inputs": [
        {
          "name": "_amount",
          "type": "uint256"
        }
      ],
      "name": "setEmailConfirmationPoints",
      "outputs": [],
      "payable": false,
      "stateMutability": "nonpayable",
      "type": "function"
    },
    {
      "constant": false,
      "inputs": [
        {
          "name": "_fee",
          "type": "uint256"
        }
      ],
      "name": "setManagerRegistrationFee",
      "outputs": [],
      "payable": false,
      "stateMutability": "nonpayable",
      "type": "function"
    },
    {
      "constant": true,
      "inputs": [],
      "name": "registrationBonus",
      "outputs": [
        {
          "name": "",
          "type": "uint256"
        }
      ],
      "payable": false,
      "stateMutability": "view",
      "type": "function"
    },
    {
      "constant": true,
      "inputs": [
        {
          "name": "_manager",
          "type": "address"
        }
      ],
      "name": "getWhitelistStatus",
      "outputs": [
        {
          "name": "",
          "type": "bool"
        }
      ],
      "payable": false,
      "stateMutability": "view",
      "type": "function"
    },
    {
      "constant": true,
      "inputs": [
        {
          "name": "_tokenOwner",
          "type": "address"
        },
        {
          "name": "_spender",
          "type": "address"
        }
      ],
      "name": "allowance",
      "outputs": [
        {
          "name": "remaining",
          "type": "uint256"
        }
      ],
      "payable": false,
      "stateMutability": "view",
      "type": "function"
    },
    {
      "constant": false,
      "inputs": [
        {
          "name": "_manager",
          "type": "address"
        }
      ],
      "name": "addToWhitelist",
      "outputs": [],
      "payable": false,
      "stateMutability": "nonpayable",
      "type": "function"
    },
    {
      "constant": true,
      "inputs": [],
      "name": "voteFeeTokens",
      "outputs": [
        {
          "name": "",
          "type": "uint256"
        }
      ],
      "payable": false,
      "stateMutability": "view",
      "type": "function"
    },
    {
      "constant": true,
      "inputs": [],
      "name": "upVote",
      "outputs": [
        {
          "name": "",
          "type": "uint256"
        }
      ],
      "payable": false,
      "stateMutability": "view",
      "type": "function"
    },
    {
      "constant": false,
      "inputs": [
        {
          "name": "_newOwner",
          "type": "address"
        }
      ],
      "name": "transferOwnership",
      "outputs": [],
      "payable": false,
      "stateMutability": "nonpayable",
      "type": "function"
    },
    {
      "constant": true,
      "inputs": [
        {
          "name": "_addr",
          "type": "address"
        }
      ],
      "name": "existsUser",
      "outputs": [
        {
          "name": "isIndexed",
          "type": "bool"
        }
      ],
      "payable": false,
      "stateMutability": "view",
      "type": "function"
    },
    {
      "constant": true,
      "inputs": [],
      "name": "managerApprovalFeeTokens",
      "outputs": [
        {
          "name": "",
          "type": "uint256"
        }
      ],
      "payable": false,
      "stateMutability": "view",
      "type": "function"
    },
    {
      "constant": true,
      "inputs": [
        {
          "name": "",
          "type": "address"
        }
      ],
      "name": "managers",
      "outputs": [
        {
          "name": "index",
          "type": "uint256"
        },
        {
          "name": "_hash",
          "type": "string"
        },
        {
          "name": "reputationPoints",
          "type": "uint256"
        },
        {
          "name": "publicHash",
          "type": "string"
        }
      ],
      "payable": false,
      "stateMutability": "view",
      "type": "function"
    },
    {
      "anonymous": false,
      "inputs": [
        {
          "indexed": true,
          "name": "_buyer",
          "type": "address"
        },
        {
          "indexed": false,
          "name": "tokens",
          "type": "uint256"
        }
      ],
      "name": "Burn",
      "type": "event"
    },
    {
      "anonymous": false,
      "inputs": [
        {
          "indexed": true,
          "name": "_addr",
          "type": "address"
        },
        {
          "indexed": false,
          "name": "_index",
          "type": "uint256"
        }
      ],
      "name": "NewUser",
      "type": "event"
    },
    {
      "anonymous": false,
      "inputs": [
        {
          "indexed": true,
          "name": "_addr",
          "type": "address"
        },
        {
          "indexed": false,
          "name": "_index",
          "type": "uint256"
        }
      ],
      "name": "UpdateUser",
      "type": "event"
    },
    {
      "anonymous": false,
      "inputs": [
        {
          "indexed": true,
          "name": "_addr",
          "type": "address"
        },
        {
          "indexed": false,
          "name": "_index",
          "type": "uint256"
        }
      ],
      "name": "DeleteUser",
      "type": "event"
    },
    {
      "anonymous": false,
      "inputs": [
        {
          "indexed": true,
          "name": "_addr",
          "type": "address"
        },
        {
          "indexed": false,
          "name": "_index",
          "type": "uint256"
        }
      ],
      "name": "NewManager",
      "type": "event"
    },
    {
      "anonymous": false,
      "inputs": [
        {
          "indexed": true,
          "name": "_addr",
          "type": "address"
        },
        {
          "indexed": false,
          "name": "_index",
          "type": "uint256"
        }
      ],
      "name": "UpdateManager",
      "type": "event"
    },
    {
      "anonymous": false,
      "inputs": [
        {
          "indexed": true,
          "name": "_addr",
          "type": "address"
        },
        {
          "indexed": false,
          "name": "_index",
          "type": "uint256"
        }
      ],
      "name": "DeleteManager",
      "type": "event"
    },
    {
      "anonymous": false,
      "inputs": [
        {
          "indexed": true,
          "name": "_addr",
          "type": "address"
        },
        {
          "indexed": false,
          "name": "_index",
          "type": "uint256"
        }
      ],
      "name": "NewRef",
      "type": "event"
    },
    {
      "anonymous": false,
      "inputs": [
        {
          "indexed": true,
          "name": "_addr",
          "type": "address"
        },
        {
          "indexed": false,
          "name": "_index",
          "type": "uint256"
        }
      ],
      "name": "DeleteRef",
      "type": "event"
    },
    {
      "anonymous": false,
      "inputs": [
        {
          "indexed": true,
          "name": "_addr",
          "type": "address"
        },
        {
          "indexed": false,
          "name": "_index",
          "type": "uint256"
        }
      ],
      "name": "UpdateRef",
      "type": "event"
    },
    {
      "anonymous": false,
      "inputs": [
        {
          "indexed": true,
          "name": "_addr",
          "type": "address"
        },
        {
          "indexed": false,
          "name": "_index",
          "type": "uint256"
        },
        {
          "indexed": false,
          "name": "_ref",
          "type": "address"
        }
      ],
      "name": "NewReferred",
      "type": "event"
    },
    {
      "anonymous": false,
      "inputs": [],
      "name": "Pause",
      "type": "event"
    },
    {
      "anonymous": false,
      "inputs": [],
      "name": "Unpause",
      "type": "event"
    },
    {
      "anonymous": false,
      "inputs": [
        {
          "indexed": true,
          "name": "previousOwner",
          "type": "address"
        },
        {
          "indexed": true,
          "name": "newOwner",
          "type": "address"
        }
      ],
      "name": "OwnershipTransferred",
      "type": "event"
    },
    {
      "anonymous": false,
      "inputs": [
        {
          "indexed": true,
          "name": "from",
          "type": "address"
        },
        {
          "indexed": true,
          "name": "to",
          "type": "address"
        },
        {
          "indexed": false,
          "name": "value",
          "type": "uint256"
        }
      ],
      "name": "Transfer",
      "type": "event"
    },
    {
      "anonymous": false,
      "inputs": [
        {
          "indexed": true,
          "name": "owner",
          "type": "address"
        },
        {
          "indexed": true,
          "name": "spender",
          "type": "address"
        },
        {
          "indexed": false,
          "name": "value",
          "type": "uint256"
        }
      ],
      "name": "Approval",
      "type": "event"
    },
    {
      "constant": false,
      "inputs": [
        {
          "name": "_addr",
          "type": "address"
        }
      ],
      "name": "updateUserReputationEmailConfirmation",
      "outputs": [],
      "payable": false,
      "stateMutability": "nonpayable",
      "type": "function"
    },
    {
      "constant": false,
      "inputs": [
        {
          "name": "_addr",
          "type": "address"
        }
      ],
      "name": "updateUserReputationIdDocument",
      "outputs": [],
      "payable": false,
      "stateMutability": "nonpayable",
      "type": "function"
    },
    {
      "constant": false,
      "inputs": [
        {
          "name": "_addr",
          "type": "address"
        }
      ],
      "name": "updateUserReputationAddressDocument",
      "outputs": [],
      "payable": false,
      "stateMutability": "nonpayable",
      "type": "function"
    },
    {
      "constant": false,
      "inputs": [
        {
          "name": "_addr",
          "type": "address"
        }
      ],
      "name": "updateUserReputationPhone",
      "outputs": [],
      "payable": false,
      "stateMutability": "nonpayable",
      "type": "function"
    },
    {
      "constant": false,
      "inputs": [
        {
          "name": "_hash",
          "type": "string"
        },
        {
          "name": "_publicHash",
          "type": "string"
        }
      ],
      "name": "newUser",
      "outputs": [
        {
          "name": "",
          "type": "bool"
        }
      ],
      "payable": false,
      "stateMutability": "nonpayable",
      "type": "function"
    },
    {
      "constant": false,
      "inputs": [
        {
          "name": "_hash",
          "type": "string"
        },
        {
          "name": "_publicHash",
          "type": "string"
        }
      ],
      "name": "newManager",
      "outputs": [],
      "payable": true,
      "stateMutability": "payable",
      "type": "function"
    },
    {
      "constant": false,
      "inputs": [
        {
          "name": "_hash",
          "type": "string"
        },
        {
          "name": "_publicHash",
          "type": "string"
        }
      ],
      "name": "newManagerWithTokens",
      "outputs": [],
      "payable": false,
      "stateMutability": "nonpayable",
      "type": "function"
    },
    {
      "constant": false,
      "inputs": [],
      "name": "newRef",
      "outputs": [
        {
          "name": "",
          "type": "bool"
        }
      ],
      "payable": false,
      "stateMutability": "nonpayable",
      "type": "function"
    },
    {
      "constant": false,
      "inputs": [
        {
          "name": "_hash",
          "type": "string"
        },
        {
          "name": "_publicHash",
          "type": "string"
        },
        {
          "name": "_ref",
          "type": "address"
        }
      ],
      "name": "newUserByRef",
      "outputs": [
        {
          "name": "",
          "type": "bool"
        }
      ],
      "payable": false,
      "stateMutability": "nonpayable",
      "type": "function"
    },
    {
      "constant": true,
      "inputs": [
        {
          "name": "_addr",
          "type": "address"
        }
      ],
      "name": "getUser",
      "outputs": [
        {
          "name": "",
          "type": "string"
        },
        {
          "name": "",
          "type": "uint8"
        },
        {
          "name": "",
          "type": "address"
        },
        {
          "name": "",
          "type": "bool"
        },
        {
          "name": "",
          "type": "uint256"
        }
      ],
      "payable": false,
      "stateMutability": "view",
      "type": "function"
    },
    {
      "constant": true,
      "inputs": [
        {
          "name": "_index",
          "type": "uint256"
        }
      ],
      "name": "getUserAtIndex",
      "outputs": [
        {
          "name": "",
          "type": "string"
        },
        {
          "name": "",
          "type": "uint8"
        },
        {
          "name": "",
          "type": "address"
        },
        {
          "name": "",
          "type": "bool"
        },
        {
          "name": "",
          "type": "uint256"
        },
        {
          "name": "",
          "type": "address"
        }
      ],
      "payable": false,
      "stateMutability": "view",
      "type": "function"
    },
    {
      "constant": true,
      "inputs": [
        {
          "name": "_index",
          "type": "uint256"
        },
        {
          "name": "_ref",
          "type": "address"
        }
      ],
      "name": "getRefUserAtIndex",
      "outputs": [
        {
          "name": "",
          "type": "address"
        }
      ],
      "payable": false,
      "stateMutability": "view",
      "type": "function"
    },
    {
      "constant": true,
      "inputs": [
        {
          "name": "_index",
          "type": "uint256"
        }
      ],
      "name": "getUserPublic",
      "outputs": [
        {
          "name": "",
          "type": "address"
        },
        {
          "name": "",
          "type": "string"
        },
        {
          "name": "",
          "type": "uint256"
        }
      ],
      "payable": false,
      "stateMutability": "view",
      "type": "function"
    },
    {
      "constant": true,
      "inputs": [
        {
          "name": "_addr",
          "type": "address"
        }
      ],
      "name": "getUserPublicAddr",
      "outputs": [
        {
          "name": "",
          "type": "address"
        },
        {
          "name": "",
          "type": "string"
        },
        {
          "name": "",
          "type": "uint256"
        }
      ],
      "payable": false,
      "stateMutability": "view",
      "type": "function"
    },
    {
      "constant": true,
      "inputs": [
        {
          "name": "_user",
          "type": "address"
        }
      ],
      "name": "getUserState",
      "outputs": [
        {
          "name": "",
          "type": "uint8"
        },
        {
          "name": "",
          "type": "string"
        },
        {
          "name": "",
          "type": "address"
        }
      ],
      "payable": false,
      "stateMutability": "view",
      "type": "function"
    },
    {
      "constant": true,
      "inputs": [
        {
          "name": "_index",
          "type": "uint256"
        }
      ],
      "name": "getUserStateAtIndex",
      "outputs": [
        {
          "name": "",
          "type": "uint8"
        },
        {
          "name": "",
          "type": "string"
        },
        {
          "name": "",
          "type": "address"
        }
      ],
      "payable": false,
      "stateMutability": "view",
      "type": "function"
    },
    {
      "constant": true,
      "inputs": [
        {
          "name": "_index",
          "type": "uint256"
        }
      ],
      "name": "getManagerAtIndex",
      "outputs": [
        {
          "name": "",
          "type": "address"
        },
        {
          "name": "",
          "type": "string"
        },
        {
          "name": "",
          "type": "string"
        },
        {
          "name": "",
          "type": "uint256"
        }
      ],
      "payable": false,
      "stateMutability": "view",
      "type": "function"
    },
    {
      "constant": true,
      "inputs": [
        {
          "name": "_index",
          "type": "uint256"
        }
      ],
      "name": "getManagerAtIndexPublic",
      "outputs": [
        {
          "name": "",
          "type": "address"
        },
        {
          "name": "",
          "type": "string"
        },
        {
          "name": "",
          "type": "uint256"
        }
      ],
      "payable": false,
      "stateMutability": "view",
      "type": "function"
    },
    {
      "constant": true,
      "inputs": [
        {
          "name": "_addr",
          "type": "address"
        }
      ],
      "name": "getManager",
      "outputs": [
        {
          "name": "",
          "type": "string"
        },
        {
          "name": "",
          "type": "string"
        },
        {
          "name": "",
          "type": "uint256"
        }
      ],
      "payable": false,
      "stateMutability": "view",
      "type": "function"
    },
    {
      "constant": true,
      "inputs": [
        {
          "name": "_addr",
          "type": "address"
        }
      ],
      "name": "getManagerPublic",
      "outputs": [
        {
          "name": "",
          "type": "address"
        },
        {
          "name": "",
          "type": "string"
        },
        {
          "name": "",
          "type": "uint256"
        }
      ],
      "payable": false,
      "stateMutability": "view",
      "type": "function"
    },
    {
      "constant": false,
      "inputs": [
        {
          "name": "_addr",
          "type": "address"
        },
        {
          "name": "_hash",
          "type": "string"
        },
        {
          "name": "publicHash",
          "type": "string"
        }
      ],
      "name": "updateUser",
      "outputs": [
        {
          "name": "",
          "type": "bool"
        }
      ],
      "payable": false,
      "stateMutability": "nonpayable",
      "type": "function"
    },
    {
      "constant": false,
      "inputs": [
        {
          "name": "_addr",
          "type": "address"
        },
        {
          "name": "_hash",
          "type": "string"
        }
      ],
      "name": "updatePublicInfo",
      "outputs": [
        {
          "name": "",
          "type": "bool"
        }
      ],
      "payable": false,
      "stateMutability": "nonpayable",
      "type": "function"
    },
    {
      "constant": false,
      "inputs": [
        {
          "name": "_addr",
          "type": "address"
        },
        {
          "name": "_hash",
          "type": "string"
        }
      ],
      "name": "updateRulesInfo",
      "outputs": [
        {
          "name": "",
          "type": "bool"
        }
      ],
      "payable": false,
      "stateMutability": "nonpayable",
      "type": "function"
    },
    {
      "constant": false,
      "inputs": [
        {
          "name": "_addr",
          "type": "address"
        },
        {
          "name": "_hash",
          "type": "string"
        },
        {
          "name": "_publicHash",
          "type": "string"
        }
      ],
      "name": "updateManager",
      "outputs": [
        {
          "name": "",
          "type": "bool"
        }
      ],
      "payable": false,
      "stateMutability": "nonpayable",
      "type": "function"
    },
    {
      "constant": false,
      "inputs": [
        {
          "name": "_addr",
          "type": "address"
        }
      ],
      "name": "deleteUser",
      "outputs": [
        {
          "name": "",
          "type": "bool"
        }
      ],
      "payable": false,
      "stateMutability": "nonpayable",
      "type": "function"
    },
    {
      "constant": false,
      "inputs": [
        {
          "name": "_addr",
          "type": "address"
        }
      ],
      "name": "deleteManager",
      "outputs": [
        {
          "name": "index",
          "type": "uint256"
        }
      ],
      "payable": false,
      "stateMutability": "nonpayable",
      "type": "function"
    },
    {
      "constant": false,
      "inputs": [
        {
          "name": "_addr",
          "type": "address"
        }
      ],
      "name": "deleteRef",
      "outputs": [
        {
          "name": "",
          "type": "bool"
        }
      ],
      "payable": false,
      "stateMutability": "nonpayable",
      "type": "function"
    },
    {
      "constant": true,
      "inputs": [],
      "name": "getUserCount",
      "outputs": [
        {
          "name": "count",
          "type": "uint256"
        }
      ],
      "payable": false,
      "stateMutability": "view",
      "type": "function"
    },
    {
      "constant": true,
      "inputs": [],
      "name": "getManagersCount",
      "outputs": [
        {
          "name": "",
          "type": "uint256"
        }
      ],
      "payable": false,
      "stateMutability": "view",
      "type": "function"
    },
    {
      "constant": true,
      "inputs": [],
      "name": "getRefCount",
      "outputs": [
        {
          "name": "",
          "type": "uint256"
        }
      ],
      "payable": false,
      "stateMutability": "view",
      "type": "function"
    },
    {
      "constant": true,
      "inputs": [
        {
          "name": "_ref",
          "type": "address"
        }
      ],
      "name": "getRefUsersCount",
      "outputs": [
        {
          "name": "",
          "type": "uint256"
        }
      ],
      "payable": false,
      "stateMutability": "view",
      "type": "function"
    },
    {
      "constant": false,
      "inputs": [
        {
          "name": "_user",
          "type": "address"
        },
        {
          "name": "_state",
          "type": "uint8"
        },
        {
          "name": "_ruleBook",
          "type": "address"
        }
      ],
      "name": "setUserStatus",
      "outputs": [
        {
          "name": "",
          "type": "bool"
        }
      ],
      "payable": false,
      "stateMutability": "nonpayable",
      "type": "function"
    },
    {
      "constant": false,
      "inputs": [
        {
          "name": "_user",
          "type": "address"
        },
        {
          "name": "_newAddress",
          "type": "address"
        }
      ],
      "name": "changeAddress",
      "outputs": [],
      "payable": false,
      "stateMutability": "nonpayable",
      "type": "function"
    },
    {
      "constant": false,
      "inputs": [
        {
          "name": "_addr",
          "type": "address"
        }
      ],
      "name": "upVoteUser",
      "outputs": [],
      "payable": false,
      "stateMutability": "nonpayable",
      "type": "function"
    },
    {
      "constant": false,
      "inputs": [
        {
          "name": "_addr",
          "type": "address"
        }
      ],
      "name": "downVoteUser",
      "outputs": [],
      "payable": false,
      "stateMutability": "nonpayable",
      "type": "function"
    },
    {
      "constant": false,
      "inputs": [
        {
          "name": "_addr",
          "type": "address"
        }
      ],
      "name": "upVoteManager",
      "outputs": [],
      "payable": false,
      "stateMutability": "nonpayable",
      "type": "function"
    },
    {
      "constant": false,
      "inputs": [
        {
          "name": "_addr",
          "type": "address"
        }
      ],
      "name": "downVoteManager",
      "outputs": [],
      "payable": false,
      "stateMutability": "nonpayable",
      "type": "function"
    }
  ],
  "bytecode": "0x6080604052683635c9adc5dea0000060065568056bc75e2d631000006007556000196008819055600a6009819055808055600b819055600c556001600d55600e819055670de0b6b3a7640000600f55674563918244f4000060105569021e19e0c9bab2400000601155690a968163f0a57b400000601255678ac7230489e8000060135560148190556015805460ff19908116909155601d80549091169055601e5560038054600160a060020a0319163317905561555e806100c16000396000f30060806040526004361061041e5763ffffffff7c010000000000000000000000000000000000000000000000000000000060003504166301f6a274811461042357806303a69611146104dc57806305850cc3146105035780630592d9f5146105a5578063095ea7b3146105bf57806310814c37146105e357806310e8b22d14610614578063134f35c2146106b95780631428a02e146106da578063164d065c146106f257806318160ddd146107195780631824fe061461072e5780631af29f35146107435780631ccb5693146107e95780631e04ff221461080a5780631f34563c1461081f57806323b872dd146108b65780633d584063146108e05780633eaaf86b146109e65780633f0d11c1146109fb5780633f4ba83a14610a105780634024389e14610a25578063416ae76814610a535780634427673314610adc57806346a1bf4014610b215780634a791fc614610b3657806354788f9b14610bcd578063556ec0ff14610bee578063571d1b9114610c035780635c60f22614610c1b5780635c975abb14610c3c5780636522094614610c515780636901f66814610c695780636b5caec414610c7e5780636b8d144414610c9f5780636f77926b14610cc05780637003e8cc14610d9957806370a0823114610db157806375c6c6da14610dd257806376cf056114610df35780637bf78b1714610e085780637f5984bb14610e295780637f98934614610e4157806382e3234814610ecb5780638456cb5914610eec578063845b861c14610f015780638524c37214610f1957806388eaa8e014610f3a5780638ab1d68114610f525780638da5cb5b14610f735780638e6ddf3b14610f885780638f09c2f814610fa0578063960f845614610fc15780639679976014610fd9578063990892d414610ffa57806399f0a573146110155780639a037aa0146110365780639c4a5a281461104e5780639fda2f93146110b5578063a87430ba1461111c578063a9059cbb146112aa578063ad4f1de1146112ce578063ad60b64b146112e6578063b5cb15f7146112fb578063b682088714611310578063c37dfd6e14611331578063c3db041a14611349578063c4224e131461141f578063cd6af74b14611440578063ce7842f514611455578063ceeabbf61461146a578063cf56619b1461147f578063cf625bc114611497578063d4063e71146106b9578063d4d0c6de146114b8578063d754dd51146114d0578063d85f91a7146114e8578063d9ba32fc146114fd578063dd62ed3e1461151e578063e43252d714611545578063e5c6e0c414611566578063e890f09314611587578063eed7c1281461159c578063efe08a7d146115b1578063f0e3533b146115d8578063f2fde38b146115f0578063f409e87d14611611578063f79269c414611632578063fda8aae514611647578063fdff9b4d1461166b578063ffcc7bbf14611738575b600080fd5b34801561042f57600080fd5b5060408051602060046024803582810135601f81018590048502860185019096528585526104c8958335600160a060020a031695369560449491939091019190819084018382808284375050604080516020601f89358b018035918201839004830284018301909452808352979a9998810197919650918201945092508291508401838280828437509497506118219650505050505050565b604080519115158252519081900360200190f35b3480156104e857600080fd5b506104c8600160a060020a036004351660ff602435166118ee565b34801561050f57600080fd5b506040805160206004803580820135601f81018490048402850184019095528484526104c894369492936024939284019190819084018382808284375050604080516020601f89358b018035918201839004830284018301909452808352979a99988101979196509182019450925082915084018382808284375094975050509235600160a060020a0316935061197092505050565b3480156105b157600080fd5b506105bd600435611be5565b005b3480156105cb57600080fd5b506104c8600160a060020a0360043516602435611c1e565b3480156105ef57600080fd5b506105f8611c84565b60408051600160a060020a039092168252519081900360200190f35b34801561062057600080fd5b5060408051602060046024803582810135601f81018590048502860185019096528585526104c8958335600160a060020a031695369560449491939091019190819084018382808284375050604080516020601f89358b018035918201839004830284018301909452808352979a999881019791965091820194509250829150840183828082843750949750611c939650505050505050565b3480156106c557600080fd5b506105bd600160a060020a0360043516611d5e565b3480156106e657600080fd5b506105bd600435611e28565b3480156106fe57600080fd5b50610707611e61565b60408051918252519081900360200190f35b34801561072557600080fd5b50610707611e67565b34801561073a57600080fd5b50610707611e6e565b34801561074f57600080fd5b5061075b600435611e74565b60408051600160a060020a0385168152908101829052606060208083018281528551928401929092528451608084019186019080838360005b838110156107ac578181015183820152602001610794565b50505050905090810190601f1680156107d95780820380516001836020036101000a031916815260200191505b5094505050505060405180910390f35b3480156107f557600080fd5b506104c8600160a060020a0360043516611fc6565b34801561081657600080fd5b506104c8612117565b34801561082b57600080fd5b506040805160206004803580820135601f81018490048402850184019095528484526104c894369492936024939284019190819084018382808284375050604080516020601f89358b018035918201839004830284018301909452808352979a9998810197919650918201945092508291508401838280828437509497506121f89650505050505050565b3480156108c257600080fd5b506104c8600160a060020a036004358116906024351660443561221f565b3480156108ec57600080fd5b50610901600160a060020a0360043516612391565b604051808060200180602001848152602001838103835286818151815260200191508051906020019080838360005b83811015610948578181015183820152602001610930565b50505050905090810190601f1680156109755780820380516001836020036101000a031916815260200191505b50838103825285518152855160209182019187019080838360005b838110156109a8578181015183820152602001610990565b50505050905090810190601f1680156109d55780820380516001836020036101000a031916815260200191505b509550505050505060405180910390f35b3480156109f257600080fd5b5061070761256e565b348015610a0757600080fd5b50610707612574565b348015610a1c57600080fd5b506105bd61257a565b348015610a3157600080fd5b506104c8600160a060020a0360043581169060ff6024351690604435166125d7565b348015610a5f57600080fd5b50610a74600160a060020a036004351661279a565b60405180846002811115610a8457fe5b60ff1681526020018060200183600160a060020a0316600160a060020a0316815260200182810382528481815181526020019150805190602001908083836000838110156107ac578181015183820152602001610794565b348015610ae857600080fd5b50610afd600160a060020a03600435166128f0565b60405180826003811115610b0d57fe5b60ff16815260200191505060405180910390f35b348015610b2d57600080fd5b50610707612912565b348015610b4257600080fd5b506040805160206004803580820135601f81018490048402850184019095528484526105bd94369492936024939284019190819084018382808284375050604080516020601f89358b018035918201839004830284018301909452808352979a9998810197919650918201945092508291508401838280828437509497506129189650505050505050565b348015610bd957600080fd5b5061075b600160a060020a0360043516612b65565b348015610bfa57600080fd5b50610707612c38565b348015610c0f57600080fd5b506105bd600435612c3e565b348015610c2757600080fd5b506104c8600160a060020a0360043516612c77565b348015610c4857600080fd5b506104c8612ca8565b348015610c5d57600080fd5b506105bd600435612cb1565b348015610c7557600080fd5b506104c8612cea565b348015610c8a57600080fd5b506105bd600160a060020a0360043516612cfb565b348015610cab57600080fd5b506105bd600160a060020a0360043516612d34565b348015610ccc57600080fd5b50610ce1600160a060020a0360043516612dda565b6040518080602001866002811115610cf557fe5b60ff16815260200185600160a060020a0316600160a060020a0316815260200184151515158152602001838152602001828103825287818151815260200191508051906020019080838360005b83811015610d5a578181015183820152602001610d42565b50505050905090810190601f168015610d875780820380516001836020036101000a031916815260200191505b50965050505050505060405180910390f35b348015610da557600080fd5b50610a74600435612f93565b348015610dbd57600080fd5b50610707600160a060020a036004351661316e565b348015610dde57600080fd5b50610707600160a060020a0360043516613189565b348015610dff57600080fd5b5061070761319b565b348015610e1457600080fd5b506105bd600160a060020a03600435166131a1565b348015610e3557600080fd5b506105bd600435613247565b6040805160206004803580820135601f81018490048402850184019095528484526105bd94369492936024939284019190819084018382808284375050604080516020601f89358b018035918201839004830284018301909452808352979a9998810197919650918201945092508291508401838280828437509497506132809650505050505050565b348015610ed757600080fd5b506105bd600160a060020a03600435166134c8565b348015610ef857600080fd5b506105bd61356b565b348015610f0d57600080fd5b506105f86004356135ca565b348015610f2557600080fd5b506104c8600160a060020a03600435166135f2565b348015610f4657600080fd5b506105bd60043561364a565b348015610f5e57600080fd5b506105bd600160a060020a0360043516613683565b348015610f7f57600080fd5b506105f8613784565b348015610f9457600080fd5b506105bd600435613793565b348015610fac57600080fd5b50610707600160a060020a03600435166137cc565b348015610fcd57600080fd5b506105f8600435613804565b348015610fe557600080fd5b50610707600160a060020a0360043516613812565b34801561100657600080fd5b506104c860ff6004351661395d565b34801561102157600080fd5b506104c8600160a060020a0360043516613990565b34801561104257600080fd5b506105bd6004356139cc565b34801561105a57600080fd5b5060408051602060046024803582810135601f81018590048502860185019096528585526104c8958335600160a060020a0316953695604494919390910191908190840183828082843750949750613a059650505050505050565b3480156110c157600080fd5b5060408051602060046024803582810135601f81018590048502860185019096528585526104c8958335600160a060020a0316953695604494919390910191908190840183828082843750949750613abf9650505050505050565b34801561112857600080fd5b5061113d600160a060020a0360043516613ba0565b60408051888152908101869052600160a060020a0385166060820152831515608082015260e06020808301828152895192840192909252885160a084019160c08501916101008601918c019080838360005b838110156111a757818101518382015260200161118f565b50505050905090810190601f1680156111d45780820380516001836020036101000a031916815260200191505b50848103835286518152865160209182019188019080838360005b838110156112075781810151838201526020016111ef565b50505050905090810190601f1680156112345780820380516001836020036101000a031916815260200191505b50848103825285518152855160209182019187019080838360005b8381101561126757818101518382015260200161124f565b50505050905090810190601f1680156112945780820380516001836020036101000a031916815260200191505b509a505050505050505050505060405180910390f35b3480156112b657600080fd5b506104c8600160a060020a0360043516602435613d8a565b3480156112da57600080fd5b506105bd600435613e79565b3480156112f257600080fd5b50610707613eb2565b34801561130757600080fd5b50610707613eb8565b34801561131c57600080fd5b506105bd600160a060020a0360043516613ebe565b34801561133d57600080fd5b506105f8600435613f64565b34801561135557600080fd5b50611361600435613f72565b6040518085600160a060020a0316600160a060020a031681526020018060200180602001848152602001838103835286818151815260200191508051906020019080838360005b838110156113c05781810151838201526020016113a8565b50505050905090810190601f1680156113ed5780820380516001836020036101000a031916815260200191505b508381038252855181528551602091820191870190808383600083811015610d5a578181015183820152602001610d42565b34801561142b57600080fd5b5061075b600160a060020a03600435166141ed565b34801561144c57600080fd5b506107076142d2565b34801561146157600080fd5b506107076142d8565b34801561147657600080fd5b506107076142de565b34801561148b57600080fd5b506105bd6004356142e4565b3480156114a357600080fd5b506105bd600160a060020a036004351661431d565b3480156114c457600080fd5b506105bd6004356143d2565b3480156114dc57600080fd5b506105bd60043561440b565b3480156114f457600080fd5b50610707614444565b34801561150957600080fd5b506104c8600160a060020a036004351661444a565b34801561152a57600080fd5b50610707600160a060020a03600435811690602435166144c5565b34801561155157600080fd5b506105bd600160a060020a03600435166144f0565b34801561157257600080fd5b506105bd600160a060020a036004351661456e565b34801561159357600080fd5b50610707614623565b3480156115a857600080fd5b50610707614629565b3480156115bd57600080fd5b506105bd600160a060020a036004358116906024351661462f565b3480156115e457600080fd5b5061075b600435614812565b3480156115fc57600080fd5b506105bd600160a060020a0360043516614925565b34801561161d57600080fd5b506104c8600160a060020a03600435166149ad565b34801561163e57600080fd5b506107076149e9565b34801561165357600080fd5b506105f8600435600160a060020a03602435166149ef565b34801561167757600080fd5b5061168c600160a060020a0360043516614a9f565b604051808581526020018060200184815260200180602001838103835286818151815260200191508051906020019080838360005b838110156116d95781810151838201526020016116c1565b50505050905090810190601f1680156117065780820380516001836020036101000a031916815260200191505b508381038252845181528451602091820191860190808383600083811015610d5a578181015183820152602001610d42565b34801561174457600080fd5b50611750600435614bde565b604051808060200187600281111561176457fe5b60ff16815260200186600160a060020a0316600160a060020a031681526020018515151515815260200184815260200183600160a060020a0316600160a060020a03168152602001828103825288818151815260200191508051906020019080838360005b838110156117e15781810151838201526020016117c9565b50505050905090810190601f16801561180e5780820380516001836020036101000a031916815260200191505b5097505050505050505060405180910390f35b60008333600160a060020a0382161461183957600080fd5b611842336135f2565b151560011461185057600080fd5b336000908152601860209081526040909120855161187692600190920191870190615455565b50336000908152601860209081526040909120845161189d92600390920191860190615455565b503360008181526018602090815260409182902054825190815291517fc297b919791d4a5d47a04d139cb0ebd01d79816c869255d0af00a22240dc1c9e9281900390910190a2506001949350505050565b60006003803360009081526005602052604090205460ff16600381111561191157fe5b14806119275750600354600160a060020a031633145b151561193257600080fd5b600160a060020a0384166000908152600560205260409020805484919060ff1916600183600381111561196157fe5b02179055506001949350505050565b601554600090819060ff161561198557600080fd5b61198e83613990565b151560011461199c57600080fd5b50336119a7816149ad565b156119b157600080fd5b3360009081526016602090815260408083206004018054600160a060020a03808916600160a060020a03199283161790925560178054600181810183557fc624b66cc0138b8fabc209247f72d758e1cf3343756d543badbf24212bed8c15909101805494891694909316841790925554918552919093206000199390930183558751611a439390910191880190615455565b50600160a060020a03811660009081526016602090815260409091208551611a7392600590920191870190615455565b50600160a060020a03818116600081815260166020818152604080842060048101805474ff000000000000000000000000000000000000000019168155600282018054600181018255818852858820868204018054601f9092166101000a60ff0219909116905554978b168087526007830185528387206000199099019098558686529383528354600160a060020a031916909617909255600385019290925592548351908152925191927fd75b88a9203b17f9356ca063241beac16a25d5a46f485b378c2c229e864bdd4d929081900390910190a2600160a060020a0383166000818152601a60209081526040808320600181810180549182018155855283852081018054600160a060020a031916339081179091558086526002909201845282852055601683529281902054815190815291820193909352825191927feaadc669b21860b5f096d43442b637505b73bf8da42851c8e6ddf8cf4cd71e4092918290030190a2506001949350505050565b600354600160a060020a03163314611bfc57600080fd5b600081118015611c0e57506014548111155b1515611c1957600080fd5b601255565b336000818152600160209081526040808320600160a060020a038716808552908352818420869055815186815291519394909390927f8c5be1e5ebec7d5bd14f71427d1e84f3dd0314c0f7b2291e5b200ac8c7c3b925928290030190a350600192915050565b600454600160a060020a031681565b60008333600160a060020a03821614611cab57600080fd5b60155460ff1615611cbb57600080fd5b611cc4336149ad565b1515600114611cd257600080fd5b3360009081526016602090815260409091208551611cf892600190920191870190615455565b503360009081526016602090815260409091208451611d1f92600590920191860190615455565b503360008181526016602090815260409182902054825190815291516000805160206155138339815191529281900390910190a2506001949350505050565b60018133600160a060020a0382161480611d825750600354600160a060020a031633145b80611db45750816003811115611d9457fe5b3360009081526005602052604090205460ff166003811115611db257fe5b145b1515611dbf57600080fd5b611dc8836149ad565b1515600114611dd657600080fd5b600b54600160a060020a038416600090815260166020526040902060030154611e049163ffffffff614ed016565b600160a060020a039093166000908152601660205260409020600301929092555050565b600354600160a060020a03163314611e3f57600080fd5b600081118015611e5157506008548111155b1515611e5c57600080fd5b600655565b600b5481565b6002545b90565b60095481565b601554600090606090829060ff1615611e8c57600080fd5b6019805485908110611e9a57fe5b600091825260208220015460198054600160a060020a039092169260189290919088908110611ec557fe5b6000918252602080832090910154600160a060020a0316835282019290925260400181206019805460039092019260189290919089908110611f0357fe5b6000918252602080832090910154600160a060020a03168352828101939093526040918201902060029081015484548351601f60001960018416156101000201909216939093049081018590048502830185019093528282529290918491830182828015611fb25780601f10611f8757610100808354040283529160200191611fb2565b820191906000526020600020905b815481529060010190602001808311611f9557829003601f168201915b505050505091509250925092509193909250565b600080808333600160a060020a03821614611fe057600080fd5b611fe933613990565b1515600114611ff757600080fd5b336000908152601a6020526040902054601754601b80549295509160001990910190811061202157fe5b600091825260209091200154601b8054600160a060020a03909216935083918590811061204a57fe5b60009182526020808320919091018054600160a060020a031916600160a060020a039485161790559184168152601a90915260409020839055601b8054906120969060001983016154cf565b5060408051848152905133917fd54595d1c931442a55d4a6787dfe755540feb1888e7019f47b1a5e036e5b1ae2919081900360200190a2604080518481529051600160a060020a038416917ff62dd43e5fc58325ca71e23c993b1a8235b2ac3082f89bd739b8106396336d92919081900360200190a2506001949350505050565b601554600090819060ff161561212c57600080fd5b5033612137816149ad565b151560011461214557600080fd5b61214e81613990565b1561215857600080fd5b601b80546001810182557f3ad8aa4f87544323a9d1e5dd902f40c356527a7955687113db5f9a85ad579dc1018054600160a060020a031916600160a060020a03841690811790915590546000828152601a602090815260409182902060001990930192839055815192835290517fe9eee4b6f0944ea3221f484d3cafd6725325d0e10e80d8a0ce605e03204a93929281900390910190a2600191505b5090565b60155460009060ff161561220b57600080fd5b612216338484614ee9565b50600192915050565b6000600160a060020a038316151561223657600080fd5b600160a060020a03841660009081526020819052604090205482111561225b57600080fd5b600160a060020a038416600090815260016020908152604080832033845290915290205482111561228b57600080fd5b600160a060020a0384166000908152602081905260409020546122b4908363ffffffff61507b16565b600160a060020a0385166000908152602081815260408083209390935560018152828220338352905220546122ef908363ffffffff61507b16565b600160a060020a0380861660009081526001602090815260408083203384528252808320949094559186168152908190522054612332908363ffffffff614ed016565b600160a060020a038085166000818152602081815260409182902094909455805186815290519193928816927fddf252ad1be2c89b69c2b068fc378daa952ba7f163c4a11628f55a4df523b3ef92918290030190a35060019392505050565b606080600060018433600160a060020a03821614806123ba5750600354600160a060020a031633145b806123ec57508160038111156123cc57fe5b3360009081526005602052604090205460ff1660038111156123ea57fe5b145b15156123f757600080fd5b60155460ff161561240757600080fd5b612410866135f2565b151560011461241e57600080fd5b600160a060020a0386166000908152601860209081526040918290206002808201546001808401805487519281161561010002600019011693909304601f81018690048602820186019096528581529194600390930193909285918301828280156124ca5780601f1061249f576101008083540402835291602001916124ca565b820191906000526020600020905b8154815290600101906020018083116124ad57829003601f168201915b5050855460408051602060026001851615610100026000190190941693909304601f8101849004840282018401909252818152959850879450925084019050828280156125585780601f1061252d57610100808354040283529160200191612558565b820191906000526020600020905b81548152906001019060200180831161253b57829003601f168201915b5050505050915094509450945050509193909250565b60025481565b60105481565b600354600160a060020a0316331461259157600080fd5b60155460ff1615156125a257600080fd5b6015805460ff191690556040517f7805862f689e2f13df9f062ff482ad3ad112aca9e0847911ed832e158c525b3390600090a1565b60006001803360009081526005602052604090205460ff1660038111156125fa57fe5b14806126105750600354600160a060020a031633145b151561261b57600080fd5b600160a060020a03851660009081526016602052604090206004015460a060020a900460ff1615156126f757600184600281111561265557fe5b14156126b95761266785600654615090565b600160a060020a038581166000908152601660205260409020600401541630146126b957600160a060020a038086166000908152601660205260409020600401546007546126b9929190911690615090565b600160a060020a0385166000908152601660205260409020600401805474ff0000000000000000000000000000000000000000191660a060020a1790555b600160a060020a03851660009081526016602090815260408220600290810180546001810180835591855293839020928404909201805492938893919260ff601f9092166101000a9182021990921691849081111561275257fe5b021790555050600160a060020a038086166000908152601660209081526040808320600281015494881684526007019091529020600019909101905560019150509392505050565b601554600090606090829060ff16156127b257600080fd5b336000818152601c602052604090205460ff1615156127d057600080fd5b6127d9856149ad565b15156001146127e757600080fd5b600160a060020a0385166000908152601660209081526040808320338452600781019092529091205460029091018054909190811061282257fe5b600091825260208083208183040154600160a060020a03891684526016825260409384902060060180548551601f6002610100600185161581026000190190941604818101879004870283018701909852878252909516900a90910460ff169390928992909184918301828280156128db5780601f106128b0576101008083540402835291602001916128db565b820191906000526020600020905b8154815290600101906020018083116128be57829003601f168201915b50505050509150935093509350509193909250565b600160a060020a03811660009081526005602052604090205460ff165b919050565b601b5490565b601554600090819060ff161561292d57600080fd5b33915081151561293c57600080fd5b612945826149ad565b151560011461295357600080fd5b61295c826135f2565b1561296657600080fd5b60125460115461297b9163ffffffff614ed016565b9050612987828261512d565b60198054600180820183557f944998273e477b495144fb8794c914197f3ccb46be2900f4698fd0ef743c96959091018054600160a060020a031916600160a060020a0386169081179091559154600092835260186020908152604090932060001990910181558651612a0193919092019190870190615455565b50600160a060020a03821660009081526018602090815260409091208451612a3192600390920191860190615455565b50600160a060020a0382166000908152600560209081526040808320805460ff19166002908117909155601890925282200155612a6d82613990565b1515612b0757601b8054600181019091557f3ad8aa4f87544323a9d1e5dd902f40c356527a7955687113db5f9a85ad579dc181018054600160a060020a031916600160a060020a0385169081179091556000818152601a60209081526040918290208490558151938452905191927fe9eee4b6f0944ea3221f484d3cafd6725325d0e10e80d8a0ce605e03204a9392929081900390910190a25b600160a060020a03821660008181526018602090815260409182902054825190815291517ff9b5503d775129d84677e5448bfbee5f2d06cd1becca8c59f0175a6e2741fdc29281900390910190a25050601d805460ff191690555050565b600060606000612b74846149ad565b1515600114612b8257600080fd5b600160a060020a038416600090815260166020526040902054601780549091908110612baa57fe5b600091825260208083209190910154600160a060020a03878116845260168352604093849020600381015460059091018054865160026101006001841615026000190190921691909104601f81018790048702820187019097528681529290931694929390928491830182828015611fb25780601f10611f8757610100808354040283529160200191611fb2565b600a5481565b600354600160a060020a03163314612c5557600080fd5b600081118015612c675750600e548111155b1515612c7257600080fd5b600b55565b60008133600160a060020a03821614612c8f57600080fd5b60155460ff1615612c9f57600080fd5b612216836151ed565b60155460ff1681565b600354600160a060020a03163314612cc857600080fd5b600081118015612cda5750600e548111155b1515612ce557600080fd5b600c55565b600354600160a060020a0316331490565b600354600160a060020a03163314612d1257600080fd5b60048054600160a060020a031916600160a060020a0392909216919091179055565b612d3d816135f2565b1515600114612d4b57600080fd5b600160a060020a038116331415612d6157600080fd5b601354336000908152602081905260409020541015612d7f57600080fd5b600d54600160a060020a038216600090815260186020526040902060020154612dad9163ffffffff614ed016565b600160a060020a038216600090815260186020526040902060020155601354612dd790339061512d565b50565b6060600080808060018633600160a060020a0382161480612e055750600354600160a060020a031633145b80612e375750816003811115612e1757fe5b3360009081526005602052604090205460ff166003811115612e3557fe5b145b1515612e4257600080fd5b60155460ff1615612e5257600080fd5b612e5b886149ad565b1515600114612e6957600080fd5b600160a060020a038816600090815260166020908152604080832030845260078101909252909120546002820180546001909301929091908110612ea957fe5b600091825260208083208183040154600160a060020a038d8116855260168352604094859020600481015460039091015487548751601f6002610100600185161581026000190190941604818101899004890283018901909a52898252909716900a90930460ff908116969282169560a060020a909204169390918791830182828015612f775780601f10612f4c57610100808354040283529160200191612f77565b820191906000526020600020905b815481529060010190602001808311612f5a57829003601f168201915b5050505050945096509650965096509650505091939590929450565b601554600090606090829060ff1615612fab57600080fd5b336000818152601c602052604090205460ff161515612fc957600080fd5b612ff5601786815481101515612fdb57fe5b600091825260209091200154600160a060020a03166149ad565b151560011461300357600080fd5b6016600060178781548110151561301657fe5b6000918252602080832090910154600160a060020a031683528201929092526040018120601780546002909201926016929091908990811061305457fe5b6000918252602080832090910154600160a060020a0316835282810193909352604091820181203382526007019092529020548154811061309157fe5b90600052602060002090602091828204019190069054906101000a900460ff16601660006017888154811015156130c457fe5b6000918252602080832090910154600160a060020a03168352820192909252604001902060178054600690920191889081106130fc57fe5b60009182526020918290200154825460408051601f60026000196001861615610100020190941693909304928301859004850281018501909152818152600160a060020a03909216928491908301828280156128db5780601f106128b0576101008083540402835291602001916128db565b600160a060020a031660009081526020819052604090205490565b601a6020526000908152604090205481565b600f5481565b60018133600160a060020a03821614806131c55750600354600160a060020a031633145b806131f757508160038111156131d757fe5b3360009081526005602052604090205460ff1660038111156131f557fe5b145b151561320257600080fd5b61320b836149ad565b151560011461321957600080fd5b600a54600160a060020a038416600090815260166020526040902060030154611e049163ffffffff614ed016565b600354600160a060020a0316331461325e57600080fd5b6000811180156132705750600e548111155b151561327b57600080fd5b600a55565b60155460009060ff161561329357600080fd5b33151561329f57600080fd5b6132a8336149ad565b15156001146132b657600080fd5b6132bf336135f2565b156132c957600080fd5b601d5460ff16156132d957600080fd5b601054600f546132ee9163ffffffff614ed016565b601e5490915081111561330057600080fd5b34811461330c57600080fd5b601d805460ff191660019081179091556019805480830182557f944998273e477b495144fb8794c914197f3ccb46be2900f4698fd0ef743c9695018054600160a060020a03191633908117909155905460009182526018602090815260409092206000199190910181558551613389939190910191860190615455565b5033600090815260186020908152604090912083516133b092600390920191850190615455565b50336000818152600560209081526040808320805460ff191660029081179091556018909252822001556133e390613990565b151561347457601b8054600181019091557f3ad8aa4f87544323a9d1e5dd902f40c356527a7955687113db5f9a85ad579dc181018054600160a060020a031916339081179091556000818152601a60209081526040918290208490558151938452905191927fe9eee4b6f0944ea3221f484d3cafd6725325d0e10e80d8a0ce605e03204a9392929081900390910190a25b3360008181526018602090815260409182902054825190815291517ff9b5503d775129d84677e5448bfbee5f2d06cd1becca8c59f0175a6e2741fdc29281900390910190a25050601d805460ff1916905550565b6134d1816149ad565b15156001146134df57600080fd5b600160a060020a0381163314156134f557600080fd5b60135433600090815260208190526040902054101561351357600080fd5b600d54600160a060020a0382166000908152601660205260409020600301546135419163ffffffff614ed016565b600160a060020a038216600090815260166020526040902060030155601354612dd790339061512d565b600354600160a060020a0316331461358257600080fd5b60155460ff161561359257600080fd5b6015805460ff191660011790556040517f6985a02210a168e66602d3235cb6db0e70f92b3ba4d376a33c0f3d9434bff62590600090a1565b601b8054829081106135d857fe5b600091825260209091200154600160a060020a0316905081565b60195460009015156136065750600061290d565b600160a060020a03821660008181526018602052604090205460198054909190811061362e57fe5b600091825260209091200154600160a060020a03161492915050565b600354600160a060020a0316331461366157600080fd5b60008111801561367357506014548111155b151561367e57600080fd5b601155565b6001803360009081526005602052604090205460ff1660038111156136a457fe5b14806136ba5750600354600160a060020a031633145b15156136c557600080fd5b600160a060020a0382166000908152601c6020526040902054829060ff1615156136ee57600080fd5b6136f7836135f2565b151560011461370557600080fd5b601254600160a060020a0384166000908152602081905260409020546137309163ffffffff614ed016565b600160a060020a03841660009081526020819052604090205560125460025461375e9163ffffffff614ed016565b6002555050600160a060020a03166000908152601c60205260409020805460ff19169055565b600354600160a060020a031681565b600354600160a060020a031633146137aa57600080fd5b6000811180156137bc57506014548111155b15156137c757600080fd5b601055565b60006137d782613990565b15156001146137e557600080fd5b50600160a060020a03166000908152601a602052604090206001015490565b60198054829081106135d857fe5b600080808333600160a060020a0382161461382c57600080fd5b613835336135f2565b151560011461384357600080fd5b336000908152601860205260409020546019805491945090600019810190811061386957fe5b60009182526020909120015460198054600160a060020a03909216935083918590811061389257fe5b60009182526020808320919091018054600160a060020a031916600160a060020a03948516179055918416815260189091526040902083905560198054906138de9060001983016154cf565b5060408051848152905133917f9a7645671d17df9d8a56da32f492abc024226a7c752939c4ed5b97d8f703516e919081900360200190a2604080518481529051600160a060020a038416917fc297b919791d4a5d47a04d139cb0ebd01d79816c869255d0af00a22240dc1c9e919081900360200190a250909392505050565b600081600381111561396b57fe5b3360009081526005602052604090205460ff16600381111561398957fe5b1492915050565b601b5460009015156139a45750600061290d565b600160a060020a0382166000818152601a6020526040902054601b8054909190811061362e57fe5b600354600160a060020a031633146139e357600080fd5b6000811180156139f557506008548111155b1515613a0057600080fd5b600755565b60008233600160a060020a0382161480613a295750600354600160a060020a031633145b1515613a3457600080fd5b60155460ff1615613a4457600080fd5b613a4d336149ad565b1515600114613a5b57600080fd5b3360009081526016602090815260409091208451613a8192600590920191860190615455565b503360008181526016602090815260409182902054825190815291516000805160206155138339815191529281900390910190a25060019392505050565b60006002803360009081526005602052604090205460ff166003811115613ae257fe5b1480613af85750600354600160a060020a031633145b1515613b0357600080fd5b60155460ff1615613b1357600080fd5b613b1c846149ad565b1515600114613b2a57600080fd5b600160a060020a03841660009081526016602090815260409091208451613b5992600690920191860190615455565b50600160a060020a03841660008181526016602090815260409182902054825190815291516000805160206155138339815191529281900390910190a25060019392505050565b6016602090815260009182526040918290208054600180830180548651600293821615610100026000190190911692909204601f810186900486028301860190965285825291949293909290830182828015613c3d5780601f10613c1257610100808354040283529160200191613c3d565b820191906000526020600020905b815481529060010190602001808311613c2057829003601f168201915b505050506003830154600484015460058501805460408051602060026101006001861615026000190190941693909304601f810184900484028201840190925281815296979496600160a060020a038516965060a060020a90940460ff1694939291830182828015613cf05780601f10613cc557610100808354040283529160200191613cf0565b820191906000526020600020905b815481529060010190602001808311613cd357829003601f168201915b5050505060068301805460408051602060026001851615610100026000190190941693909304601f8101849004840282018401909252818152949594935090830182828015613d805780601f10613d5557610100808354040283529160200191613d80565b820191906000526020600020905b815481529060010190602001808311613d6357829003601f168201915b5050505050905087565b6000600160a060020a0383161515613da157600080fd5b336000908152602081905260409020548211801590613dc05750600082115b1515613dcb57600080fd5b33600090815260208190526040902054613deb908363ffffffff61507b16565b3360009081526020819052604080822092909255600160a060020a03851681522054613e1d908363ffffffff614ed016565b600160a060020a038416600081815260208181526040918290209390935580518581529051919233927fddf252ad1be2c89b69c2b068fc378daa952ba7f163c4a11628f55a4df523b3ef9281900390910190a350600192915050565b600354600160a060020a03163314613e9057600080fd5b600081118015613ea257506014548111155b1515613ead57600080fd5b601355565b600c5481565b60175490565b60018133600160a060020a0382161480613ee25750600354600160a060020a031633145b80613f145750816003811115613ef457fe5b3360009081526005602052604090205460ff166003811115613f1257fe5b145b1515613f1f57600080fd5b613f28836149ad565b1515600114613f3657600080fd5b600954600160a060020a038416600090815260166020526040902060030154611e049163ffffffff614ed016565b60178054829081106135d857fe5b6015546000906060908190839060ff1615613f8c57600080fd5b6001803360009081526005602052604090205460ff166003811115613fad57fe5b1480613fc35750600354600160a060020a031633145b1515613fce57600080fd5b6019805487908110613fdc57fe5b600091825260208220015460198054600160a060020a03909216926018929091908a90811061400757fe5b9060005260206000200160009054906101000a9004600160a060020a0316600160a060020a0316600160a060020a031681526020019081526020016000206001016018600060198a81548110151561405b57fe5b6000918252602080832090910154600160a060020a031683528201929092526040018120601980546003909201926018929091908c90811061409957fe5b6000918252602080832090910154600160a060020a03168352828101939093526040918201902060029081015485548351601f600019600184161561010002019092169390930490810185900485028301850190935282825292909185918301828280156141485780601f1061411d57610100808354040283529160200191614148565b820191906000526020600020905b81548152906001019060200180831161412b57829003601f168201915b5050855460408051602060026001851615610100026000190190941693909304601f8101849004840282018401909252818152959850879450925084019050828280156141d65780601f106141ab576101008083540402835291602001916141d6565b820191906000526020600020905b8154815290600101906020018083116141b957829003601f168201915b505050505091509450945094509450509193509193565b601554600090606090829060ff161561420557600080fd5b61420e846135f2565b151560011461421c57600080fd5b600160a060020a03841660009081526018602052604090205460198054909190811061424457fe5b6000918252602080832090910154600160a060020a03878116845260188352604093849020600280820154600390920180548751601f6000196001841615610100020190921693909304908101879004870283018701909752868252929093169491939092918491830182828015611fb25780601f10611f8757610100808354040283529160200191611fb2565b60115481565b60075481565b60195490565b600354600160a060020a031633146142fb57600080fd5b60008111801561430d5750600e548111155b151561431857600080fd5b600d55565b614326816149ad565b151560011461433457600080fd5b600160a060020a03811633141561434a57600080fd5b600d54600160a060020a038216600090815260166020526040812060030154909161437b919063ffffffff61507b16565b101561438657600080fd5b6013543360009081526020819052604090205410156143a457600080fd5b600d54600160a060020a0382166000908152601660205260409020600301546135419163ffffffff61507b16565b600354600160a060020a031633146143e957600080fd5b6000811180156143fb5750600e548111155b151561440657600080fd5b600955565b600354600160a060020a0316331461442257600080fd5b60008111801561443457506014548111155b151561443f57600080fd5b600f55565b60065481565b60006001803360009081526005602052604090205460ff16600381111561446d57fe5b14806144835750600354600160a060020a031633145b151561448e57600080fd5b614497836135f2565b15156001146144a557600080fd5b5050600160a060020a03166000908152601c602052604090205460ff1690565b600160a060020a03918216600090815260016020908152604080832093909416825291909152205490565b6001803360009081526005602052604090205460ff16600381111561451157fe5b14806145275750600354600160a060020a031633145b151561453257600080fd5b61453b826135f2565b151560011461454957600080fd5b50600160a060020a03166000908152601c60205260409020805460ff19166001179055565b614577816135f2565b151560011461458557600080fd5b600160a060020a03811633141561459b57600080fd5b600d54600160a060020a03821660009081526018602052604081206002015490916145cc919063ffffffff61507b16565b10156145d757600080fd5b6013543360009081526020819052604090205410156145f557600080fd5b600d54600160a060020a038216600090815260186020526040902060020154612dad9163ffffffff61507b16565b60135481565b600d5481565b8133600160a060020a0382161461464557600080fd5b61464e836149ad565b151560011461465c57600080fd5b600160a060020a038216151561467157600080fd5b600160a060020a038316600090815260166020908152604091829020600190810180548451600293821615610100026000190190911692909204601f81018490048402830184019094528382526147c49386938301828280156147155780601f106146ea57610100808354040283529160200191614715565b820191906000526020600020905b8154815290600101906020018083116146f857829003601f168201915b50505050600160a060020a0387166000908152601660209081526040918290206005018054835160026001831615610100026000190190921691909104601f8101849004840282018401909452838152935091908301828280156147ba5780601f1061478f576101008083540402835291602001916147ba565b820191906000526020600020905b81548152906001019060200180831161479d57829003601f168201915b5050505050614ee9565b6147cd336151ed565b81600160a060020a031683600160a060020a03167f8be0079c531659141344cd1fd0a4f28419497f9722a3daafe3b4186f6b6457e060405160405180910390a3505050565b601554600090606090829060ff161561482a57600080fd5b601780548590811061483857fe5b600091825260208220015460178054600160a060020a03909216926016929091908890811061486357fe5b6000918252602080832090910154600160a060020a03168352820192909252604001812060178054600590920192601692909190899081106148a157fe5b6000918252602080832090910154600160a060020a0316835282810193909352604091820190206003015483548251601f600260001960018516156101000201909316929092049182018590048502810185019093528083529092849190830182828015611fb25780601f10611f8757610100808354040283529160200191611fb2565b600354600160a060020a0316331461493c57600080fd5b600160a060020a038116151561495157600080fd5b600354604051600160a060020a038084169216907f8be0079c531659141344cd1fd0a4f28419497f9722a3daafe3b4186f6b6457e090600090a360038054600160a060020a031916600160a060020a0392909216919091179055565b60175460009015156149c15750600061290d565b600160a060020a03821660008181526016602052604090205460178054909190811061362e57fe5b60125481565b60155460009060ff1615614a0257600080fd5b6002803360009081526005602052604090205460ff166003811115614a2357fe5b1480614a395750600354600160a060020a031633145b1515614a4457600080fd5b614a4d83613990565b1515600114614a5b57600080fd5b600160a060020a0383166000908152601a60205260409020600101805485908110614a8257fe5b600091825260209091200154600160a060020a0316949350505050565b6018602090815260009182526040918290208054600180830180548651600293821615610100026000190190911692909204601f810186900486028301860190965285825291949293909290830182828015614b3c5780601f10614b1157610100808354040283529160200191614b3c565b820191906000526020600020905b815481529060010190602001808311614b1f57829003601f168201915b505050506002838101546003850180546040805160206001841615610100026000190190931695909504601f810183900483028601830190915280855295969295929450909190830182828015614bd45780601f10614ba957610100808354040283529160200191614bd4565b820191906000526020600020905b815481529060010190602001808311614bb757829003601f168201915b5050505050905084565b601554606090600090819081908190819060ff1615614bfc57600080fd5b6001803360009081526005602052604090205460ff166003811115614c1d57fe5b1480614c335750600354600160a060020a031633145b1515614c3e57600080fd5b6016600060178a815481101515614c5157fe5b9060005260206000200160009054906101000a9004600160a060020a0316600160a060020a0316600160a060020a031681526020019081526020016000206001016016600060178b815481101515614ca557fe5b6000918252602080832090910154600160a060020a031683528201929092526040018120601780546002909201926016929091908d908110614ce357fe5b6000918252602080832090910154600160a060020a03168352828101939093526040918201812030825260070190925290205481548110614d2057fe5b90600052602060002090602091828204019190069054906101000a900460ff166016600060178c815481101515614d5357fe5b6000918252602080832090910154600160a060020a039081168452908301939093526040909101812060040154601780549190931692601692918e908110614d9757fe5b600091825260208083209190910154600160a060020a031683528201929092526040018120600401546017805460a060020a90920460ff16926016929091908f908110614de057fe5b6000918252602080832090910154600160a060020a03168352820192909252604001902060030154601780548e908110614e1657fe5b60009182526020918290200154865460408051601f60026000196001861615610100020190941693909304928301859004850281018501909152818152600160a060020a0390921692889190830182828015614eb35780601f10614e8857610100808354040283529160200191614eb3565b820191906000526020600020905b815481529060010190602001808311614e9657829003601f168201915b505050505095509650965096509650965096505091939550919395565b600082820183811015614ee257600080fd5b9392505050565b614ef2836149ad565b15614efc57600080fd5b60178054600180820183557fc624b66cc0138b8fabc209247f72d758e1cf3343756d543badbf24212bed8c159091018054600160a060020a031916600160a060020a0387169081179091559154600092835260166020908152604090932060001990910181558451614f7693919092019190850190615455565b50600160a060020a03831660009081526016602090815260409091208251614fa692600590920191840190615455565b50600160a060020a038316600081815260166020818152604080842060048101805474ff000000000000000000000000000000000000000019168155600282018054600181018255818852858820868204018054601f9092166101000a60ff0219909116905554308088526007840186528488206000199092019091558787529484528054600160a060020a03191690941790935560038301939093559054825190815291517fd75b88a9203b17f9356ca063241beac16a25d5a46f485b378c2c229e864bdd4d9281900390910190a2505050565b60008282111561508a57600080fd5b50900390565b600160a060020a0382166000908152602081905260409020546150b9908263ffffffff614ed016565b600160a060020a0383166000908152602081905260409020556002546150e5908263ffffffff614ed016565b600255604080518281529051600160a060020a038416916000917fddf252ad1be2c89b69c2b068fc378daa952ba7f163c4a11628f55a4df523b3ef9181900360200190a35050565b600160a060020a03821660009081526020819052604090205481111561515257600080fd5b600160a060020a03821660009081526020819052604090205461517b908263ffffffff61507b16565b600160a060020a0383166000908152602081905260409020556002546151a7908263ffffffff61507b16565b600255604080518281529051600160a060020a038416917fcc16f5dbb4873280815c1ee09dbd06736cffcc184412cf7a71a0fdb75d397ca5919081900360200190a25050565b60008060008060006151fe866149ad565b151560011461520c57600080fd5b600160a060020a0386811660009081526016602052604090206004015416301461534557600160a060020a0380871660009081526016602052604090206004015416945061525985613990565b1561534557600160a060020a038086166000818152601a60208181526040808420958c168452600286018252832054939092529052600190910180549195509060001981019081106152a757fe5b6000918252602080832090910154600160a060020a038881168452601a90925260409092206001018054919092169450849190869081106152e457fe5b60009182526020808320919091018054600160a060020a031916600160a060020a03948516179055878316808352601a8083526040808520958716855260028601845284208990559252526001018054906153439060001983016154cf565b505b600160a060020a0386166000908152601660205260409020546017805491935090600019810190811061537457fe5b60009182526020909120015460178054600160a060020a03909216925082918490811061539d57fe5b60009182526020808320919091018054600160a060020a031916600160a060020a03948516179055918316815260169091526040902082905560178054906153e99060001983016154cf565b5060408051838152905133917f117183c06981515bdfa0b70d0448d8eb6ba07648cda62ab7c2b4361eeff80a1b919081900360200190a2604080518381529051600160a060020a03831691600080516020615513833981519152919081900360200190a2505050505050565b828054600181600116156101000203166002900490600052602060002090601f016020900481019282601f1061549657805160ff19168380011785556154c3565b828001600101855582156154c3579182015b828111156154c35782518255916020019190600101906154a8565b506121f49291506154f8565b8154818355818111156154f3576000838152602090206154f39181019083016154f8565b505050565b611e6b91905b808211156121f457600081556001016154fe56000a069cb19d168bc7a049b956ce2d15e1fa917e5024d1584c4a7d683d9774b609a165627a7a7230582070f1ce0cc6b45b122d24b9c32eefacb41621d94fd5190282e21aabe3a8d8d35b0029",
  "source": "pragma solidity ^0.4.23;\r\n\r\nimport \"./database/DataBase.sol\";\r\n\r\n\r\ncontract Users is DataBase {\r\n\r\n    bool private reentrancyLock = false;\r\n    uint private max = 2**256-1;\r\n    event Burn(address indexed _buyer, uint tokens);\r\n\r\n    /*\r\n    * @title Reputation raises\r\n    * @author Tadas Talaikis <info@talaikis.com>\r\n    */\r\n    function updateUserReputationEmailConfirmation(address _addr)\r\n    public\r\n    onlyAsOrOwnerOrBy(Role.Admin, _addr) {\r\n        require(existsUser(_addr) == true);\r\n        users[_addr].reputationPoints = users[_addr].reputationPoints.add(emailConfirmationPoints);\r\n    }\r\n\r\n    function updateUserReputationIdDocument(address _addr)\r\n    public\r\n    onlyAsOrOwnerOrBy(Role.Admin, _addr) {\r\n        require(existsUser(_addr) == true);\r\n        users[_addr].reputationPoints = users[_addr].reputationPoints.add(idDocumentPoints);\r\n    }\r\n\r\n    function updateUserReputationAddressDocument(address _addr)\r\n    public\r\n    onlyAsOrOwnerOrBy(Role.Admin, _addr) {\r\n        require(existsUser(_addr) == true);\r\n        users[_addr].reputationPoints = users[_addr].reputationPoints.add(addressDocumentPoints);\r\n    }\r\n\r\n    function updateUserReputationPhone(address _addr)\r\n    public\r\n    onlyAsOrOwnerOrBy(Role.Admin, _addr) {\r\n        require(existsUser(_addr) == true);\r\n        users[_addr].reputationPoints = users[_addr].reputationPoints.add(addressDocumentPoints);\r\n    }\r\n\r\n    /*\r\n    * @title Internal token generation event\r\n    * @author Tadas Talaikis <info@talaikis.com>\r\n    * @param {address} _recipient Recipient\r\n    * @param {uint} _tokens Amount of tokens\r\n    */\r\n    function _generateTokens(address _recipient, uint _tokens)\r\n    internal {\r\n        balances[_recipient] = balances[_recipient].add(_tokens);\r\n        _totalSupply = _totalSupply.add(_tokens);\r\n        emit Transfer(address(0), _recipient, _tokens);\r\n    }\r\n\r\n    /*\r\n    * @title Internal user registration event\r\n    * @author Tadas Talaikis <info@talaikis.com>\r\n    * @param {address} _addr Recipient\r\n    * @param {string} _hash Hash\r\n    */\r\n    function _register(address _addr, string _hash, string _publicHash)\r\n    internal {\r\n        require(existsUser(_addr) == false);\r\n        userIndex.push(_addr);\r\n        users[_addr].index = userIndex.length - 1;\r\n        users[_addr]._hash = _hash;\r\n        users[_addr].publicHash = _publicHash;\r\n        users[_addr].paid = false;\r\n        users[_addr].stateIndex.push(UserState.Waiting);\r\n        users[_addr].states[address(this)] = users[_addr].stateIndex.length - 1;\r\n        users[_addr].ref = address(this);\r\n        users[_addr].reputationPoints = 0;\r\n        emit NewUser(_addr, users[_addr].index);\r\n    }\r\n\r\n    /*\r\n    * @title New user registration main function\r\n    * @author Tadas Talaikis <info@talaikis.com>\r\n    * @param {string} _hash Hash\r\n    */\r\n    function newUser(string _hash, string _publicHash)\r\n    public\r\n    whenNotPaused\r\n    returns(bool) {\r\n        _register(msg.sender, _hash, _publicHash);\r\n        return true;\r\n    }\r\n\r\n    /*\r\n    * @title New ICO/ Airdrop registration main function, paid in ethers\r\n    * @author Tadas Talaikis <info@talaikis.com>\r\n    * @param {string} _hash Hash\r\n    */\r\n    function newManager(string _hash, string _publicHash)\r\n    public payable\r\n    whenNotPaused {\r\n        require(msg.sender != address(0));\r\n        require(existsUser(msg.sender) == true);\r\n        require(existsManager(msg.sender) == false);\r\n        require(!reentrancyLock);\r\n        uint _fee = managerRegistrationFee.add(managerApprovalFee);\r\n        require(_fee <= max);\r\n        require(msg.value == _fee);\r\n        reentrancyLock = true;\r\n        managerIndex.push(msg.sender);\r\n        managers[msg.sender].index = managerIndex.length - 1;\r\n        managers[msg.sender]._hash = _hash;\r\n        managers[msg.sender].publicHash = _publicHash;\r\n        roles[msg.sender] = Role.Manager;\r\n        managers[msg.sender].reputationPoints = 0;\r\n        if (existsRef(msg.sender) == false) {\r\n            refs[msg.sender].index = refIndex.push(msg.sender) - 1;\r\n            emit NewRef(msg.sender, refs[msg.sender].index);\r\n        }\r\n        emit NewManager(msg.sender, managers[msg.sender].index);\r\n        reentrancyLock = false;\r\n    }\r\n\r\n    function _burn(address _user, uint _tokens) internal {\r\n        require(_tokens <= balances[_user]);\r\n        balances[_user] = balances[_user].sub(_tokens);\r\n        _totalSupply = _totalSupply.sub(_tokens);\r\n        emit Burn(_user, _tokens);\r\n    }\r\n\r\n    /*\r\n    * @title New ICO/ Airdrop registration main function, paid in tokens\r\n    * @author Tadas Talaikis <info@talaikis.com>\r\n    * @param {string} _hash Hash\r\n    */\r\n    function newManagerWithTokens(string _hash, string _publicHash)\r\n    public\r\n    whenNotPaused {\r\n        address _user = msg.sender;\r\n        require(_user != address(0));\r\n        require(existsUser(_user) == true);\r\n        require(existsManager(_user) == false);\r\n        uint _fee = managerRegistrationFeeTokens.add(managerApprovalFeeTokens);\r\n        _burn(_user, _fee);\r\n        managerIndex.push(_user);\r\n        managers[_user].index = managerIndex.length - 1;\r\n        managers[_user]._hash = _hash;\r\n        managers[_user].publicHash = _publicHash;\r\n        roles[_user] = Role.Manager;\r\n        managers[_user].reputationPoints = 0;\r\n        if (existsRef(_user) == false) {\r\n            refs[_user].index = refIndex.push(_user) - 1;\r\n            emit NewRef(_user, refs[_user].index);\r\n        }\r\n        emit NewManager(_user, managers[_user].index);\r\n        reentrancyLock = false;\r\n    }\r\n\r\n    /*\r\n    * @title New Referral registration main function, free\r\n    * (until paused and moved to paid)\r\n    * @author Tadas Talaikis <info@talaikis.com>\r\n    */\r\n    function newRef()\r\n    public\r\n    whenNotPaused\r\n    returns(bool) {\r\n        address _user = msg.sender;\r\n        require(existsUser(_user) == true);\r\n        require(existsRef(_user) == false);\r\n        refIndex.push(_user);\r\n        refs[_user].index = refIndex.length - 1;\r\n        emit NewRef(_user, refs[_user].index);\r\n        return true;\r\n    }\r\n\r\n    /*\r\n    * @title New rferred user registration function\r\n    * @author Tadas Talaikis <info@talaikis.com>\r\n    * @param {string} _hash Hash\r\n    * @param {address} _ref Referral\r\n    */\r\n    function newUserByRef(string _hash, string _publicHash, address _ref)\r\n    public\r\n    whenNotPaused\r\n    returns(bool) {\r\n        require(existsRef(_ref) == true);\r\n        address _addr = msg.sender;\r\n        require(existsUser(_addr) == false);\r\n        users[msg.sender].ref = _ref;\r\n        userIndex.push(_addr);\r\n        users[_addr].index = userIndex.length - 1;\r\n        users[_addr]._hash = _hash;\r\n        users[_addr].publicHash = _publicHash;\r\n        users[_addr].paid = false;\r\n        users[_addr].stateIndex.push(UserState.Waiting);\r\n        users[_addr].states[_ref] = users[_addr].stateIndex.length - 1;\r\n        users[_addr].ref = _ref;\r\n        users[_addr].reputationPoints = 0;\r\n        emit NewUser(_addr, users[_addr].index);\r\n        refs[_ref].users[msg.sender] = refs[_ref].userIndex.push(msg.sender) - 1;\r\n        emit NewReferred(msg.sender, users[msg.sender].index, _ref);\r\n        return true;\r\n    }\r\n\r\n    /*\r\n    * @title Get user by address, only for owner and user\r\n    * @author Tadas Talaikis <info@talaikis.com>\r\n    * @param {address} _addr User\r\n    */\r\n    function getUser(address _addr)\r\n    onlyAsOrOwnerOrBy(Role.Admin, _addr)\r\n    whenNotPaused\r\n    public\r\n    view\r\n    returns(string, UserState, address, bool, uint) {\r\n        require(existsUser(_addr) == true);\r\n        return(\r\n            users[_addr]._hash,\r\n            users[_addr].stateIndex[users[_addr].states[address(this)]],\r\n            users[_addr].ref,\r\n            users[_addr].paid,\r\n            users[_addr].reputationPoints\r\n        );\r\n    }\r\n\r\n    /*\r\n    * @title Get user by ID, only for owner\r\n    * @author Tadas Talaikis <info@talaikis.com>\r\n    * @param {uint} _index User ID\r\n    */\r\n    function getUserAtIndex(uint _index)\r\n    public view\r\n    whenNotPaused\r\n    onlyAsOrOwner(Role.Admin)\r\n    returns(string, UserState, address, bool, uint, address) {\r\n        return (\r\n            users[userIndex[_index]]._hash,\r\n            users[userIndex[_index]].stateIndex[users[userIndex[_index]].states[address(this)]],\r\n            users[userIndex[_index]].ref,\r\n            users[userIndex[_index]].paid,\r\n            users[userIndex[_index]].reputationPoints,\r\n            userIndex[_index]\r\n        );\r\n    }\r\n\r\n    function getRefUserAtIndex(uint _index, address _ref)\r\n    public view\r\n    whenNotPaused\r\n    onlyAsOrOwner(Role.Manager)\r\n    returns(address) {\r\n        require(existsRef(_ref) == true);\r\n        return refs[_ref].userIndex[_index];\r\n    }\r\n\r\n    function getUserPublic(uint _index)\r\n    public view\r\n    whenNotPaused\r\n    returns(address, string, uint) {\r\n        return (\r\n            userIndex[_index],\r\n            users[userIndex[_index]].publicHash,\r\n            users[userIndex[_index]].reputationPoints\r\n        );\r\n    }\r\n\r\n    function getUserPublicAddr(address _addr)\r\n    public view\r\n    returns(address, string, uint) {\r\n        require(existsUser(_addr) == true);\r\n        return (\r\n            userIndex[users[_addr].index],\r\n            users[_addr].publicHash,\r\n            users[_addr].reputationPoints\r\n        );\r\n    }\r\n\r\n    function getUserState(address _user)\r\n    public view\r\n    whenNotPaused\r\n    isWhitelisted(msg.sender)\r\n    returns (UserState, string, address) {\r\n        require(existsUser(_user) == true);\r\n        return (\r\n            users[_user].stateIndex[users[_user].states[msg.sender]],\r\n            users[_user].rulesHash,\r\n            _user\r\n        );\r\n    }\r\n\r\n    function getUserStateAtIndex(uint _index)\r\n    public view\r\n    whenNotPaused\r\n    isWhitelisted(msg.sender)\r\n    returns (UserState, string, address) {\r\n        require(existsUser(userIndex[_index]) == true);\r\n        return (\r\n            users[userIndex[_index]].stateIndex[users[userIndex[_index]].states[msg.sender]],\r\n            users[userIndex[_index]].rulesHash,\r\n            userIndex[_index]\r\n        );\r\n    }\r\n\r\n    function getManagerAtIndex(uint _index)\r\n    public\r\n    whenNotPaused\r\n    onlyAsOrOwner(Role.Admin)\r\n    view returns(address, string, string, uint) {\r\n        return (\r\n            managerIndex[_index],\r\n            managers[managerIndex[_index]]._hash,\r\n            managers[managerIndex[_index]].publicHash,\r\n            managers[managerIndex[_index]].reputationPoints\r\n        );\r\n    }\r\n\r\n    function getManagerAtIndexPublic(uint _index)\r\n    public\r\n    whenNotPaused\r\n    view returns(address, string, uint) {\r\n        return (\r\n            managerIndex[_index],\r\n            managers[managerIndex[_index]].publicHash,\r\n            managers[managerIndex[_index]].reputationPoints\r\n        );\r\n    }\r\n\r\n    function getManager(address _addr)\r\n    onlyAsOrOwnerOrBy(Role.Admin, _addr)\r\n    whenNotPaused\r\n    public view\r\n    returns(string, string, uint) {\r\n        require(existsManager(_addr) == true);\r\n        return(\r\n            managers[_addr]._hash,\r\n            managers[_addr].publicHash,\r\n            managers[_addr].reputationPoints\r\n        );\r\n    }\r\n\r\n    function getManagerPublic(address _addr)\r\n    whenNotPaused\r\n    public view\r\n    returns(address, string, uint) {\r\n        require(existsManager(_addr) == true);\r\n        return(\r\n            managerIndex[managers[_addr].index],\r\n            managers[_addr].publicHash,\r\n            managers[_addr].reputationPoints\r\n        );\r\n    }\r\n\r\n    /*\r\n    * @title UPDATE(s)\r\n    * @author Tadas Talaikis <info@talaikis.com>\r\n    */\r\n    function updateUser(address _addr, string _hash, string publicHash)\r\n    onlyBy(_addr)\r\n    whenNotPaused\r\n    public\r\n    returns(bool) {\r\n        require(existsUser(msg.sender) == true);\r\n        users[msg.sender]._hash = _hash;\r\n        users[msg.sender].publicHash = publicHash;\r\n        emit UpdateUser(msg.sender, users[msg.sender].index);\r\n        return true;\r\n    }\r\n\r\n    /*\r\n    * @title Update public information about user\r\n    * @author Tadas Talaikis <info@talaikis.com>\r\n    * @param {address} _addr User's address\r\n    * @param {hash} _hash Public hash\r\n    */\r\n    function updatePublicInfo(address _addr, string _hash)\r\n    onlyOwnerOrBy(_addr)\r\n    whenNotPaused\r\n    public\r\n    returns(bool) {\r\n        require(existsUser(msg.sender) == true);\r\n        users[msg.sender].publicHash = _hash;\r\n        emit UpdateUser(msg.sender, users[msg.sender].index);\r\n        return true;\r\n    }\r\n\r\n    /*\r\n    * @title Update rules information about user\r\n    * @author Tadas Talaikis <info@talaikis.com>\r\n    * @param {address} _addr User's address\r\n    * @param {hash} _hash Rules hash\r\n    */\r\n    function updateRulesInfo(address _addr, string _hash)\r\n    onlyAsOrOwner(Role.Manager)\r\n    whenNotPaused\r\n    public\r\n    returns(bool) {\r\n        require(existsUser(_addr) == true);\r\n        users[_addr].rulesHash = _hash;\r\n        emit UpdateUser(_addr, users[_addr].index);\r\n        return true;\r\n    }\r\n\r\n    function updateManager(address _addr, string _hash, string _publicHash)\r\n    onlyBy(_addr)\r\n    public\r\n    returns(bool) {\r\n        require(existsManager(msg.sender) == true);\r\n        managers[msg.sender]._hash = _hash;\r\n        managers[msg.sender].publicHash = _publicHash;\r\n        emit UpdateManager(msg.sender, managers[msg.sender].index);\r\n        return true;\r\n    }\r\n\r\n    /*\r\n    * @title DELETE(s)\r\n    * @author Tadas Talaikis <info@talaikis.com>\r\n    */\r\n    function _delete(address _addr)\r\n    internal {\r\n        require(existsUser(_addr) == true);\r\n        if (users[_addr].ref != address(this)) {\r\n            address _ref = users[_addr].ref;\r\n            if (existsRef(_ref)) {\r\n                uint _refRowToDelete = refs[_ref].users[_addr];\r\n                address _refKeyToMove = refs[_ref].userIndex[refs[_ref].userIndex.length - 1];\r\n                refs[_ref].userIndex[_refRowToDelete] = _refKeyToMove;\r\n                refs[_ref].users[_keyToMove] = _refRowToDelete;\r\n                refs[_ref].userIndex.length--;\r\n            }\r\n        }\r\n        uint _rowToDelete = users[_addr].index;\r\n        address _keyToMove = userIndex[userIndex.length - 1];\r\n        userIndex[_rowToDelete] = _keyToMove;\r\n        users[_keyToMove].index = _rowToDelete; \r\n        userIndex.length--;\r\n        emit DeleteUser(msg.sender, _rowToDelete);\r\n        emit UpdateUser(_keyToMove, _rowToDelete);\r\n    }\r\n\r\n    function deleteUser(address _addr)\r\n    public\r\n    onlyBy(_addr)\r\n    whenNotPaused\r\n    returns(bool) {\r\n        _delete(_addr);\r\n        return true;\r\n    }\r\n\r\n    function deleteManager(address _addr)\r\n    public\r\n    onlyBy(_addr)\r\n    returns(uint index) {\r\n        require(existsManager(msg.sender) == true);\r\n        uint _rowToDelete = managers[msg.sender].index;\r\n        address _keyToMove = managerIndex[managerIndex.length - 1];\r\n        managerIndex[_rowToDelete] = _keyToMove;\r\n        managers[_keyToMove].index = _rowToDelete; \r\n        managerIndex.length--;\r\n        emit DeleteManager(msg.sender, _rowToDelete);\r\n        emit UpdateManager(_keyToMove, _rowToDelete);\r\n        return _rowToDelete;\r\n    }\r\n\r\n    /*\r\n    * @title Delete referral\r\n    * @author Tadas Talaikis <info@talaikis.com>\r\n    * @dev Deletes the referral.\r\n    */\r\n    function deleteRef(address _addr)\r\n    public\r\n    onlyBy(_addr)\r\n    returns(bool) {\r\n        require(existsRef(msg.sender) == true);\r\n        uint _rowToDelete = refs[msg.sender].index;\r\n        address _keyToMove = refIndex[userIndex.length - 1];\r\n        refIndex[_rowToDelete] = _keyToMove;\r\n        refs[_keyToMove].index = _rowToDelete; \r\n        refIndex.length--;\r\n        emit DeleteRef(msg.sender, _rowToDelete);\r\n        emit UpdateRef(_keyToMove, _rowToDelete);\r\n        return true;\r\n    }\r\n\r\n    /*\r\n    * @title Numbers\r\n    * @author Tadas Talaikis <info@talaikis.com>\r\n    */\r\n    function getUserCount()\r\n    public view\r\n    returns(uint count) {\r\n        return userIndex.length;\r\n    }\r\n\r\n    function getManagersCount()\r\n    public view\r\n    returns(uint) {\r\n        return managerIndex.length;\r\n    }\r\n\r\n    function getRefCount()\r\n    public view\r\n    returns(uint) {\r\n        return refIndex.length;\r\n    }\r\n\r\n    function getRefUsersCount(address _ref)\r\n    public view\r\n    returns(uint) {\r\n        require(existsRef(_ref) == true);\r\n        return refs[_ref].userIndex.length;\r\n    }\r\n\r\n    /*\r\n    * @title Etc.\r\n    * @author Tadas Talaikis <info@talaikis.com>\r\n    */\r\n    function setUserStatus(address _user, UserState _state, address _ruleBook)\r\n    public\r\n    onlyAsOrOwner(Role.Admin)\r\n    returns (bool) {\r\n        if (users[_user].paid == false) {\r\n            if (_state == UserState.Approved) {\r\n                _generateTokens(_user, registrationBonus);\r\n\r\n                if (users[_user].ref != address(this)) {\r\n                    _generateTokens(users[_user].ref, referralBonus);\r\n                }\r\n            }\r\n\r\n            users[_user].paid = true;\r\n        }\r\n\r\n        users[_user].stateIndex.push(_state);\r\n        users[_user].states[_ruleBook] = users[_user].stateIndex.length - 1;\r\n\r\n        return true;\r\n    }\r\n\r\n    /*\r\n    * @title User address change\r\n    * @author Tadas Talaikis <info@talaikis.com>\r\n    * @dev Ability for user to move his data to another address.\r\n    */\r\n    function changeAddress(address _user, address _newAddress)\r\n    public\r\n    onlyBy(_user) {\r\n        require(existsUser(_user) == true);\r\n        require(_newAddress != address(0));\r\n        _register(_newAddress, users[_user]._hash, users[_user].publicHash);\r\n        _delete(msg.sender);\r\n        emit OwnershipTransferred(_user, _newAddress);\r\n    }\r\n\r\n    /*\r\n    * @title Upvote user\r\n    * @author Tadas Talaikis <info@talaikis.com>\r\n    * @param {address} _addr Recipient\r\n    */\r\n    function upVoteUser(address _addr)\r\n    public {\r\n        require(existsUser(_addr) == true);\r\n        require(_addr != msg.sender);\r\n        require(balances[msg.sender] >= voteFeeTokens);\r\n        users[_addr].reputationPoints = users[_addr].reputationPoints.add(upVote);\r\n        _burn(msg.sender, voteFeeTokens);\r\n    }\r\n\r\n    /*\r\n    * @title Downvote user\r\n    * @author Tadas Talaikis <info@talaikis.com>\r\n    * @param {address} _addr Recipient\r\n    */\r\n    function downVoteUser(address _addr)\r\n    public {\r\n        require(existsUser(_addr) == true);\r\n        require(_addr != msg.sender);\r\n        require(users[_addr].reputationPoints.sub(upVote) >= 0);\r\n        require(balances[msg.sender] >= voteFeeTokens);\r\n        users[_addr].reputationPoints = users[_addr].reputationPoints.sub(upVote);\r\n        _burn(msg.sender, voteFeeTokens);\r\n    }\r\n\r\n    /*\r\n    * @title Upvote ICO/ Airdrop\r\n    * @author Tadas Talaikis <info@talaikis.com>\r\n    * @param {address} _addr Recipient\r\n    */\r\n    function upVoteManager(address _addr)\r\n    public {\r\n        require(existsManager(_addr) == true);\r\n        require(_addr != msg.sender);\r\n        require(balances[msg.sender] >= voteFeeTokens);\r\n        managers[_addr].reputationPoints = managers[_addr].reputationPoints.add(upVote);\r\n        _burn(msg.sender, voteFeeTokens);\r\n    }\r\n\r\n    /*\r\n    * @title Downvote ICO/ Airdrop\r\n    * @author Tadas Talaikis <info@talaikis.com>\r\n    * @param {address} _addr Recipient\r\n    */\r\n    function downVoteManager(address _addr)\r\n    public {\r\n        require(existsManager(_addr) == true);\r\n        require(_addr != msg.sender);\r\n        require(managers[_addr].reputationPoints.sub(upVote) >= 0);\r\n        require(balances[msg.sender] >= voteFeeTokens);\r\n        managers[_addr].reputationPoints = managers[_addr].reputationPoints.sub(upVote);\r\n        _burn(msg.sender, voteFeeTokens);\r\n    }\r\n\r\n}\r\n",
  "sourcePath": "C:\\Users\\DXenu\\Desktop\\box\\identiform\\contracts\\Users.sol",
  "compiler": {
    "name": "solc",
    "version": "0.4.24+commit.e67f0147.Emscripten.clang"
  },
  "schemaVersion": "2.0.0",
  "updatedAt": "2018-06-17T09:46:19.823Z"
}