{
  "contractName": "Bonus",
  "abi": [
    {
      "constant": true,
      "inputs": [],
      "name": "bot",
      "outputs": [
        {
          "name": "",
          "type": "address"
        }
      ],
      "payable": false,
      "stateMutability": "view",
      "type": "function"
    },
    {
      "constant": true,
      "inputs": [],
      "name": "validate",
      "outputs": [
        {
          "name": "",
          "type": "bool"
        }
      ],
      "payable": false,
      "stateMutability": "view",
      "type": "function"
    },
    {
      "constant": false,
      "inputs": [
        {
          "name": "_bot",
          "type": "address"
        }
      ],
      "name": "setBot",
      "outputs": [],
      "payable": false,
      "stateMutability": "nonpayable",
      "type": "function"
    },
    {
      "constant": true,
      "inputs": [],
      "name": "owner",
      "outputs": [
        {
          "name": "",
          "type": "address"
        }
      ],
      "payable": false,
      "stateMutability": "view",
      "type": "function"
    },
    {
      "constant": true,
      "inputs": [],
      "name": "referralBonus",
      "outputs": [
        {
          "name": "",
          "type": "uint256"
        }
      ],
      "payable": false,
      "stateMutability": "view",
      "type": "function"
    },
    {
      "constant": true,
      "inputs": [],
      "name": "registrationBonus",
      "outputs": [
        {
          "name": "",
          "type": "uint256"
        }
      ],
      "payable": false,
      "stateMutability": "view",
      "type": "function"
    },
    {
      "constant": false,
      "inputs": [
        {
          "name": "_newOwner",
          "type": "address"
        }
      ],
      "name": "transferOwnership",
      "outputs": [],
      "payable": false,
      "stateMutability": "nonpayable",
      "type": "function"
    },
    {
      "anonymous": false,
      "inputs": [
        {
          "indexed": true,
          "name": "previousOwner",
          "type": "address"
        },
        {
          "indexed": true,
          "name": "newOwner",
          "type": "address"
        }
      ],
      "name": "OwnershipTransferred",
      "type": "event"
    },
    {
      "constant": false,
      "inputs": [
        {
          "name": "_amount",
          "type": "uint256"
        }
      ],
      "name": "setRegistrationBonus",
      "outputs": [],
      "payable": false,
      "stateMutability": "nonpayable",
      "type": "function"
    },
    {
      "constant": false,
      "inputs": [
        {
          "name": "_amount",
          "type": "uint256"
        }
      ],
      "name": "setReferralBonus",
      "outputs": [],
      "payable": false,
      "stateMutability": "nonpayable",
      "type": "function"
    }
  ],
  "bytecode": "0x6080604052683635c9adc5dea0000060025568056bc75e2d6310000060035560001960045560008054600160a060020a0319163317905561036f806100456000396000f3006080604052600436106100985763ffffffff7c010000000000000000000000000000000000000000000000000000000060003504166310814c37811461009d5780631428a02e146100ce5780636901f668146100e85780636b5caec4146101115780638da5cb5b146101325780639a037aa014610147578063ce7842f51461015f578063d85f91a714610186578063f2fde38b1461019b575b600080fd5b3480156100a957600080fd5b506100b26101bc565b60408051600160a060020a039092168252519081900360200190f35b3480156100da57600080fd5b506100e66004356101cb565b005b3480156100f457600080fd5b506100fd610204565b604080519115158252519081900360200190f35b34801561011d57600080fd5b506100e6600160a060020a0360043516610215565b34801561013e57600080fd5b506100b261025b565b34801561015357600080fd5b506100e660043561026a565b34801561016b57600080fd5b506101746102a3565b60408051918252519081900360200190f35b34801561019257600080fd5b506101746102a9565b3480156101a757600080fd5b506100e6600160a060020a03600435166102af565b600154600160a060020a031681565b600054600160a060020a031633146101e257600080fd5b6000811180156101f457506004548111155b15156101ff57600080fd5b600255565b600054600160a060020a0316331490565b600054600160a060020a0316331461022c57600080fd5b6001805473ffffffffffffffffffffffffffffffffffffffff1916600160a060020a0392909216919091179055565b600054600160a060020a031681565b600054600160a060020a0316331461028157600080fd5b60008111801561029357506004548111155b151561029e57600080fd5b600355565b60035481565b60025481565b600054600160a060020a031633146102c657600080fd5b600160a060020a03811615156102db57600080fd5b60008054604051600160a060020a03808516939216917f8be0079c531659141344cd1fd0a4f28419497f9722a3daafe3b4186f6b6457e091a36000805473ffffffffffffffffffffffffffffffffffffffff1916600160a060020a03929092169190911790555600a165627a7a72305820361aad0f2dbcb20acc1a653fd75046f25295b8c4b725726787b61cb69b6d526e0029",
  "source": "pragma solidity ^0.4.23;\r\n\r\nimport \"./Ownable.sol\";\r\n\r\n\r\ncontract Bonus is Ownable {\r\n\r\n    uint public registrationBonus = 1000 * 10 ** 18;\r\n    uint public referralBonus = 100 * 10 ** 18;\r\n    uint private max = 2**256-1;\r\n\r\n    /*\r\n    * @title Set registration bonus\r\n    * @author Tadas Talaikis <info@talaikis.com>\r\n    * @param {uint} _amount Bonus in tokens\r\n    */\r\n    function setRegistrationBonus(uint _amount) public onlyOwner {\r\n        require(_amount > 0 && _amount <= max);\r\n        registrationBonus = _amount;\r\n    }\r\n\r\n    /*\r\n    * @title Set referral bonus\r\n    * @author Tadas Talaikis <info@talaikis.com>\r\n    * @param {uint} _amount Bonus in tokens\r\n    */\r\n    function setReferralBonus(uint _amount) public onlyOwner {\r\n        require(_amount > 0 && _amount <= max);\r\n        referralBonus = _amount;\r\n    }\r\n\r\n}\r\n",
  "sourcePath": "C:\\Users\\DXenu\\Desktop\\box\\identiform\\contracts\\database\\Bonus.sol",
  "compiler": {
    "name": "solc",
    "version": "0.4.24+commit.e67f0147.Emscripten.clang"
  },
  "schemaVersion": "2.0.0",
  "updatedAt": "2018-06-17T09:46:19.846Z"
}