{
  "contractName": "DataBase",
  "abi": [
    {
      "constant": false,
      "inputs": [
        {
          "name": "_user",
          "type": "address"
        },
        {
          "name": "_role",
          "type": "uint8"
        }
      ],
      "name": "setUserRole",
      "outputs": [
        {
          "name": "",
          "type": "bool"
        }
      ],
      "payable": false,
      "stateMutability": "nonpayable",
      "type": "function"
    },
    {
      "constant": false,
      "inputs": [
        {
          "name": "_fee",
          "type": "uint256"
        }
      ],
      "name": "setManagerApprovalFeeTokens",
      "outputs": [],
      "payable": false,
      "stateMutability": "nonpayable",
      "type": "function"
    },
    {
      "constant": false,
      "inputs": [
        {
          "name": "_spender",
          "type": "address"
        },
        {
          "name": "_tokens",
          "type": "uint256"
        }
      ],
      "name": "approve",
      "outputs": [
        {
          "name": "success",
          "type": "bool"
        }
      ],
      "payable": false,
      "stateMutability": "nonpayable",
      "type": "function"
    },
    {
      "constant": true,
      "inputs": [],
      "name": "bot",
      "outputs": [
        {
          "name": "",
          "type": "address"
        }
      ],
      "payable": false,
      "stateMutability": "view",
      "type": "function"
    },
    {
      "constant": false,
      "inputs": [
        {
          "name": "_amount",
          "type": "uint256"
        }
      ],
      "name": "setRegistrationBonus",
      "outputs": [],
      "payable": false,
      "stateMutability": "nonpayable",
      "type": "function"
    },
    {
      "constant": true,
      "inputs": [],
      "name": "addressDocumentPoints",
      "outputs": [
        {
          "name": "",
          "type": "uint256"
        }
      ],
      "payable": false,
      "stateMutability": "view",
      "type": "function"
    },
    {
      "constant": true,
      "inputs": [],
      "name": "totalSupply",
      "outputs": [
        {
          "name": "",
          "type": "uint256"
        }
      ],
      "payable": false,
      "stateMutability": "view",
      "type": "function"
    },
    {
      "constant": true,
      "inputs": [],
      "name": "emailConfirmationPoints",
      "outputs": [
        {
          "name": "",
          "type": "uint256"
        }
      ],
      "payable": false,
      "stateMutability": "view",
      "type": "function"
    },
    {
      "constant": false,
      "inputs": [
        {
          "name": "_from",
          "type": "address"
        },
        {
          "name": "_to",
          "type": "address"
        },
        {
          "name": "_tokens",
          "type": "uint256"
        }
      ],
      "name": "transferFrom",
      "outputs": [
        {
          "name": "success",
          "type": "bool"
        }
      ],
      "payable": false,
      "stateMutability": "nonpayable",
      "type": "function"
    },
    {
      "constant": true,
      "inputs": [],
      "name": "_totalSupply",
      "outputs": [
        {
          "name": "",
          "type": "uint256"
        }
      ],
      "payable": false,
      "stateMutability": "view",
      "type": "function"
    },
    {
      "constant": true,
      "inputs": [],
      "name": "managerApprovalFee",
      "outputs": [
        {
          "name": "",
          "type": "uint256"
        }
      ],
      "payable": false,
      "stateMutability": "view",
      "type": "function"
    },
    {
      "constant": false,
      "inputs": [],
      "name": "unpause",
      "outputs": [],
      "payable": false,
      "stateMutability": "nonpayable",
      "type": "function"
    },
    {
      "constant": true,
      "inputs": [
        {
          "name": "_user",
          "type": "address"
        }
      ],
      "name": "getRole",
      "outputs": [
        {
          "name": "",
          "type": "uint8"
        }
      ],
      "payable": false,
      "stateMutability": "view",
      "type": "function"
    },
    {
      "constant": true,
      "inputs": [],
      "name": "idDocumentPoints",
      "outputs": [
        {
          "name": "",
          "type": "uint256"
        }
      ],
      "payable": false,
      "stateMutability": "view",
      "type": "function"
    },
    {
      "constant": false,
      "inputs": [
        {
          "name": "_amount",
          "type": "uint256"
        }
      ],
      "name": "setAddressDocumentPoints",
      "outputs": [],
      "payable": false,
      "stateMutability": "nonpayable",
      "type": "function"
    },
    {
      "constant": true,
      "inputs": [],
      "name": "paused",
      "outputs": [
        {
          "name": "",
          "type": "bool"
        }
      ],
      "payable": false,
      "stateMutability": "view",
      "type": "function"
    },
    {
      "constant": false,
      "inputs": [
        {
          "name": "_amount",
          "type": "uint256"
        }
      ],
      "name": "setPhonePoints",
      "outputs": [],
      "payable": false,
      "stateMutability": "nonpayable",
      "type": "function"
    },
    {
      "constant": true,
      "inputs": [],
      "name": "validate",
      "outputs": [
        {
          "name": "",
          "type": "bool"
        }
      ],
      "payable": false,
      "stateMutability": "view",
      "type": "function"
    },
    {
      "constant": false,
      "inputs": [
        {
          "name": "_bot",
          "type": "address"
        }
      ],
      "name": "setBot",
      "outputs": [],
      "payable": false,
      "stateMutability": "nonpayable",
      "type": "function"
    },
    {
      "constant": true,
      "inputs": [
        {
          "name": "_tokenOwner",
          "type": "address"
        }
      ],
      "name": "balanceOf",
      "outputs": [
        {
          "name": "balance",
          "type": "uint256"
        }
      ],
      "payable": false,
      "stateMutability": "view",
      "type": "function"
    },
    {
      "constant": true,
      "inputs": [
        {
          "name": "",
          "type": "address"
        }
      ],
      "name": "refs",
      "outputs": [
        {
          "name": "index",
          "type": "uint256"
        }
      ],
      "payable": false,
      "stateMutability": "view",
      "type": "function"
    },
    {
      "constant": true,
      "inputs": [],
      "name": "managerRegistrationFee",
      "outputs": [
        {
          "name": "",
          "type": "uint256"
        }
      ],
      "payable": false,
      "stateMutability": "view",
      "type": "function"
    },
    {
      "constant": false,
      "inputs": [
        {
          "name": "_amount",
          "type": "uint256"
        }
      ],
      "name": "setIdDocumentPoints",
      "outputs": [],
      "payable": false,
      "stateMutability": "nonpayable",
      "type": "function"
    },
    {
      "constant": false,
      "inputs": [],
      "name": "pause",
      "outputs": [],
      "payable": false,
      "stateMutability": "nonpayable",
      "type": "function"
    },
    {
      "constant": true,
      "inputs": [
        {
          "name": "",
          "type": "uint256"
        }
      ],
      "name": "refIndex",
      "outputs": [
        {
          "name": "",
          "type": "address"
        }
      ],
      "payable": false,
      "stateMutability": "view",
      "type": "function"
    },
    {
      "constant": false,
      "inputs": [
        {
          "name": "_fee",
          "type": "uint256"
        }
      ],
      "name": "setManagerRegistrationFeeTokens",
      "outputs": [],
      "payable": false,
      "stateMutability": "nonpayable",
      "type": "function"
    },
    {
      "constant": true,
      "inputs": [],
      "name": "owner",
      "outputs": [
        {
          "name": "",
          "type": "address"
        }
      ],
      "payable": false,
      "stateMutability": "view",
      "type": "function"
    },
    {
      "constant": false,
      "inputs": [
        {
          "name": "_fee",
          "type": "uint256"
        }
      ],
      "name": "setManagerApprovalFee",
      "outputs": [],
      "payable": false,
      "stateMutability": "nonpayable",
      "type": "function"
    },
    {
      "constant": true,
      "inputs": [
        {
          "name": "",
          "type": "uint256"
        }
      ],
      "name": "managerIndex",
      "outputs": [
        {
          "name": "",
          "type": "address"
        }
      ],
      "payable": false,
      "stateMutability": "view",
      "type": "function"
    },
    {
      "constant": true,
      "inputs": [
        {
          "name": "_role",
          "type": "uint8"
        }
      ],
      "name": "validateAs",
      "outputs": [
        {
          "name": "",
          "type": "bool"
        }
      ],
      "payable": false,
      "stateMutability": "view",
      "type": "function"
    },
    {
      "constant": false,
      "inputs": [
        {
          "name": "_amount",
          "type": "uint256"
        }
      ],
      "name": "setReferralBonus",
      "outputs": [],
      "payable": false,
      "stateMutability": "nonpayable",
      "type": "function"
    },
    {
      "constant": true,
      "inputs": [
        {
          "name": "",
          "type": "address"
        }
      ],
      "name": "users",
      "outputs": [
        {
          "name": "index",
          "type": "uint256"
        },
        {
          "name": "_hash",
          "type": "string"
        },
        {
          "name": "reputationPoints",
          "type": "uint256"
        },
        {
          "name": "ref",
          "type": "address"
        },
        {
          "name": "paid",
          "type": "bool"
        },
        {
          "name": "publicHash",
          "type": "string"
        },
        {
          "name": "rulesHash",
          "type": "string"
        }
      ],
      "payable": false,
      "stateMutability": "view",
      "type": "function"
    },
    {
      "constant": false,
      "inputs": [
        {
          "name": "_to",
          "type": "address"
        },
        {
          "name": "_tokens",
          "type": "uint256"
        }
      ],
      "name": "transfer",
      "outputs": [
        {
          "name": "success",
          "type": "bool"
        }
      ],
      "payable": false,
      "stateMutability": "nonpayable",
      "type": "function"
    },
    {
      "constant": false,
      "inputs": [
        {
          "name": "_fee",
          "type": "uint256"
        }
      ],
      "name": "setVoteFeeTokens",
      "outputs": [],
      "payable": false,
      "stateMutability": "nonpayable",
      "type": "function"
    },
    {
      "constant": true,
      "inputs": [],
      "name": "phonePoints",
      "outputs": [
        {
          "name": "",
          "type": "uint256"
        }
      ],
      "payable": false,
      "stateMutability": "view",
      "type": "function"
    },
    {
      "constant": true,
      "inputs": [
        {
          "name": "",
          "type": "uint256"
        }
      ],
      "name": "userIndex",
      "outputs": [
        {
          "name": "",
          "type": "address"
        }
      ],
      "payable": false,
      "stateMutability": "view",
      "type": "function"
    },
    {
      "constant": true,
      "inputs": [],
      "name": "managerRegistrationFeeTokens",
      "outputs": [
        {
          "name": "",
          "type": "uint256"
        }
      ],
      "payable": false,
      "stateMutability": "view",
      "type": "function"
    },
    {
      "constant": true,
      "inputs": [],
      "name": "referralBonus",
      "outputs": [
        {
          "name": "",
          "type": "uint256"
        }
      ],
      "payable": false,
      "stateMutability": "view",
      "type": "function"
    },
    {
      "constant": false,
      "inputs": [
        {
          "name": "_amount",
          "type": "uint256"
        }
      ],
      "name": "setUpVote",
      "outputs": [],
      "payable": false,
      "stateMutability": "nonpayable",
      "type": "function"
    },
    {
      "constant": false,
      "inputs": [
        {
          "name": "_amount",
          "type": "uint256"
        }
      ],
      "name": "setEmailConfirmationPoints",
      "outputs": [],
      "payable": false,
      "stateMutability": "nonpayable",
      "type": "function"
    },
    {
      "constant": false,
      "inputs": [
        {
          "name": "_fee",
          "type": "uint256"
        }
      ],
      "name": "setManagerRegistrationFee",
      "outputs": [],
      "payable": false,
      "stateMutability": "nonpayable",
      "type": "function"
    },
    {
      "constant": true,
      "inputs": [],
      "name": "registrationBonus",
      "outputs": [
        {
          "name": "",
          "type": "uint256"
        }
      ],
      "payable": false,
      "stateMutability": "view",
      "type": "function"
    },
    {
      "constant": true,
      "inputs": [
        {
          "name": "_tokenOwner",
          "type": "address"
        },
        {
          "name": "_spender",
          "type": "address"
        }
      ],
      "name": "allowance",
      "outputs": [
        {
          "name": "remaining",
          "type": "uint256"
        }
      ],
      "payable": false,
      "stateMutability": "view",
      "type": "function"
    },
    {
      "constant": true,
      "inputs": [],
      "name": "voteFeeTokens",
      "outputs": [
        {
          "name": "",
          "type": "uint256"
        }
      ],
      "payable": false,
      "stateMutability": "view",
      "type": "function"
    },
    {
      "constant": true,
      "inputs": [],
      "name": "upVote",
      "outputs": [
        {
          "name": "",
          "type": "uint256"
        }
      ],
      "payable": false,
      "stateMutability": "view",
      "type": "function"
    },
    {
      "constant": false,
      "inputs": [
        {
          "name": "_newOwner",
          "type": "address"
        }
      ],
      "name": "transferOwnership",
      "outputs": [],
      "payable": false,
      "stateMutability": "nonpayable",
      "type": "function"
    },
    {
      "constant": true,
      "inputs": [],
      "name": "managerApprovalFeeTokens",
      "outputs": [
        {
          "name": "",
          "type": "uint256"
        }
      ],
      "payable": false,
      "stateMutability": "view",
      "type": "function"
    },
    {
      "constant": true,
      "inputs": [
        {
          "name": "",
          "type": "address"
        }
      ],
      "name": "managers",
      "outputs": [
        {
          "name": "index",
          "type": "uint256"
        },
        {
          "name": "_hash",
          "type": "string"
        },
        {
          "name": "reputationPoints",
          "type": "uint256"
        },
        {
          "name": "publicHash",
          "type": "string"
        }
      ],
      "payable": false,
      "stateMutability": "view",
      "type": "function"
    },
    {
      "anonymous": false,
      "inputs": [
        {
          "indexed": true,
          "name": "_addr",
          "type": "address"
        },
        {
          "indexed": false,
          "name": "_index",
          "type": "uint256"
        }
      ],
      "name": "NewUser",
      "type": "event"
    },
    {
      "anonymous": false,
      "inputs": [
        {
          "indexed": true,
          "name": "_addr",
          "type": "address"
        },
        {
          "indexed": false,
          "name": "_index",
          "type": "uint256"
        }
      ],
      "name": "UpdateUser",
      "type": "event"
    },
    {
      "anonymous": false,
      "inputs": [
        {
          "indexed": true,
          "name": "_addr",
          "type": "address"
        },
        {
          "indexed": false,
          "name": "_index",
          "type": "uint256"
        }
      ],
      "name": "DeleteUser",
      "type": "event"
    },
    {
      "anonymous": false,
      "inputs": [
        {
          "indexed": true,
          "name": "_addr",
          "type": "address"
        },
        {
          "indexed": false,
          "name": "_index",
          "type": "uint256"
        }
      ],
      "name": "NewManager",
      "type": "event"
    },
    {
      "anonymous": false,
      "inputs": [
        {
          "indexed": true,
          "name": "_addr",
          "type": "address"
        },
        {
          "indexed": false,
          "name": "_index",
          "type": "uint256"
        }
      ],
      "name": "UpdateManager",
      "type": "event"
    },
    {
      "anonymous": false,
      "inputs": [
        {
          "indexed": true,
          "name": "_addr",
          "type": "address"
        },
        {
          "indexed": false,
          "name": "_index",
          "type": "uint256"
        }
      ],
      "name": "DeleteManager",
      "type": "event"
    },
    {
      "anonymous": false,
      "inputs": [
        {
          "indexed": true,
          "name": "_addr",
          "type": "address"
        },
        {
          "indexed": false,
          "name": "_index",
          "type": "uint256"
        }
      ],
      "name": "NewRef",
      "type": "event"
    },
    {
      "anonymous": false,
      "inputs": [
        {
          "indexed": true,
          "name": "_addr",
          "type": "address"
        },
        {
          "indexed": false,
          "name": "_index",
          "type": "uint256"
        }
      ],
      "name": "DeleteRef",
      "type": "event"
    },
    {
      "anonymous": false,
      "inputs": [
        {
          "indexed": true,
          "name": "_addr",
          "type": "address"
        },
        {
          "indexed": false,
          "name": "_index",
          "type": "uint256"
        }
      ],
      "name": "UpdateRef",
      "type": "event"
    },
    {
      "anonymous": false,
      "inputs": [
        {
          "indexed": true,
          "name": "_addr",
          "type": "address"
        },
        {
          "indexed": false,
          "name": "_index",
          "type": "uint256"
        },
        {
          "indexed": false,
          "name": "_ref",
          "type": "address"
        }
      ],
      "name": "NewReferred",
      "type": "event"
    },
    {
      "anonymous": false,
      "inputs": [],
      "name": "Pause",
      "type": "event"
    },
    {
      "anonymous": false,
      "inputs": [],
      "name": "Unpause",
      "type": "event"
    },
    {
      "anonymous": false,
      "inputs": [
        {
          "indexed": true,
          "name": "previousOwner",
          "type": "address"
        },
        {
          "indexed": true,
          "name": "newOwner",
          "type": "address"
        }
      ],
      "name": "OwnershipTransferred",
      "type": "event"
    },
    {
      "anonymous": false,
      "inputs": [
        {
          "indexed": true,
          "name": "from",
          "type": "address"
        },
        {
          "indexed": true,
          "name": "to",
          "type": "address"
        },
        {
          "indexed": false,
          "name": "value",
          "type": "uint256"
        }
      ],
      "name": "Transfer",
      "type": "event"
    },
    {
      "anonymous": false,
      "inputs": [
        {
          "indexed": true,
          "name": "owner",
          "type": "address"
        },
        {
          "indexed": true,
          "name": "spender",
          "type": "address"
        },
        {
          "indexed": false,
          "name": "value",
          "type": "uint256"
        }
      ],
      "name": "Approval",
      "type": "event"
    },
    {
      "constant": true,
      "inputs": [
        {
          "name": "_addr",
          "type": "address"
        }
      ],
      "name": "existsUser",
      "outputs": [
        {
          "name": "isIndexed",
          "type": "bool"
        }
      ],
      "payable": false,
      "stateMutability": "view",
      "type": "function"
    },
    {
      "constant": true,
      "inputs": [
        {
          "name": "_addr",
          "type": "address"
        }
      ],
      "name": "existsRef",
      "outputs": [
        {
          "name": "isIndexed",
          "type": "bool"
        }
      ],
      "payable": false,
      "stateMutability": "view",
      "type": "function"
    },
    {
      "constant": true,
      "inputs": [
        {
          "name": "_addr",
          "type": "address"
        }
      ],
      "name": "existsManager",
      "outputs": [
        {
          "name": "isIndexed",
          "type": "bool"
        }
      ],
      "payable": false,
      "stateMutability": "view",
      "type": "function"
    },
    {
      "constant": false,
      "inputs": [
        {
          "name": "_manager",
          "type": "address"
        }
      ],
      "name": "addToWhitelist",
      "outputs": [],
      "payable": false,
      "stateMutability": "nonpayable",
      "type": "function"
    },
    {
      "constant": false,
      "inputs": [
        {
          "name": "_manager",
          "type": "address"
        }
      ],
      "name": "removeFromWhitelist",
      "outputs": [],
      "payable": false,
      "stateMutability": "nonpayable",
      "type": "function"
    },
    {
      "constant": true,
      "inputs": [
        {
          "name": "_manager",
          "type": "address"
        }
      ],
      "name": "getWhitelistStatus",
      "outputs": [
        {
          "name": "",
          "type": "bool"
        }
      ],
      "payable": false,
      "stateMutability": "view",
      "type": "function"
    }
  ],
  "bytecode": "0x6080604052683635c9adc5dea0000060065568056bc75e2d631000006007556000196008819055600a6009819055808055600b819055600c556001600d55600e819055670de0b6b3a7640000600f55674563918244f4000060105569021e19e0c9bab2400000601155690a968163f0a57b400000601255678ac7230489e800006013556014556015805460ff1916905560038054600160a060020a03191633179055611a48806100b06000396000f3006080604052600436106102875763ffffffff7c010000000000000000000000000000000000000000000000000000000060003504166303a69611811461028c5780630592d9f5146102c7578063095ea7b3146102e157806310814c37146103055780631428a02e14610336578063164d065c1461034e57806318160ddd146103755780631824fe061461038a57806323b872dd1461039f5780633eaaf86b146103c95780633f0d11c1146103de5780633f4ba83a146103f35780634427673314610408578063556ec0ff1461044d578063571d1b91146104625780635c975abb1461047a578063652209461461048f5780636901f668146104a75780636b5caec4146104bc57806370a08231146104dd57806375c6c6da146104fe57806376cf05611461051f5780637f5984bb146105345780638456cb591461054c578063845b861c146105615780638524c3721461057957806388eaa8e01461059a5780638ab1d681146105b25780638da5cb5b146105d35780638e6ddf3b146105e8578063960f845614610600578063990892d41461061857806399f0a573146106335780639a037aa014610654578063a87430ba1461066c578063a9059cbb146107fa578063ad4f1de11461081e578063ad60b64b14610836578063c37dfd6e1461084b578063cd6af74b14610863578063ce7842f514610878578063cf56619b1461088d578063d4d0c6de146108a5578063d754dd51146108bd578063d85f91a7146108d5578063d9ba32fc146108ea578063dd62ed3e1461090b578063e43252d714610932578063e890f09314610953578063eed7c12814610968578063f2fde38b1461097d578063f409e87d1461099e578063f79269c4146109bf578063fdff9b4d146109d4575b600080fd5b34801561029857600080fd5b506102b3600160a060020a036004351660ff60243516610ae1565b604080519115158252519081900360200190f35b3480156102d357600080fd5b506102df600435610b63565b005b3480156102ed57600080fd5b506102b3600160a060020a0360043516602435610b9c565b34801561031157600080fd5b5061031a610c02565b60408051600160a060020a039092168252519081900360200190f35b34801561034257600080fd5b506102df600435610c11565b34801561035a57600080fd5b50610363610c4a565b60408051918252519081900360200190f35b34801561038157600080fd5b50610363610c50565b34801561039657600080fd5b50610363610c56565b3480156103ab57600080fd5b506102b3600160a060020a0360043581169060243516604435610c5c565b3480156103d557600080fd5b50610363610dce565b3480156103ea57600080fd5b50610363610dd4565b3480156103ff57600080fd5b506102df610dda565b34801561041457600080fd5b50610429600160a060020a0360043516610e37565b6040518082600381111561043957fe5b60ff16815260200191505060405180910390f35b34801561045957600080fd5b50610363610e59565b34801561046e57600080fd5b506102df600435610e5f565b34801561048657600080fd5b506102b3610e98565b34801561049b57600080fd5b506102df600435610ea1565b3480156104b357600080fd5b506102b3610eda565b3480156104c857600080fd5b506102df600160a060020a0360043516610eeb565b3480156104e957600080fd5b50610363600160a060020a0360043516610f31565b34801561050a57600080fd5b50610363600160a060020a0360043516610f4c565b34801561052b57600080fd5b50610363610f5e565b34801561054057600080fd5b506102df600435610f64565b34801561055857600080fd5b506102df610f9d565b34801561056d57600080fd5b5061031a600435610ffc565b34801561058557600080fd5b506102b3600160a060020a0360043516611024565b3480156105a657600080fd5b506102df60043561107c565b3480156105be57600080fd5b506102df600160a060020a03600435166110b5565b3480156105df57600080fd5b5061031a6111b6565b3480156105f457600080fd5b506102df6004356111c5565b34801561060c57600080fd5b5061031a6004356111fe565b34801561062457600080fd5b506102b360ff6004351661120c565b34801561063f57600080fd5b506102b3600160a060020a036004351661123f565b34801561066057600080fd5b506102df60043561127b565b34801561067857600080fd5b5061068d600160a060020a03600435166112b4565b60408051888152908101869052600160a060020a0385166060820152831515608082015260e06020808301828152895192840192909252885160a084019160c08501916101008601918c019080838360005b838110156106f75781810151838201526020016106df565b50505050905090810190601f1680156107245780820380516001836020036101000a031916815260200191505b50848103835286518152865160209182019188019080838360005b8381101561075757818101518382015260200161073f565b50505050905090810190601f1680156107845780820380516001836020036101000a031916815260200191505b50848103825285518152855160209182019187019080838360005b838110156107b757818101518382015260200161079f565b50505050905090810190601f1680156107e45780820380516001836020036101000a031916815260200191505b509a505050505050505050505060405180910390f35b34801561080657600080fd5b506102b3600160a060020a03600435166024356114af565b34801561082a57600080fd5b506102df60043561159e565b34801561084257600080fd5b506103636115d7565b34801561085757600080fd5b5061031a6004356115dd565b34801561086f57600080fd5b506103636115eb565b34801561088457600080fd5b506103636115f1565b34801561089957600080fd5b506102df6004356115f7565b3480156108b157600080fd5b506102df600435611630565b3480156108c957600080fd5b506102df600435611669565b3480156108e157600080fd5b506103636116a2565b3480156108f657600080fd5b506102b3600160a060020a03600435166116a8565b34801561091757600080fd5b50610363600160a060020a0360043581169060243516611723565b34801561093e57600080fd5b506102df600160a060020a036004351661174e565b34801561095f57600080fd5b506103636117cc565b34801561097457600080fd5b506103636117d2565b34801561098957600080fd5b506102df600160a060020a03600435166117d8565b3480156109aa57600080fd5b506102b3600160a060020a036004351661186d565b3480156109cb57600080fd5b506103636118a9565b3480156109e057600080fd5b506109f5600160a060020a03600435166118af565b604051808581526020018060200184815260200180602001838103835286818151815260200191508051906020019080838360005b83811015610a42578181015183820152602001610a2a565b50505050905090810190601f168015610a6f5780820380516001836020036101000a031916815260200191505b50838103825284518152845160209182019186019080838360005b83811015610aa2578181015183820152602001610a8a565b50505050905090810190601f168015610acf5780820380516001836020036101000a031916815260200191505b50965050505050505060405180910390f35b60006003803360009081526005602052604090205460ff166003811115610b0457fe5b1480610b1a5750600354600160a060020a031633145b1515610b2557600080fd5b600160a060020a0384166000908152600560205260409020805484919060ff19166001836003811115610b5457fe5b02179055506001949350505050565b600354600160a060020a03163314610b7a57600080fd5b600081118015610b8c57506014548111155b1515610b9757600080fd5b601255565b336000818152600160209081526040808320600160a060020a038716808552908352818420869055815186815291519394909390927f8c5be1e5ebec7d5bd14f71427d1e84f3dd0314c0f7b2291e5b200ac8c7c3b925928290030190a350600192915050565b600454600160a060020a031681565b600354600160a060020a03163314610c2857600080fd5b600081118015610c3a57506008548111155b1515610c4557600080fd5b600655565b600b5481565b60025490565b60095481565b6000600160a060020a0383161515610c7357600080fd5b600160a060020a038416600090815260208190526040902054821115610c9857600080fd5b600160a060020a0384166000908152600160209081526040808320338452909152902054821115610cc857600080fd5b600160a060020a038416600090815260208190526040902054610cf1908363ffffffff6119ee16565b600160a060020a038516600090815260208181526040808320939093556001815282822033835290522054610d2c908363ffffffff6119ee16565b600160a060020a0380861660009081526001602090815260408083203384528252808320949094559186168152908190522054610d6f908363ffffffff611a0316565b600160a060020a038085166000818152602081815260409182902094909455805186815290519193928816927fddf252ad1be2c89b69c2b068fc378daa952ba7f163c4a11628f55a4df523b3ef92918290030190a35060019392505050565b60025481565b60105481565b600354600160a060020a03163314610df157600080fd5b60155460ff161515610e0257600080fd5b6015805460ff191690556040517f7805862f689e2f13df9f062ff482ad3ad112aca9e0847911ed832e158c525b3390600090a1565b600160a060020a03811660009081526005602052604090205460ff165b919050565b600a5481565b600354600160a060020a03163314610e7657600080fd5b600081118015610e885750600e548111155b1515610e9357600080fd5b600b55565b60155460ff1681565b600354600160a060020a03163314610eb857600080fd5b600081118015610eca5750600e548111155b1515610ed557600080fd5b600c55565b600354600160a060020a0316331490565b600354600160a060020a03163314610f0257600080fd5b6004805473ffffffffffffffffffffffffffffffffffffffff1916600160a060020a0392909216919091179055565b600160a060020a031660009081526020819052604090205490565b601a6020526000908152604090205481565b600f5481565b600354600160a060020a03163314610f7b57600080fd5b600081118015610f8d5750600e548111155b1515610f9857600080fd5b600a55565b600354600160a060020a03163314610fb457600080fd5b60155460ff1615610fc457600080fd5b6015805460ff191660011790556040517f6985a02210a168e66602d3235cb6db0e70f92b3ba4d376a33c0f3d9434bff62590600090a1565b601b80548290811061100a57fe5b600091825260209091200154600160a060020a0316905081565b601954600090151561103857506000610e54565b600160a060020a03821660008181526018602052604090205460198054909190811061106057fe5b600091825260209091200154600160a060020a03161492915050565b600354600160a060020a0316331461109357600080fd5b6000811180156110a557506014548111155b15156110b057600080fd5b601155565b6001803360009081526005602052604090205460ff1660038111156110d657fe5b14806110ec5750600354600160a060020a031633145b15156110f757600080fd5b600160a060020a0382166000908152601c6020526040902054829060ff16151561112057600080fd5b61112983611024565b151560011461113757600080fd5b601254600160a060020a0384166000908152602081905260409020546111629163ffffffff611a0316565b600160a060020a0384166000908152602081905260409020556012546002546111909163ffffffff611a0316565b6002555050600160a060020a03166000908152601c60205260409020805460ff19169055565b600354600160a060020a031681565b600354600160a060020a031633146111dc57600080fd5b6000811180156111ee57506014548111155b15156111f957600080fd5b601055565b601980548290811061100a57fe5b600081600381111561121a57fe5b3360009081526005602052604090205460ff16600381111561123857fe5b1492915050565b601b54600090151561125357506000610e54565b600160a060020a0382166000818152601a6020526040902054601b8054909190811061106057fe5b600354600160a060020a0316331461129257600080fd5b6000811180156112a457506008548111155b15156112af57600080fd5b600755565b6016602090815260009182526040918290208054600180830180548651600293821615610100026000190190911692909204601f8101869004860283018601909652858252919492939092908301828280156113515780601f1061132657610100808354040283529160200191611351565b820191906000526020600020905b81548152906001019060200180831161133457829003601f168201915b505050506003830154600484015460058501805460408051602060026101006001861615026000190190941693909304601f810184900484028201840190925281815296979496600160a060020a03851696507401000000000000000000000000000000000000000090940460ff16949392918301828280156114155780601f106113ea57610100808354040283529160200191611415565b820191906000526020600020905b8154815290600101906020018083116113f857829003601f168201915b5050505060068301805460408051602060026001851615610100026000190190941693909304601f81018490048402820184019092528181529495949350908301828280156114a55780601f1061147a576101008083540402835291602001916114a5565b820191906000526020600020905b81548152906001019060200180831161148857829003601f168201915b5050505050905087565b6000600160a060020a03831615156114c657600080fd5b3360009081526020819052604090205482118015906114e55750600082115b15156114f057600080fd5b33600090815260208190526040902054611510908363ffffffff6119ee16565b3360009081526020819052604080822092909255600160a060020a03851681522054611542908363ffffffff611a0316565b600160a060020a038416600081815260208181526040918290209390935580518581529051919233927fddf252ad1be2c89b69c2b068fc378daa952ba7f163c4a11628f55a4df523b3ef9281900390910190a350600192915050565b600354600160a060020a031633146115b557600080fd5b6000811180156115c757506014548111155b15156115d257600080fd5b601355565b600c5481565b601780548290811061100a57fe5b60115481565b60075481565b600354600160a060020a0316331461160e57600080fd5b6000811180156116205750600e548111155b151561162b57600080fd5b600d55565b600354600160a060020a0316331461164757600080fd5b6000811180156116595750600e548111155b151561166457600080fd5b600955565b600354600160a060020a0316331461168057600080fd5b60008111801561169257506014548111155b151561169d57600080fd5b600f55565b60065481565b60006001803360009081526005602052604090205460ff1660038111156116cb57fe5b14806116e15750600354600160a060020a031633145b15156116ec57600080fd5b6116f583611024565b151560011461170357600080fd5b5050600160a060020a03166000908152601c602052604090205460ff1690565b600160a060020a03918216600090815260016020908152604080832093909416825291909152205490565b6001803360009081526005602052604090205460ff16600381111561176f57fe5b14806117855750600354600160a060020a031633145b151561179057600080fd5b61179982611024565b15156001146117a757600080fd5b50600160a060020a03166000908152601c60205260409020805460ff19166001179055565b60135481565b600d5481565b600354600160a060020a031633146117ef57600080fd5b600160a060020a038116151561180457600080fd5b600354604051600160a060020a038084169216907f8be0079c531659141344cd1fd0a4f28419497f9722a3daafe3b4186f6b6457e090600090a36003805473ffffffffffffffffffffffffffffffffffffffff1916600160a060020a0392909216919091179055565b601754600090151561188157506000610e54565b600160a060020a03821660008181526016602052604090205460178054909190811061106057fe5b60125481565b6018602090815260009182526040918290208054600180830180548651600293821615610100026000190190911692909204601f81018690048602830186019096528582529194929390929083018282801561194c5780601f106119215761010080835404028352916020019161194c565b820191906000526020600020905b81548152906001019060200180831161192f57829003601f168201915b505050506002838101546003850180546040805160206001841615610100026000190190931695909504601f8101839004830286018301909152808552959692959294509091908301828280156119e45780601f106119b9576101008083540402835291602001916119e4565b820191906000526020600020905b8154815290600101906020018083116119c757829003601f168201915b5050505050905084565b6000828211156119fd57600080fd5b50900390565b600082820183811015611a1557600080fd5b93925050505600a165627a7a72305820da96bca8f8d82aa25e62ae70f4a24b781539cca8ce9cb9d8679658e1ee36089a0029",
  "source": "pragma solidity ^0.4.23;\r\n\r\nimport \"./Roles.sol\";\r\nimport \"./Bonus.sol\";\r\nimport \"./Reputation.sol\";\r\nimport \"./Fees.sol\";\r\nimport \"./Pausable.sol\";\r\nimport \"./Basic.sol\";\r\n\r\n\r\ncontract DataBase is Basic, Roles, Bonus, Reputation, Fees, Pausable {\r\n    enum UserState {\r\n        Waiting,\r\n        Approved,\r\n        Disapproved\r\n    }\r\n\r\n    struct ManagerStruct {\r\n        uint index;\r\n        string _hash;\r\n        uint reputationPoints;\r\n        string publicHash;\r\n    }\r\n\r\n    struct RefStruct {\r\n        uint index;\r\n        address[] userIndex;\r\n        mapping (address => uint) users;\r\n    }\r\n\r\n    struct UserStruct {\r\n        uint index;\r\n        string _hash;\r\n        UserState[] stateIndex;\r\n        uint reputationPoints;\r\n        address ref;\r\n        bool paid;\r\n        string publicHash;\r\n        string rulesHash;\r\n        mapping (address => uint) states;\r\n    }\r\n\r\n    mapping (address => UserStruct) public users;\r\n    address[] public userIndex;\r\n    mapping (address => ManagerStruct) public managers;\r\n    address[] public managerIndex;\r\n    mapping (address => RefStruct) public refs;\r\n    address[] public refIndex;\r\n    mapping(address => bool) internal whitelist;\r\n\r\n    event NewUser(address indexed _addr, uint _index);\r\n    event UpdateUser(address indexed _addr,  uint _index);\r\n    event DeleteUser(address indexed _addr,  uint _index);\r\n    event NewManager(address indexed _addr, uint _index);\r\n    event UpdateManager(address indexed _addr,  uint _index);\r\n    event DeleteManager(address indexed _addr,  uint _index);\r\n    event NewRef(address indexed _addr, uint _index);\r\n    event DeleteRef(address indexed _addr,  uint _index);\r\n    event UpdateRef(address indexed _addr,  uint _index);\r\n    event NewReferred(address indexed _addr, uint _index,  address _ref);\r\n\r\n    modifier isWhitelisted(address _beneficiary) {\r\n        require(whitelist[_beneficiary]);\r\n        _;\r\n    }\r\n\r\n    /*\r\n    * @title Check if user is registered\r\n    * @author Tadas Talaikis <info@talaikis.com>\r\n    * @param {address} _addr User's address\r\n    */\r\n    function existsUser(address _addr) public view returns(bool isIndexed) {\r\n        if (userIndex.length == 0) {\r\n            return false;\r\n        }\r\n        return (userIndex[users[_addr].index] == _addr);\r\n    }\r\n\r\n    /*\r\n    * @title Check if user is referral\r\n    * @author Tadas Talaikis <info@talaikis.com>\r\n    * @param {address} _addr User's address\r\n    */\r\n    function existsRef(address _addr) public view returns(bool isIndexed) {\r\n        if (refIndex.length == 0) {\r\n            return false;\r\n        }\r\n        return (refIndex[refs[_addr].index] == _addr);\r\n    }\r\n\r\n    /*\r\n    * @title Check if user is manager\r\n    * @author Tadas Talaikis <info@talaikis.com>\r\n    * @param {address} _addr User's address\r\n    */\r\n    function existsManager(address _addr) public view returns(bool isIndexed) {\r\n        if (managerIndex.length == 0) {\r\n            return false;\r\n        }\r\n        return (managerIndex[managers[_addr].index] == _addr);\r\n    }\r\n\r\n    /*\r\n    * @title Add manager to Whitelist\r\n    * @author Tadas Talaikis <info@talaikis.com>\r\n    * @param {address} _mannager Manager's address\r\n    * @dev Since we collected entire fee previously, we do nothing else here.\r\n    */\r\n    function addToWhitelist(address _manager) public onlyAsOrOwner(Role.Admin) {\r\n        require(existsManager(_manager) == true);\r\n        whitelist[_manager] = true;\r\n    }\r\n\r\n    /*\r\n    * @title Remove manager from Whitelist\r\n    * @author Tadas Talaikis <info@talaikis.com>\r\n    * @param {address} _mannager Manager's address\r\n    * @dev When removing, we refund approval fee in tokens.\r\n    */\r\n    function removeFromWhitelist(address _manager) public onlyAsOrOwner(Role.Admin) isWhitelisted(_manager) {\r\n        require(existsManager(_manager) == true);\r\n        balances[_manager] = balances[_manager].add(managerApprovalFeeTokens);\r\n        _totalSupply = _totalSupply.add(managerApprovalFeeTokens);\r\n        whitelist[_manager] = false;\r\n    }\r\n\r\n    /*\r\n    * @title Get manager Whitelist status\r\n    * @author Tadas Talaikis <info@talaikis.com>\r\n    * @param {address} _mannager Manager's address\r\n    */\r\n    function getWhitelistStatus(address _manager) public view onlyAsOrOwner(Role.Admin) returns (bool) {\r\n        require(existsManager(_manager) == true);\r\n        return whitelist[_manager];\r\n    }\r\n\r\n}\r\n",
  "sourcePath": "C:\\Users\\DXenu\\Desktop\\box\\identiform\\contracts\\database\\DataBase.sol",
  "compiler": {
    "name": "solc",
    "version": "0.4.24+commit.e67f0147.Emscripten.clang"
  },
  "schemaVersion": "2.0.0",
  "updatedAt": "2018-06-17T09:46:19.797Z"
}