{
  "contractName": "Factory",
  "abi": [
    {
      "constant": false,
      "inputs": [
        {
          "name": "_addr",
          "type": "address"
        },
        {
          "name": "_hash",
          "type": "string"
        },
        {
          "name": "_publicHash",
          "type": "string"
        }
      ],
      "name": "updateManager",
      "outputs": [
        {
          "name": "",
          "type": "bool"
        }
      ],
      "payable": false,
      "stateMutability": "nonpayable",
      "type": "function"
    },
    {
      "constant": false,
      "inputs": [
        {
          "name": "_user",
          "type": "address"
        },
        {
          "name": "_role",
          "type": "uint8"
        }
      ],
      "name": "setUserRole",
      "outputs": [
        {
          "name": "",
          "type": "bool"
        }
      ],
      "payable": false,
      "stateMutability": "nonpayable",
      "type": "function"
    },
    {
      "constant": false,
      "inputs": [
        {
          "name": "_hash",
          "type": "string"
        },
        {
          "name": "_publicHash",
          "type": "string"
        },
        {
          "name": "_ref",
          "type": "address"
        }
      ],
      "name": "newUserByRef",
      "outputs": [
        {
          "name": "",
          "type": "bool"
        }
      ],
      "payable": false,
      "stateMutability": "nonpayable",
      "type": "function"
    },
    {
      "constant": false,
      "inputs": [
        {
          "name": "_fee",
          "type": "uint256"
        }
      ],
      "name": "setManagerApprovalFeeTokens",
      "outputs": [],
      "payable": false,
      "stateMutability": "nonpayable",
      "type": "function"
    },
    {
      "constant": false,
      "inputs": [
        {
          "name": "_spender",
          "type": "address"
        },
        {
          "name": "_tokens",
          "type": "uint256"
        }
      ],
      "name": "approve",
      "outputs": [
        {
          "name": "success",
          "type": "bool"
        }
      ],
      "payable": false,
      "stateMutability": "nonpayable",
      "type": "function"
    },
    {
      "constant": true,
      "inputs": [],
      "name": "bot",
      "outputs": [
        {
          "name": "",
          "type": "address"
        }
      ],
      "payable": false,
      "stateMutability": "view",
      "type": "function"
    },
    {
      "constant": false,
      "inputs": [
        {
          "name": "_addr",
          "type": "address"
        },
        {
          "name": "_hash",
          "type": "string"
        },
        {
          "name": "publicHash",
          "type": "string"
        }
      ],
      "name": "updateUser",
      "outputs": [
        {
          "name": "",
          "type": "bool"
        }
      ],
      "payable": false,
      "stateMutability": "nonpayable",
      "type": "function"
    },
    {
      "constant": false,
      "inputs": [
        {
          "name": "_addr",
          "type": "address"
        }
      ],
      "name": "updateUserReputationAddressDocument",
      "outputs": [],
      "payable": false,
      "stateMutability": "nonpayable",
      "type": "function"
    },
    {
      "constant": false,
      "inputs": [
        {
          "name": "_amount",
          "type": "uint256"
        }
      ],
      "name": "setRegistrationBonus",
      "outputs": [],
      "payable": false,
      "stateMutability": "nonpayable",
      "type": "function"
    },
    {
      "constant": true,
      "inputs": [],
      "name": "addressDocumentPoints",
      "outputs": [
        {
          "name": "",
          "type": "uint256"
        }
      ],
      "payable": false,
      "stateMutability": "view",
      "type": "function"
    },
    {
      "constant": true,
      "inputs": [],
      "name": "totalSupply",
      "outputs": [
        {
          "name": "",
          "type": "uint256"
        }
      ],
      "payable": false,
      "stateMutability": "view",
      "type": "function"
    },
    {
      "constant": true,
      "inputs": [],
      "name": "emailConfirmationPoints",
      "outputs": [
        {
          "name": "",
          "type": "uint256"
        }
      ],
      "payable": false,
      "stateMutability": "view",
      "type": "function"
    },
    {
      "constant": true,
      "inputs": [
        {
          "name": "_index",
          "type": "uint256"
        }
      ],
      "name": "getManagerAtIndexPublic",
      "outputs": [
        {
          "name": "",
          "type": "address"
        },
        {
          "name": "",
          "type": "string"
        },
        {
          "name": "",
          "type": "uint256"
        }
      ],
      "payable": false,
      "stateMutability": "view",
      "type": "function"
    },
    {
      "constant": false,
      "inputs": [
        {
          "name": "_addr",
          "type": "address"
        }
      ],
      "name": "deleteRef",
      "outputs": [
        {
          "name": "",
          "type": "bool"
        }
      ],
      "payable": false,
      "stateMutability": "nonpayable",
      "type": "function"
    },
    {
      "constant": false,
      "inputs": [],
      "name": "newRef",
      "outputs": [
        {
          "name": "",
          "type": "bool"
        }
      ],
      "payable": false,
      "stateMutability": "nonpayable",
      "type": "function"
    },
    {
      "constant": false,
      "inputs": [
        {
          "name": "_hash",
          "type": "string"
        },
        {
          "name": "_publicHash",
          "type": "string"
        }
      ],
      "name": "newUser",
      "outputs": [
        {
          "name": "",
          "type": "bool"
        }
      ],
      "payable": false,
      "stateMutability": "nonpayable",
      "type": "function"
    },
    {
      "constant": false,
      "inputs": [
        {
          "name": "_from",
          "type": "address"
        },
        {
          "name": "_to",
          "type": "address"
        },
        {
          "name": "_tokens",
          "type": "uint256"
        }
      ],
      "name": "transferFrom",
      "outputs": [
        {
          "name": "success",
          "type": "bool"
        }
      ],
      "payable": false,
      "stateMutability": "nonpayable",
      "type": "function"
    },
    {
      "constant": true,
      "inputs": [],
      "name": "rate",
      "outputs": [
        {
          "name": "",
          "type": "uint256"
        }
      ],
      "payable": false,
      "stateMutability": "view",
      "type": "function"
    },
    {
      "constant": true,
      "inputs": [],
      "name": "decimals",
      "outputs": [
        {
          "name": "",
          "type": "uint8"
        }
      ],
      "payable": false,
      "stateMutability": "view",
      "type": "function"
    },
    {
      "constant": true,
      "inputs": [
        {
          "name": "_addr",
          "type": "address"
        }
      ],
      "name": "getManager",
      "outputs": [
        {
          "name": "",
          "type": "string"
        },
        {
          "name": "",
          "type": "string"
        },
        {
          "name": "",
          "type": "uint256"
        }
      ],
      "payable": false,
      "stateMutability": "view",
      "type": "function"
    },
    {
      "constant": true,
      "inputs": [],
      "name": "_totalSupply",
      "outputs": [
        {
          "name": "",
          "type": "uint256"
        }
      ],
      "payable": false,
      "stateMutability": "view",
      "type": "function"
    },
    {
      "constant": true,
      "inputs": [],
      "name": "managerApprovalFee",
      "outputs": [
        {
          "name": "",
          "type": "uint256"
        }
      ],
      "payable": false,
      "stateMutability": "view",
      "type": "function"
    },
    {
      "constant": false,
      "inputs": [],
      "name": "unpause",
      "outputs": [],
      "payable": false,
      "stateMutability": "nonpayable",
      "type": "function"
    },
    {
      "constant": false,
      "inputs": [
        {
          "name": "_user",
          "type": "address"
        },
        {
          "name": "_state",
          "type": "uint8"
        },
        {
          "name": "_ruleBook",
          "type": "address"
        }
      ],
      "name": "setUserStatus",
      "outputs": [
        {
          "name": "",
          "type": "bool"
        }
      ],
      "payable": false,
      "stateMutability": "nonpayable",
      "type": "function"
    },
    {
      "constant": true,
      "inputs": [
        {
          "name": "_user",
          "type": "address"
        }
      ],
      "name": "getUserState",
      "outputs": [
        {
          "name": "",
          "type": "uint8"
        },
        {
          "name": "",
          "type": "string"
        },
        {
          "name": "",
          "type": "address"
        }
      ],
      "payable": false,
      "stateMutability": "view",
      "type": "function"
    },
    {
      "constant": true,
      "inputs": [
        {
          "name": "_user",
          "type": "address"
        }
      ],
      "name": "getRole",
      "outputs": [
        {
          "name": "",
          "type": "uint8"
        }
      ],
      "payable": false,
      "stateMutability": "view",
      "type": "function"
    },
    {
      "constant": true,
      "inputs": [],
      "name": "getRefCount",
      "outputs": [
        {
          "name": "",
          "type": "uint256"
        }
      ],
      "payable": false,
      "stateMutability": "view",
      "type": "function"
    },
    {
      "constant": false,
      "inputs": [
        {
          "name": "_hash",
          "type": "string"
        },
        {
          "name": "_publicHash",
          "type": "string"
        }
      ],
      "name": "newManagerWithTokens",
      "outputs": [],
      "payable": false,
      "stateMutability": "nonpayable",
      "type": "function"
    },
    {
      "constant": true,
      "inputs": [
        {
          "name": "_addr",
          "type": "address"
        }
      ],
      "name": "getUserPublicAddr",
      "outputs": [
        {
          "name": "",
          "type": "address"
        },
        {
          "name": "",
          "type": "string"
        },
        {
          "name": "",
          "type": "uint256"
        }
      ],
      "payable": false,
      "stateMutability": "view",
      "type": "function"
    },
    {
      "constant": true,
      "inputs": [],
      "name": "idDocumentPoints",
      "outputs": [
        {
          "name": "",
          "type": "uint256"
        }
      ],
      "payable": false,
      "stateMutability": "view",
      "type": "function"
    },
    {
      "constant": false,
      "inputs": [
        {
          "name": "_amount",
          "type": "uint256"
        }
      ],
      "name": "setAddressDocumentPoints",
      "outputs": [],
      "payable": false,
      "stateMutability": "nonpayable",
      "type": "function"
    },
    {
      "constant": false,
      "inputs": [
        {
          "name": "_addr",
          "type": "address"
        }
      ],
      "name": "deleteUser",
      "outputs": [
        {
          "name": "",
          "type": "bool"
        }
      ],
      "payable": false,
      "stateMutability": "nonpayable",
      "type": "function"
    },
    {
      "constant": true,
      "inputs": [],
      "name": "paused",
      "outputs": [
        {
          "name": "",
          "type": "bool"
        }
      ],
      "payable": false,
      "stateMutability": "view",
      "type": "function"
    },
    {
      "constant": false,
      "inputs": [
        {
          "name": "_amount",
          "type": "uint256"
        }
      ],
      "name": "setPhonePoints",
      "outputs": [],
      "payable": false,
      "stateMutability": "nonpayable",
      "type": "function"
    },
    {
      "constant": true,
      "inputs": [],
      "name": "validate",
      "outputs": [
        {
          "name": "",
          "type": "bool"
        }
      ],
      "payable": false,
      "stateMutability": "view",
      "type": "function"
    },
    {
      "constant": false,
      "inputs": [
        {
          "name": "_bot",
          "type": "address"
        }
      ],
      "name": "setBot",
      "outputs": [],
      "payable": false,
      "stateMutability": "nonpayable",
      "type": "function"
    },
    {
      "constant": false,
      "inputs": [
        {
          "name": "_addr",
          "type": "address"
        }
      ],
      "name": "upVoteManager",
      "outputs": [],
      "payable": false,
      "stateMutability": "nonpayable",
      "type": "function"
    },
    {
      "constant": true,
      "inputs": [],
      "name": "tokenName",
      "outputs": [
        {
          "name": "",
          "type": "bytes32"
        }
      ],
      "payable": false,
      "stateMutability": "view",
      "type": "function"
    },
    {
      "constant": true,
      "inputs": [
        {
          "name": "_addr",
          "type": "address"
        }
      ],
      "name": "getUser",
      "outputs": [
        {
          "name": "",
          "type": "string"
        },
        {
          "name": "",
          "type": "uint8"
        },
        {
          "name": "",
          "type": "address"
        },
        {
          "name": "",
          "type": "bool"
        },
        {
          "name": "",
          "type": "uint256"
        }
      ],
      "payable": false,
      "stateMutability": "view",
      "type": "function"
    },
    {
      "constant": true,
      "inputs": [
        {
          "name": "_index",
          "type": "uint256"
        }
      ],
      "name": "getUserStateAtIndex",
      "outputs": [
        {
          "name": "",
          "type": "uint8"
        },
        {
          "name": "",
          "type": "string"
        },
        {
          "name": "",
          "type": "address"
        }
      ],
      "payable": false,
      "stateMutability": "view",
      "type": "function"
    },
    {
      "constant": true,
      "inputs": [
        {
          "name": "_tokenOwner",
          "type": "address"
        }
      ],
      "name": "balanceOf",
      "outputs": [
        {
          "name": "balance",
          "type": "uint256"
        }
      ],
      "payable": false,
      "stateMutability": "view",
      "type": "function"
    },
    {
      "constant": true,
      "inputs": [
        {
          "name": "",
          "type": "address"
        }
      ],
      "name": "refs",
      "outputs": [
        {
          "name": "index",
          "type": "uint256"
        }
      ],
      "payable": false,
      "stateMutability": "view",
      "type": "function"
    },
    {
      "constant": true,
      "inputs": [],
      "name": "managerRegistrationFee",
      "outputs": [
        {
          "name": "",
          "type": "uint256"
        }
      ],
      "payable": false,
      "stateMutability": "view",
      "type": "function"
    },
    {
      "constant": false,
      "inputs": [
        {
          "name": "_addr",
          "type": "address"
        }
      ],
      "name": "updateUserReputationIdDocument",
      "outputs": [],
      "payable": false,
      "stateMutability": "nonpayable",
      "type": "function"
    },
    {
      "constant": false,
      "inputs": [
        {
          "name": "_amount",
          "type": "uint256"
        }
      ],
      "name": "setIdDocumentPoints",
      "outputs": [],
      "payable": false,
      "stateMutability": "nonpayable",
      "type": "function"
    },
    {
      "constant": false,
      "inputs": [
        {
          "name": "_hash",
          "type": "string"
        },
        {
          "name": "_publicHash",
          "type": "string"
        }
      ],
      "name": "newManager",
      "outputs": [],
      "payable": true,
      "stateMutability": "payable",
      "type": "function"
    },
    {
      "constant": false,
      "inputs": [
        {
          "name": "_addr",
          "type": "address"
        }
      ],
      "name": "upVoteUser",
      "outputs": [],
      "payable": false,
      "stateMutability": "nonpayable",
      "type": "function"
    },
    {
      "constant": false,
      "inputs": [],
      "name": "pause",
      "outputs": [],
      "payable": false,
      "stateMutability": "nonpayable",
      "type": "function"
    },
    {
      "constant": true,
      "inputs": [
        {
          "name": "",
          "type": "uint256"
        }
      ],
      "name": "refIndex",
      "outputs": [
        {
          "name": "",
          "type": "address"
        }
      ],
      "payable": false,
      "stateMutability": "view",
      "type": "function"
    },
    {
      "constant": true,
      "inputs": [
        {
          "name": "_addr",
          "type": "address"
        }
      ],
      "name": "existsManager",
      "outputs": [
        {
          "name": "isIndexed",
          "type": "bool"
        }
      ],
      "payable": false,
      "stateMutability": "view",
      "type": "function"
    },
    {
      "constant": false,
      "inputs": [
        {
          "name": "_fee",
          "type": "uint256"
        }
      ],
      "name": "setManagerRegistrationFeeTokens",
      "outputs": [],
      "payable": false,
      "stateMutability": "nonpayable",
      "type": "function"
    },
    {
      "constant": false,
      "inputs": [
        {
          "name": "_manager",
          "type": "address"
        }
      ],
      "name": "removeFromWhitelist",
      "outputs": [],
      "payable": false,
      "stateMutability": "nonpayable",
      "type": "function"
    },
    {
      "constant": true,
      "inputs": [],
      "name": "owner",
      "outputs": [
        {
          "name": "",
          "type": "address"
        }
      ],
      "payable": false,
      "stateMutability": "view",
      "type": "function"
    },
    {
      "constant": false,
      "inputs": [
        {
          "name": "_fee",
          "type": "uint256"
        }
      ],
      "name": "setManagerApprovalFee",
      "outputs": [],
      "payable": false,
      "stateMutability": "nonpayable",
      "type": "function"
    },
    {
      "constant": true,
      "inputs": [
        {
          "name": "_ref",
          "type": "address"
        }
      ],
      "name": "getRefUsersCount",
      "outputs": [
        {
          "name": "",
          "type": "uint256"
        }
      ],
      "payable": false,
      "stateMutability": "view",
      "type": "function"
    },
    {
      "constant": true,
      "inputs": [],
      "name": "symbol",
      "outputs": [
        {
          "name": "",
          "type": "bytes32"
        }
      ],
      "payable": false,
      "stateMutability": "view",
      "type": "function"
    },
    {
      "constant": true,
      "inputs": [
        {
          "name": "",
          "type": "uint256"
        }
      ],
      "name": "managerIndex",
      "outputs": [
        {
          "name": "",
          "type": "address"
        }
      ],
      "payable": false,
      "stateMutability": "view",
      "type": "function"
    },
    {
      "constant": false,
      "inputs": [
        {
          "name": "_addr",
          "type": "address"
        }
      ],
      "name": "deleteManager",
      "outputs": [
        {
          "name": "index",
          "type": "uint256"
        }
      ],
      "payable": false,
      "stateMutability": "nonpayable",
      "type": "function"
    },
    {
      "constant": true,
      "inputs": [
        {
          "name": "_role",
          "type": "uint8"
        }
      ],
      "name": "validateAs",
      "outputs": [
        {
          "name": "",
          "type": "bool"
        }
      ],
      "payable": false,
      "stateMutability": "view",
      "type": "function"
    },
    {
      "constant": true,
      "inputs": [
        {
          "name": "_addr",
          "type": "address"
        }
      ],
      "name": "existsRef",
      "outputs": [
        {
          "name": "isIndexed",
          "type": "bool"
        }
      ],
      "payable": false,
      "stateMutability": "view",
      "type": "function"
    },
    {
      "constant": false,
      "inputs": [
        {
          "name": "_amount",
          "type": "uint256"
        }
      ],
      "name": "setReferralBonus",
      "outputs": [],
      "payable": false,
      "stateMutability": "nonpayable",
      "type": "function"
    },
    {
      "constant": false,
      "inputs": [
        {
          "name": "_addr",
          "type": "address"
        },
        {
          "name": "_hash",
          "type": "string"
        }
      ],
      "name": "updatePublicInfo",
      "outputs": [
        {
          "name": "",
          "type": "bool"
        }
      ],
      "payable": false,
      "stateMutability": "nonpayable",
      "type": "function"
    },
    {
      "constant": false,
      "inputs": [
        {
          "name": "_addr",
          "type": "address"
        },
        {
          "name": "_hash",
          "type": "string"
        }
      ],
      "name": "updateRulesInfo",
      "outputs": [
        {
          "name": "",
          "type": "bool"
        }
      ],
      "payable": false,
      "stateMutability": "nonpayable",
      "type": "function"
    },
    {
      "constant": true,
      "inputs": [
        {
          "name": "",
          "type": "address"
        }
      ],
      "name": "users",
      "outputs": [
        {
          "name": "index",
          "type": "uint256"
        },
        {
          "name": "_hash",
          "type": "string"
        },
        {
          "name": "reputationPoints",
          "type": "uint256"
        },
        {
          "name": "ref",
          "type": "address"
        },
        {
          "name": "paid",
          "type": "bool"
        },
        {
          "name": "publicHash",
          "type": "string"
        },
        {
          "name": "rulesHash",
          "type": "string"
        }
      ],
      "payable": false,
      "stateMutability": "view",
      "type": "function"
    },
    {
      "constant": false,
      "inputs": [
        {
          "name": "_to",
          "type": "address"
        },
        {
          "name": "_tokens",
          "type": "uint256"
        }
      ],
      "name": "transfer",
      "outputs": [
        {
          "name": "success",
          "type": "bool"
        }
      ],
      "payable": false,
      "stateMutability": "nonpayable",
      "type": "function"
    },
    {
      "constant": false,
      "inputs": [
        {
          "name": "_fee",
          "type": "uint256"
        }
      ],
      "name": "setVoteFeeTokens",
      "outputs": [],
      "payable": false,
      "stateMutability": "nonpayable",
      "type": "function"
    },
    {
      "constant": true,
      "inputs": [],
      "name": "phonePoints",
      "outputs": [
        {
          "name": "",
          "type": "uint256"
        }
      ],
      "payable": false,
      "stateMutability": "view",
      "type": "function"
    },
    {
      "constant": true,
      "inputs": [],
      "name": "getUserCount",
      "outputs": [
        {
          "name": "count",
          "type": "uint256"
        }
      ],
      "payable": false,
      "stateMutability": "view",
      "type": "function"
    },
    {
      "constant": false,
      "inputs": [
        {
          "name": "_addr",
          "type": "address"
        }
      ],
      "name": "updateUserReputationEmailConfirmation",
      "outputs": [],
      "payable": false,
      "stateMutability": "nonpayable",
      "type": "function"
    },
    {
      "constant": true,
      "inputs": [
        {
          "name": "",
          "type": "uint256"
        }
      ],
      "name": "userIndex",
      "outputs": [
        {
          "name": "",
          "type": "address"
        }
      ],
      "payable": false,
      "stateMutability": "view",
      "type": "function"
    },
    {
      "constant": true,
      "inputs": [
        {
          "name": "_index",
          "type": "uint256"
        }
      ],
      "name": "getManagerAtIndex",
      "outputs": [
        {
          "name": "",
          "type": "address"
        },
        {
          "name": "",
          "type": "string"
        },
        {
          "name": "",
          "type": "string"
        },
        {
          "name": "",
          "type": "uint256"
        }
      ],
      "payable": false,
      "stateMutability": "view",
      "type": "function"
    },
    {
      "constant": true,
      "inputs": [
        {
          "name": "_addr",
          "type": "address"
        }
      ],
      "name": "getManagerPublic",
      "outputs": [
        {
          "name": "",
          "type": "address"
        },
        {
          "name": "",
          "type": "string"
        },
        {
          "name": "",
          "type": "uint256"
        }
      ],
      "payable": false,
      "stateMutability": "view",
      "type": "function"
    },
    {
      "constant": true,
      "inputs": [],
      "name": "managerRegistrationFeeTokens",
      "outputs": [
        {
          "name": "",
          "type": "uint256"
        }
      ],
      "payable": false,
      "stateMutability": "view",
      "type": "function"
    },
    {
      "constant": true,
      "inputs": [],
      "name": "referralBonus",
      "outputs": [
        {
          "name": "",
          "type": "uint256"
        }
      ],
      "payable": false,
      "stateMutability": "view",
      "type": "function"
    },
    {
      "constant": true,
      "inputs": [],
      "name": "getManagersCount",
      "outputs": [
        {
          "name": "",
          "type": "uint256"
        }
      ],
      "payable": false,
      "stateMutability": "view",
      "type": "function"
    },
    {
      "constant": false,
      "inputs": [
        {
          "name": "_amount",
          "type": "uint256"
        }
      ],
      "name": "setUpVote",
      "outputs": [],
      "payable": false,
      "stateMutability": "nonpayable",
      "type": "function"
    },
    {
      "constant": false,
      "inputs": [
        {
          "name": "_addr",
          "type": "address"
        }
      ],
      "name": "downVoteUser",
      "outputs": [],
      "payable": false,
      "stateMutability": "nonpayable",
      "type": "function"
    },
    {
      "constant": false,
      "inputs": [
        {
          "name": "_addr",
          "type": "address"
        }
      ],
      "name": "updateUserReputationPhone",
      "outputs": [],
      "payable": false,
      "stateMutability": "nonpayable",
      "type": "function"
    },
    {
      "constant": false,
      "inputs": [
        {
          "name": "_amount",
          "type": "uint256"
        }
      ],
      "name": "setEmailConfirmationPoints",
      "outputs": [],
      "payable": false,
      "stateMutability": "nonpayable",
      "type": "function"
    },
    {
      "constant": false,
      "inputs": [
        {
          "name": "_fee",
          "type": "uint256"
        }
      ],
      "name": "setManagerRegistrationFee",
      "outputs": [],
      "payable": false,
      "stateMutability": "nonpayable",
      "type": "function"
    },
    {
      "constant": true,
      "inputs": [],
      "name": "registrationBonus",
      "outputs": [
        {
          "name": "",
          "type": "uint256"
        }
      ],
      "payable": false,
      "stateMutability": "view",
      "type": "function"
    },
    {
      "constant": true,
      "inputs": [
        {
          "name": "_manager",
          "type": "address"
        }
      ],
      "name": "getWhitelistStatus",
      "outputs": [
        {
          "name": "",
          "type": "bool"
        }
      ],
      "payable": false,
      "stateMutability": "view",
      "type": "function"
    },
    {
      "constant": true,
      "inputs": [
        {
          "name": "_tokenOwner",
          "type": "address"
        },
        {
          "name": "_spender",
          "type": "address"
        }
      ],
      "name": "allowance",
      "outputs": [
        {
          "name": "remaining",
          "type": "uint256"
        }
      ],
      "payable": false,
      "stateMutability": "view",
      "type": "function"
    },
    {
      "constant": false,
      "inputs": [
        {
          "name": "_manager",
          "type": "address"
        }
      ],
      "name": "addToWhitelist",
      "outputs": [],
      "payable": false,
      "stateMutability": "nonpayable",
      "type": "function"
    },
    {
      "constant": false,
      "inputs": [
        {
          "name": "_addr",
          "type": "address"
        }
      ],
      "name": "downVoteManager",
      "outputs": [],
      "payable": false,
      "stateMutability": "nonpayable",
      "type": "function"
    },
    {
      "constant": true,
      "inputs": [],
      "name": "voteFeeTokens",
      "outputs": [
        {
          "name": "",
          "type": "uint256"
        }
      ],
      "payable": false,
      "stateMutability": "view",
      "type": "function"
    },
    {
      "constant": true,
      "inputs": [],
      "name": "upVote",
      "outputs": [
        {
          "name": "",
          "type": "uint256"
        }
      ],
      "payable": false,
      "stateMutability": "view",
      "type": "function"
    },
    {
      "constant": false,
      "inputs": [
        {
          "name": "_user",
          "type": "address"
        },
        {
          "name": "_newAddress",
          "type": "address"
        }
      ],
      "name": "changeAddress",
      "outputs": [],
      "payable": false,
      "stateMutability": "nonpayable",
      "type": "function"
    },
    {
      "constant": true,
      "inputs": [
        {
          "name": "_index",
          "type": "uint256"
        }
      ],
      "name": "getUserPublic",
      "outputs": [
        {
          "name": "",
          "type": "address"
        },
        {
          "name": "",
          "type": "string"
        },
        {
          "name": "",
          "type": "uint256"
        }
      ],
      "payable": false,
      "stateMutability": "view",
      "type": "function"
    },
    {
      "constant": false,
      "inputs": [
        {
          "name": "_newOwner",
          "type": "address"
        }
      ],
      "name": "transferOwnership",
      "outputs": [],
      "payable": false,
      "stateMutability": "nonpayable",
      "type": "function"
    },
    {
      "constant": true,
      "inputs": [
        {
          "name": "_addr",
          "type": "address"
        }
      ],
      "name": "existsUser",
      "outputs": [
        {
          "name": "isIndexed",
          "type": "bool"
        }
      ],
      "payable": false,
      "stateMutability": "view",
      "type": "function"
    },
    {
      "constant": true,
      "inputs": [],
      "name": "managerApprovalFeeTokens",
      "outputs": [
        {
          "name": "",
          "type": "uint256"
        }
      ],
      "payable": false,
      "stateMutability": "view",
      "type": "function"
    },
    {
      "constant": true,
      "inputs": [
        {
          "name": "_index",
          "type": "uint256"
        },
        {
          "name": "_ref",
          "type": "address"
        }
      ],
      "name": "getRefUserAtIndex",
      "outputs": [
        {
          "name": "",
          "type": "address"
        }
      ],
      "payable": false,
      "stateMutability": "view",
      "type": "function"
    },
    {
      "constant": true,
      "inputs": [
        {
          "name": "",
          "type": "address"
        }
      ],
      "name": "managers",
      "outputs": [
        {
          "name": "index",
          "type": "uint256"
        },
        {
          "name": "_hash",
          "type": "string"
        },
        {
          "name": "reputationPoints",
          "type": "uint256"
        },
        {
          "name": "publicHash",
          "type": "string"
        }
      ],
      "payable": false,
      "stateMutability": "view",
      "type": "function"
    },
    {
      "constant": true,
      "inputs": [
        {
          "name": "_index",
          "type": "uint256"
        }
      ],
      "name": "getUserAtIndex",
      "outputs": [
        {
          "name": "",
          "type": "string"
        },
        {
          "name": "",
          "type": "uint8"
        },
        {
          "name": "",
          "type": "address"
        },
        {
          "name": "",
          "type": "bool"
        },
        {
          "name": "",
          "type": "uint256"
        },
        {
          "name": "",
          "type": "address"
        }
      ],
      "payable": false,
      "stateMutability": "view",
      "type": "function"
    },
    {
      "inputs": [],
      "payable": false,
      "stateMutability": "nonpayable",
      "type": "constructor"
    },
    {
      "payable": true,
      "stateMutability": "payable",
      "type": "fallback"
    },
    {
      "anonymous": false,
      "inputs": [
        {
          "indexed": true,
          "name": "_buyer",
          "type": "address"
        },
        {
          "indexed": false,
          "name": "tokens",
          "type": "uint256"
        }
      ],
      "name": "Burn",
      "type": "event"
    },
    {
      "anonymous": false,
      "inputs": [
        {
          "indexed": true,
          "name": "_addr",
          "type": "address"
        },
        {
          "indexed": false,
          "name": "_index",
          "type": "uint256"
        }
      ],
      "name": "NewUser",
      "type": "event"
    },
    {
      "anonymous": false,
      "inputs": [
        {
          "indexed": true,
          "name": "_addr",
          "type": "address"
        },
        {
          "indexed": false,
          "name": "_index",
          "type": "uint256"
        }
      ],
      "name": "UpdateUser",
      "type": "event"
    },
    {
      "anonymous": false,
      "inputs": [
        {
          "indexed": true,
          "name": "_addr",
          "type": "address"
        },
        {
          "indexed": false,
          "name": "_index",
          "type": "uint256"
        }
      ],
      "name": "DeleteUser",
      "type": "event"
    },
    {
      "anonymous": false,
      "inputs": [
        {
          "indexed": true,
          "name": "_addr",
          "type": "address"
        },
        {
          "indexed": false,
          "name": "_index",
          "type": "uint256"
        }
      ],
      "name": "NewManager",
      "type": "event"
    },
    {
      "anonymous": false,
      "inputs": [
        {
          "indexed": true,
          "name": "_addr",
          "type": "address"
        },
        {
          "indexed": false,
          "name": "_index",
          "type": "uint256"
        }
      ],
      "name": "UpdateManager",
      "type": "event"
    },
    {
      "anonymous": false,
      "inputs": [
        {
          "indexed": true,
          "name": "_addr",
          "type": "address"
        },
        {
          "indexed": false,
          "name": "_index",
          "type": "uint256"
        }
      ],
      "name": "DeleteManager",
      "type": "event"
    },
    {
      "anonymous": false,
      "inputs": [
        {
          "indexed": true,
          "name": "_addr",
          "type": "address"
        },
        {
          "indexed": false,
          "name": "_index",
          "type": "uint256"
        }
      ],
      "name": "NewRef",
      "type": "event"
    },
    {
      "anonymous": false,
      "inputs": [
        {
          "indexed": true,
          "name": "_addr",
          "type": "address"
        },
        {
          "indexed": false,
          "name": "_index",
          "type": "uint256"
        }
      ],
      "name": "DeleteRef",
      "type": "event"
    },
    {
      "anonymous": false,
      "inputs": [
        {
          "indexed": true,
          "name": "_addr",
          "type": "address"
        },
        {
          "indexed": false,
          "name": "_index",
          "type": "uint256"
        }
      ],
      "name": "UpdateRef",
      "type": "event"
    },
    {
      "anonymous": false,
      "inputs": [
        {
          "indexed": true,
          "name": "_addr",
          "type": "address"
        },
        {
          "indexed": false,
          "name": "_index",
          "type": "uint256"
        },
        {
          "indexed": false,
          "name": "_ref",
          "type": "address"
        }
      ],
      "name": "NewReferred",
      "type": "event"
    },
    {
      "anonymous": false,
      "inputs": [],
      "name": "Pause",
      "type": "event"
    },
    {
      "anonymous": false,
      "inputs": [],
      "name": "Unpause",
      "type": "event"
    },
    {
      "anonymous": false,
      "inputs": [
        {
          "indexed": true,
          "name": "previousOwner",
          "type": "address"
        },
        {
          "indexed": true,
          "name": "newOwner",
          "type": "address"
        }
      ],
      "name": "OwnershipTransferred",
      "type": "event"
    },
    {
      "anonymous": false,
      "inputs": [
        {
          "indexed": true,
          "name": "from",
          "type": "address"
        },
        {
          "indexed": true,
          "name": "to",
          "type": "address"
        },
        {
          "indexed": false,
          "name": "value",
          "type": "uint256"
        }
      ],
      "name": "Transfer",
      "type": "event"
    },
    {
      "anonymous": false,
      "inputs": [
        {
          "indexed": true,
          "name": "owner",
          "type": "address"
        },
        {
          "indexed": true,
          "name": "spender",
          "type": "address"
        },
        {
          "indexed": false,
          "name": "value",
          "type": "uint256"
        }
      ],
      "name": "Approval",
      "type": "event"
    },
    {
      "constant": false,
      "inputs": [
        {
          "name": "_rate",
          "type": "uint256"
        }
      ],
      "name": "setRate",
      "outputs": [],
      "payable": false,
      "stateMutability": "nonpayable",
      "type": "function"
    },
    {
      "constant": true,
      "inputs": [],
      "name": "balance",
      "outputs": [
        {
          "name": "",
          "type": "uint256"
        }
      ],
      "payable": false,
      "stateMutability": "view",
      "type": "function"
    },
    {
      "constant": false,
      "inputs": [],
      "name": "withdraw",
      "outputs": [],
      "payable": false,
      "stateMutability": "nonpayable",
      "type": "function"
    },
    {
      "constant": false,
      "inputs": [
        {
          "name": "_tokens",
          "type": "uint256"
        }
      ],
      "name": "setTeamTokens",
      "outputs": [],
      "payable": false,
      "stateMutability": "nonpayable",
      "type": "function"
    },
    {
      "constant": false,
      "inputs": [
        {
          "name": "_amount",
          "type": "uint256"
        }
      ],
      "name": "burn",
      "outputs": [],
      "payable": false,
      "stateMutability": "nonpayable",
      "type": "function"
    }
  ],
  "bytecode": "0x6080604052683635c9adc5dea0000060065568056bc75e2d631000006007556000196008819055600a6009819055808055600b819055600c556001600d55600e819055670de0b6b3a7640000600f55674563918244f4000060105569021e19e0c9bab2400000601155690a968163f0a57b400000601255678ac7230489e8000060135560148190556015805460ff19908116909155601d80549091169055601e8190556021805461ff00191690556022556103e86023553480156100c257600080fd5b5060038054600160a060020a031916331790557f4944460000000000000000000000000000000000000000000000000000000000601f557f6964656e7469466f726d546f6b656e00000000000000000000000000000000006020556021805460ff19166012179055615967806200013a6000396000f3006080604052600436106104815763ffffffff7c010000000000000000000000000000000000000000000000000000000060003504166301f6a274811461053857806303a69611146105f157806305850cc3146106185780630592d9f5146106ba578063095ea7b3146106d457806310814c37146106f857806310e8b22d14610729578063134f35c2146107ce5780631428a02e146107ef578063164d065c1461080757806318160ddd1461082e5780631824fe06146108435780631af29f35146108585780631ccb5693146108fe5780631e04ff221461091f5780631f34563c1461093457806323b872dd146109cb5780632c4e722e146109f5578063313ce56714610a0a57806334fcf43714610a355780633ccfd60b14610a4d5780633d58406314610a625780633eaaf86b14610b685780633f0d11c114610b7d5780633f4ba83a14610b925780634024389e14610ba7578063416ae76814610bd557806342966c6814610c5e5780634427673314610c7657806346a1bf4014610cbb5780634a791fc614610cd057806354788f9b14610d67578063556ec0ff14610d88578063571d1b9114610d9d5780635c60f22614610db55780635c975abb14610dd65780636522094614610deb5780636901f66814610e035780636b5caec414610e185780636b8d144414610e395780636c02a93114610e5a5780636f77926b14610e6f5780637003e8cc14610f4857806370a0823114610f6057806371a146ba14610f8157806375c6c6da14610f9957806376cf056114610fba5780637bf78b1714610fcf5780637f5984bb14610ff05780637f9893461461100857806382e32348146110925780638456cb59146110b3578063845b861c146110c85780638524c372146110e057806388eaa8e0146111015780638ab1d681146111195780638da5cb5b1461113a5780638e6ddf3b1461114f5780638f09c2f81461116757806395d89b4114611188578063960f84561461119d57806396799760146111b5578063990892d4146111d657806399f0a573146111f15780639a037aa0146112125780639c4a5a281461122a5780639fda2f9314611291578063a87430ba146112f8578063a9059cbb14611486578063ad4f1de1146114aa578063ad60b64b146114c2578063b5cb15f7146114d7578063b6820887146114ec578063b69ef8a81461150d578063c37dfd6e14611522578063c3db041a1461153a578063c4224e1314611610578063cd6af74b14611631578063ce7842f514611646578063ceeabbf61461165b578063cf56619b14611670578063cf625bc114611688578063d4063e71146107ce578063d4d0c6de146116a9578063d754dd51146116c1578063d85f91a7146116d9578063d9ba32fc146116ee578063dd62ed3e1461170f578063e43252d714611736578063e5c6e0c414611757578063e890f09314611778578063eed7c1281461178d578063efe08a7d146117a2578063f0e3533b146117c9578063f2fde38b146117e1578063f409e87d14611802578063f79269c414611823578063fda8aae514611838578063fdff9b4d1461185c578063ffcc7bbf14611929575b60215460009081908190610100900460ff161561049d57600080fd5b6021805461ff00191661010017905534925033915081158015906104cf5750600354600160a060020a03838116911614155b15156104da57600080fd5b8215156104e657600080fd5b6022546023546104fd90859063ffffffff611a1216565b111561050857600080fd5b60235461051c90849063ffffffff611a1216565b90506105288282611a4b565b50506021805461ff001916905550005b34801561054457600080fd5b5060408051602060046024803582810135601f81018590048502860185019096528585526105dd958335600160a060020a031695369560449491939091019190819084018382808284375050604080516020601f89358b018035918201839004830284018301909452808352979a999881019791965091820194509250829150840183828082843750949750611b099650505050505050565b604080519115158252519081900360200190f35b3480156105fd57600080fd5b506105dd600160a060020a036004351660ff60243516611bd6565b34801561062457600080fd5b506040805160206004803580820135601f81018490048402850184019095528484526105dd94369492936024939284019190819084018382808284375050604080516020601f89358b018035918201839004830284018301909452808352979a99988101979196509182019450925082915084018382808284375094975050509235600160a060020a03169350611c5892505050565b3480156106c657600080fd5b506106d2600435611ecd565b005b3480156106e057600080fd5b506105dd600160a060020a0360043516602435611f06565b34801561070457600080fd5b5061070d611f6c565b60408051600160a060020a039092168252519081900360200190f35b34801561073557600080fd5b5060408051602060046024803582810135601f81018590048502860185019096528585526105dd958335600160a060020a031695369560449491939091019190819084018382808284375050604080516020601f89358b018035918201839004830284018301909452808352979a999881019791965091820194509250829150840183828082843750949750611f7b9650505050505050565b3480156107da57600080fd5b506106d2600160a060020a0360043516612046565b3480156107fb57600080fd5b506106d2600435612110565b34801561081357600080fd5b5061081c612149565b60408051918252519081900360200190f35b34801561083a57600080fd5b5061081c61214f565b34801561084f57600080fd5b5061081c612156565b34801561086457600080fd5b5061087060043561215c565b60408051600160a060020a0385168152908101829052606060208083018281528551928401929092528451608084019186019080838360005b838110156108c15781810151838201526020016108a9565b50505050905090810190601f1680156108ee5780820380516001836020036101000a031916815260200191505b5094505050505060405180910390f35b34801561090a57600080fd5b506105dd600160a060020a03600435166122ae565b34801561092b57600080fd5b506105dd6123ff565b34801561094057600080fd5b506040805160206004803580820135601f81018490048402850184019095528484526105dd94369492936024939284019190819084018382808284375050604080516020601f89358b018035918201839004830284018301909452808352979a9998810197919650918201945092508291508401838280828437509497506124e09650505050505050565b3480156109d757600080fd5b506105dd600160a060020a0360043581169060243516604435612507565b348015610a0157600080fd5b5061081c612679565b348015610a1657600080fd5b50610a1f61267f565b6040805160ff9092168252519081900360200190f35b348015610a4157600080fd5b506106d2600435612688565b348015610a5957600080fd5b506106d26126c1565b348015610a6e57600080fd5b50610a83600160a060020a0360043516612715565b604051808060200180602001848152602001838103835286818151815260200191508051906020019080838360005b83811015610aca578181015183820152602001610ab2565b50505050905090810190601f168015610af75780820380516001836020036101000a031916815260200191505b50838103825285518152855160209182019187019080838360005b83811015610b2a578181015183820152602001610b12565b50505050905090810190601f168015610b575780820380516001836020036101000a031916815260200191505b509550505050505060405180910390f35b348015610b7457600080fd5b5061081c6128f2565b348015610b8957600080fd5b5061081c6128f8565b348015610b9e57600080fd5b506106d26128fe565b348015610bb357600080fd5b506105dd600160a060020a0360043581169060ff60243516906044351661295b565b348015610be157600080fd5b50610bf6600160a060020a0360043516612b1e565b60405180846002811115610c0657fe5b60ff1681526020018060200183600160a060020a0316600160a060020a0316815260200182810382528481815181526020019150805190602001908083836000838110156108c15781810151838201526020016108a9565b348015610c6a57600080fd5b506106d2600435612c74565b348015610c8257600080fd5b50610c97600160a060020a0360043516612cea565b60405180826003811115610ca757fe5b60ff16815260200191505060405180910390f35b348015610cc757600080fd5b5061081c612d0c565b348015610cdc57600080fd5b506040805160206004803580820135601f81018490048402850184019095528484526106d294369492936024939284019190819084018382808284375050604080516020601f89358b018035918201839004830284018301909452808352979a999881019791965091820194509250829150840183828082843750949750612d129650505050505050565b348015610d7357600080fd5b50610870600160a060020a0360043516612f5f565b348015610d9457600080fd5b5061081c613032565b348015610da957600080fd5b506106d2600435613038565b348015610dc157600080fd5b506105dd600160a060020a0360043516613071565b348015610de257600080fd5b506105dd6130a2565b348015610df757600080fd5b506106d26004356130ab565b348015610e0f57600080fd5b506105dd6130e4565b348015610e2457600080fd5b506106d2600160a060020a03600435166130f5565b348015610e4557600080fd5b506106d2600160a060020a036004351661312e565b348015610e6657600080fd5b5061081c6131d1565b348015610e7b57600080fd5b50610e90600160a060020a03600435166131d7565b6040518080602001866002811115610ea457fe5b60ff16815260200185600160a060020a0316600160a060020a0316815260200184151515158152602001838152602001828103825287818151815260200191508051906020019080838360005b83811015610f09578181015183820152602001610ef1565b50505050905090810190601f168015610f365780820380516001836020036101000a031916815260200191505b50965050505050505060405180910390f35b348015610f5457600080fd5b50610bf6600435613390565b348015610f6c57600080fd5b5061081c600160a060020a036004351661356b565b348015610f8d57600080fd5b506106d2600435613586565b348015610fa557600080fd5b5061081c600160a060020a03600435166135ed565b348015610fc657600080fd5b5061081c6135ff565b348015610fdb57600080fd5b506106d2600160a060020a0360043516613605565b348015610ffc57600080fd5b506106d26004356136ab565b6040805160206004803580820135601f81018490048402850184019095528484526106d294369492936024939284019190819084018382808284375050604080516020601f89358b018035918201839004830284018301909452808352979a9998810197919650918201945092508291508401838280828437509497506136e49650505050505050565b34801561109e57600080fd5b506106d2600160a060020a036004351661392c565b3480156110bf57600080fd5b506106d26139cf565b3480156110d457600080fd5b5061070d600435613a2e565b3480156110ec57600080fd5b506105dd600160a060020a0360043516613a56565b34801561110d57600080fd5b506106d2600435613aae565b34801561112557600080fd5b506106d2600160a060020a0360043516613ae7565b34801561114657600080fd5b5061070d613be8565b34801561115b57600080fd5b506106d2600435613bf7565b34801561117357600080fd5b5061081c600160a060020a0360043516613c30565b34801561119457600080fd5b5061081c613c68565b3480156111a957600080fd5b5061070d600435613c6e565b3480156111c157600080fd5b5061081c600160a060020a0360043516613c7c565b3480156111e257600080fd5b506105dd60ff60043516613dc7565b3480156111fd57600080fd5b506105dd600160a060020a0360043516613dfa565b34801561121e57600080fd5b506106d2600435613e36565b34801561123657600080fd5b5060408051602060046024803582810135601f81018590048502860185019096528585526105dd958335600160a060020a0316953695604494919390910191908190840183828082843750949750613e6f9650505050505050565b34801561129d57600080fd5b5060408051602060046024803582810135601f81018590048502860185019096528585526105dd958335600160a060020a0316953695604494919390910191908190840183828082843750949750613f299650505050505050565b34801561130457600080fd5b50611319600160a060020a036004351661400a565b60408051888152908101869052600160a060020a0385166060820152831515608082015260e06020808301828152895192840192909252885160a084019160c08501916101008601918c019080838360005b8381101561138357818101518382015260200161136b565b50505050905090810190601f1680156113b05780820380516001836020036101000a031916815260200191505b50848103835286518152865160209182019188019080838360005b838110156113e35781810151838201526020016113cb565b50505050905090810190601f1680156114105780820380516001836020036101000a031916815260200191505b50848103825285518152855160209182019187019080838360005b8381101561144357818101518382015260200161142b565b50505050905090810190601f1680156114705780820380516001836020036101000a031916815260200191505b509a505050505050505050505060405180910390f35b34801561149257600080fd5b506105dd600160a060020a03600435166024356141f4565b3480156114b657600080fd5b506106d26004356142e3565b3480156114ce57600080fd5b5061081c61431c565b3480156114e357600080fd5b5061081c614322565b3480156114f857600080fd5b506106d2600160a060020a0360043516614328565b34801561151957600080fd5b5061081c6143ce565b34801561152e57600080fd5b5061070d6004356143ee565b34801561154657600080fd5b506115526004356143fc565b6040518085600160a060020a0316600160a060020a031681526020018060200180602001848152602001838103835286818151815260200191508051906020019080838360005b838110156115b1578181015183820152602001611599565b50505050905090810190601f1680156115de5780820380516001836020036101000a031916815260200191505b508381038252855181528551602091820191870190808383600083811015610f09578181015183820152602001610ef1565b34801561161c57600080fd5b50610870600160a060020a0360043516614677565b34801561163d57600080fd5b5061081c61475c565b34801561165257600080fd5b5061081c614762565b34801561166757600080fd5b5061081c614768565b34801561167c57600080fd5b506106d260043561476e565b34801561169457600080fd5b506106d2600160a060020a03600435166147a7565b3480156116b557600080fd5b506106d260043561485c565b3480156116cd57600080fd5b506106d2600435614895565b3480156116e557600080fd5b5061081c6148ce565b3480156116fa57600080fd5b506105dd600160a060020a03600435166148d4565b34801561171b57600080fd5b5061081c600160a060020a036004358116906024351661494f565b34801561174257600080fd5b506106d2600160a060020a036004351661497a565b34801561176357600080fd5b506106d2600160a060020a03600435166149f8565b34801561178457600080fd5b5061081c614aad565b34801561179957600080fd5b5061081c614ab3565b3480156117ae57600080fd5b506106d2600160a060020a0360043581169060243516614ab9565b3480156117d557600080fd5b50610870600435614c9c565b3480156117ed57600080fd5b506106d2600160a060020a0360043516614daf565b34801561180e57600080fd5b506105dd600160a060020a0360043516614e37565b34801561182f57600080fd5b5061081c614e73565b34801561184457600080fd5b5061070d600435600160a060020a0360243516614e79565b34801561186857600080fd5b5061187d600160a060020a0360043516614f29565b604051808581526020018060200184815260200180602001838103835286818151815260200191508051906020019080838360005b838110156118ca5781810151838201526020016118b2565b50505050905090810190601f1680156118f75780820380516001836020036101000a031916815260200191505b508381038252845181528451602091820191860190808383600083811015610f09578181015183820152602001610ef1565b34801561193557600080fd5b50611941600435615068565b604051808060200187600281111561195557fe5b60ff16815260200186600160a060020a0316600160a060020a031681526020018515151515815260200184815260200183600160a060020a0316600160a060020a03168152602001828103825288818151815260200191508051906020019080838360005b838110156119d25781810151838201526020016119ba565b50505050905090810190601f1680156119ff5780820380516001836020036101000a031916815260200191505b5097505050505050505060405180910390f35b600080831515611a255760009150611a44565b50828202828482811515611a3557fe5b0414611a4057600080fd5b8091505b5092915050565b602254600254611a61908363ffffffff61535a16565b1115611a6c57600080fd5b600160a060020a038216600090815260208190526040902054611a95908263ffffffff61535a16565b600160a060020a038316600090815260208190526040902055600254611ac1908263ffffffff61535a16565b600255604080518281529051600160a060020a038416916000917fddf252ad1be2c89b69c2b068fc378daa952ba7f163c4a11628f55a4df523b3ef9181900360200190a35050565b60008333600160a060020a03821614611b2157600080fd5b611b2a33613a56565b1515600114611b3857600080fd5b3360009081526018602090815260409091208551611b5e9260019092019187019061585e565b503360009081526018602090815260409091208451611b859260039092019186019061585e565b503360008181526018602090815260409182902054825190815291517fc297b919791d4a5d47a04d139cb0ebd01d79816c869255d0af00a22240dc1c9e9281900390910190a2506001949350505050565b60006003803360009081526005602052604090205460ff166003811115611bf957fe5b1480611c0f5750600354600160a060020a031633145b1515611c1a57600080fd5b600160a060020a0384166000908152600560205260409020805484919060ff19166001836003811115611c4957fe5b02179055506001949350505050565b601554600090819060ff1615611c6d57600080fd5b611c7683613dfa565b1515600114611c8457600080fd5b5033611c8f81614e37565b15611c9957600080fd5b3360009081526016602090815260408083206004018054600160a060020a03808916600160a060020a03199283161790925560178054600181810183557fc624b66cc0138b8fabc209247f72d758e1cf3343756d543badbf24212bed8c15909101805494891694909316841790925554918552919093206000199390930183558751611d2b939091019188019061585e565b50600160a060020a03811660009081526016602090815260409091208551611d5b9260059092019187019061585e565b50600160a060020a03818116600081815260166020818152604080842060048101805474ff000000000000000000000000000000000000000019168155600282018054600181018255818852858820868204018054601f9092166101000a60ff0219909116905554978b168087526007830185528387206000199099019098558686529383528354600160a060020a031916909617909255600385019290925592548351908152925191927fd75b88a9203b17f9356ca063241beac16a25d5a46f485b378c2c229e864bdd4d929081900390910190a2600160a060020a0383166000818152601a60209081526040808320600181810180549182018155855283852081018054600160a060020a031916339081179091558086526002909201845282852055601683529281902054815190815291820193909352825191927feaadc669b21860b5f096d43442b637505b73bf8da42851c8e6ddf8cf4cd71e4092918290030190a2506001949350505050565b600354600160a060020a03163314611ee457600080fd5b600081118015611ef657506014548111155b1515611f0157600080fd5b601255565b336000818152600160209081526040808320600160a060020a038716808552908352818420869055815186815291519394909390927f8c5be1e5ebec7d5bd14f71427d1e84f3dd0314c0f7b2291e5b200ac8c7c3b925928290030190a350600192915050565b600454600160a060020a031681565b60008333600160a060020a03821614611f9357600080fd5b60155460ff1615611fa357600080fd5b611fac33614e37565b1515600114611fba57600080fd5b3360009081526016602090815260409091208551611fe09260019092019187019061585e565b5033600090815260166020908152604090912084516120079260059092019186019061585e565b5033600081815260166020908152604091829020548251908152915160008051602061591c8339815191529281900390910190a2506001949350505050565b60018133600160a060020a038216148061206a5750600354600160a060020a031633145b8061209c575081600381111561207c57fe5b3360009081526005602052604090205460ff16600381111561209a57fe5b145b15156120a757600080fd5b6120b083614e37565b15156001146120be57600080fd5b600b54600160a060020a0384166000908152601660205260409020600301546120ec9163ffffffff61535a16565b600160a060020a039093166000908152601660205260409020600301929092555050565b600354600160a060020a0316331461212757600080fd5b60008111801561213957506008548111155b151561214457600080fd5b600655565b600b5481565b6002545b90565b60095481565b601554600090606090829060ff161561217457600080fd5b601980548590811061218257fe5b600091825260208220015460198054600160a060020a0390921692601892909190889081106121ad57fe5b6000918252602080832090910154600160a060020a03168352820192909252604001812060198054600390920192601892909190899081106121eb57fe5b6000918252602080832090910154600160a060020a03168352828101939093526040918201902060029081015484548351601f6000196001841615610100020190921693909304908101859004850283018501909352828252929091849183018282801561229a5780601f1061226f5761010080835404028352916020019161229a565b820191906000526020600020905b81548152906001019060200180831161227d57829003601f168201915b505050505091509250925092509193909250565b600080808333600160a060020a038216146122c857600080fd5b6122d133613dfa565b15156001146122df57600080fd5b336000908152601a6020526040902054601754601b80549295509160001990910190811061230957fe5b600091825260209091200154601b8054600160a060020a03909216935083918590811061233257fe5b60009182526020808320919091018054600160a060020a031916600160a060020a039485161790559184168152601a90915260409020839055601b80549061237e9060001983016158d8565b5060408051848152905133917fd54595d1c931442a55d4a6787dfe755540feb1888e7019f47b1a5e036e5b1ae2919081900360200190a2604080518481529051600160a060020a038416917ff62dd43e5fc58325ca71e23c993b1a8235b2ac3082f89bd739b8106396336d92919081900360200190a2506001949350505050565b601554600090819060ff161561241457600080fd5b503361241f81614e37565b151560011461242d57600080fd5b61243681613dfa565b1561244057600080fd5b601b80546001810182557f3ad8aa4f87544323a9d1e5dd902f40c356527a7955687113db5f9a85ad579dc1018054600160a060020a031916600160a060020a03841690811790915590546000828152601a602090815260409182902060001990930192839055815192835290517fe9eee4b6f0944ea3221f484d3cafd6725325d0e10e80d8a0ce605e03204a93929281900390910190a2600191505b5090565b60155460009060ff16156124f357600080fd5b6124fe33848461536c565b50600192915050565b6000600160a060020a038316151561251e57600080fd5b600160a060020a03841660009081526020819052604090205482111561254357600080fd5b600160a060020a038416600090815260016020908152604080832033845290915290205482111561257357600080fd5b600160a060020a03841660009081526020819052604090205461259c908363ffffffff6154fe16565b600160a060020a0385166000908152602081815260408083209390935560018152828220338352905220546125d7908363ffffffff6154fe16565b600160a060020a038086166000908152600160209081526040808320338452825280832094909455918616815290819052205461261a908363ffffffff61535a16565b600160a060020a038085166000818152602081815260409182902094909455805186815290519193928816927fddf252ad1be2c89b69c2b068fc378daa952ba7f163c4a11628f55a4df523b3ef92918290030190a35060019392505050565b60235481565b60215460ff1681565b600354600160a060020a0316331461269f57600080fd5b6000811180156126b157506022548111155b15156126bc57600080fd5b602355565b600354600160a060020a031633146126d857600080fd5b600354604051600160a060020a0390911690303180156108fc02916000818181858888f19350505050158015612712573d6000803e3d6000fd5b50565b606080600060018433600160a060020a038216148061273e5750600354600160a060020a031633145b80612770575081600381111561275057fe5b3360009081526005602052604090205460ff16600381111561276e57fe5b145b151561277b57600080fd5b60155460ff161561278b57600080fd5b61279486613a56565b15156001146127a257600080fd5b600160a060020a0386166000908152601860209081526040918290206002808201546001808401805487519281161561010002600019011693909304601f810186900486028201860190965285815291946003909301939092859183018282801561284e5780601f106128235761010080835404028352916020019161284e565b820191906000526020600020905b81548152906001019060200180831161283157829003601f168201915b5050855460408051602060026001851615610100026000190190941693909304601f8101849004840282018401909252818152959850879450925084019050828280156128dc5780601f106128b1576101008083540402835291602001916128dc565b820191906000526020600020905b8154815290600101906020018083116128bf57829003601f168201915b5050505050915094509450945050509193909250565b60025481565b60105481565b600354600160a060020a0316331461291557600080fd5b60155460ff16151561292657600080fd5b6015805460ff191690556040517f7805862f689e2f13df9f062ff482ad3ad112aca9e0847911ed832e158c525b3390600090a1565b60006001803360009081526005602052604090205460ff16600381111561297e57fe5b14806129945750600354600160a060020a031633145b151561299f57600080fd5b600160a060020a03851660009081526016602052604090206004015460a060020a900460ff161515612a7b5760018460028111156129d957fe5b1415612a3d576129eb85600654611a6c565b600160a060020a03858116600090815260166020526040902060040154163014612a3d57600160a060020a03808616600090815260166020526040902060040154600754612a3d929190911690611a6c565b600160a060020a0385166000908152601660205260409020600401805474ff0000000000000000000000000000000000000000191660a060020a1790555b600160a060020a03851660009081526016602090815260408220600290810180546001810180835591855293839020928404909201805492938893919260ff601f9092166101000a91820219909216918490811115612ad657fe5b021790555050600160a060020a038086166000908152601660209081526040808320600281015494881684526007019091529020600019909101905560019150509392505050565b601554600090606090829060ff1615612b3657600080fd5b336000818152601c602052604090205460ff161515612b5457600080fd5b612b5d85614e37565b1515600114612b6b57600080fd5b600160a060020a03851660009081526016602090815260408083203384526007810190925290912054600290910180549091908110612ba657fe5b600091825260208083208183040154600160a060020a03891684526016825260409384902060060180548551601f6002610100600185161581026000190190941604818101879004870283018701909852878252909516900a90910460ff16939092899290918491830182828015612c5f5780601f10612c3457610100808354040283529160200191612c5f565b820191906000526020600020905b815481529060010190602001808311612c4257829003601f168201915b50505050509150935093509350509193909250565b600354600160a060020a03163314612c8b57600080fd5b600354600160a060020a0316600090815260208190526040902054612cb6908263ffffffff6154fe16565b600354600160a060020a0316600090815260208190526040902055600254612ce4908263ffffffff6154fe16565b60025550565b600160a060020a03811660009081526005602052604090205460ff165b919050565b601b5490565b601554600090819060ff1615612d2757600080fd5b339150811515612d3657600080fd5b612d3f82614e37565b1515600114612d4d57600080fd5b612d5682613a56565b15612d6057600080fd5b601254601154612d759163ffffffff61535a16565b9050612d818282615513565b60198054600180820183557f944998273e477b495144fb8794c914197f3ccb46be2900f4698fd0ef743c96959091018054600160a060020a031916600160a060020a0386169081179091559154600092835260186020908152604090932060001990910181558651612dfb9391909201919087019061585e565b50600160a060020a03821660009081526018602090815260409091208451612e2b9260039092019186019061585e565b50600160a060020a0382166000908152600560209081526040808320805460ff19166002908117909155601890925282200155612e6782613dfa565b1515612f0157601b8054600181019091557f3ad8aa4f87544323a9d1e5dd902f40c356527a7955687113db5f9a85ad579dc181018054600160a060020a031916600160a060020a0385169081179091556000818152601a60209081526040918290208490558151938452905191927fe9eee4b6f0944ea3221f484d3cafd6725325d0e10e80d8a0ce605e03204a9392929081900390910190a25b600160a060020a03821660008181526018602090815260409182902054825190815291517ff9b5503d775129d84677e5448bfbee5f2d06cd1becca8c59f0175a6e2741fdc29281900390910190a25050601d805460ff191690555050565b600060606000612f6e84614e37565b1515600114612f7c57600080fd5b600160a060020a038416600090815260166020526040902054601780549091908110612fa457fe5b600091825260208083209190910154600160a060020a03878116845260168352604093849020600381015460059091018054865160026101006001841615026000190190921691909104601f8101879004870282018701909752868152929093169492939092849183018282801561229a5780601f1061226f5761010080835404028352916020019161229a565b600a5481565b600354600160a060020a0316331461304f57600080fd5b6000811180156130615750600e548111155b151561306c57600080fd5b600b55565b60008133600160a060020a0382161461308957600080fd5b60155460ff161561309957600080fd5b6124fe836155d3565b60155460ff1681565b600354600160a060020a031633146130c257600080fd5b6000811180156130d45750600e548111155b15156130df57600080fd5b600c55565b600354600160a060020a0316331490565b600354600160a060020a0316331461310c57600080fd5b60048054600160a060020a031916600160a060020a0392909216919091179055565b61313781613a56565b151560011461314557600080fd5b600160a060020a03811633141561315b57600080fd5b60135433600090815260208190526040902054101561317957600080fd5b600d54600160a060020a0382166000908152601860205260409020600201546131a79163ffffffff61535a16565b600160a060020a038216600090815260186020526040902060020155601354612712903390615513565b60205481565b6060600080808060018633600160a060020a03821614806132025750600354600160a060020a031633145b80613234575081600381111561321457fe5b3360009081526005602052604090205460ff16600381111561323257fe5b145b151561323f57600080fd5b60155460ff161561324f57600080fd5b61325888614e37565b151560011461326657600080fd5b600160a060020a0388166000908152601660209081526040808320308452600781019092529091205460028201805460019093019290919081106132a657fe5b600091825260208083208183040154600160a060020a038d8116855260168352604094859020600481015460039091015487548751601f6002610100600185161581026000190190941604818101899004890283018901909a52898252909716900a90930460ff908116969282169560a060020a9092041693909187918301828280156133745780601f1061334957610100808354040283529160200191613374565b820191906000526020600020905b81548152906001019060200180831161335757829003601f168201915b5050505050945096509650965096509650505091939590929450565b601554600090606090829060ff16156133a857600080fd5b336000818152601c602052604090205460ff1615156133c657600080fd5b6133f26017868154811015156133d857fe5b600091825260209091200154600160a060020a0316614e37565b151560011461340057600080fd5b6016600060178781548110151561341357fe5b6000918252602080832090910154600160a060020a031683528201929092526040018120601780546002909201926016929091908990811061345157fe5b6000918252602080832090910154600160a060020a0316835282810193909352604091820181203382526007019092529020548154811061348e57fe5b90600052602060002090602091828204019190069054906101000a900460ff16601660006017888154811015156134c157fe5b6000918252602080832090910154600160a060020a03168352820192909252604001902060178054600690920191889081106134f957fe5b60009182526020918290200154825460408051601f60026000196001861615610100020190941693909304928301859004850281018501909152818152600160a060020a0390921692849190830182828015612c5f5780601f10612c3457610100808354040283529160200191612c5f565b600160a060020a031660009081526020819052604090205490565b600354600160a060020a0316331461359d57600080fd5b6002546135b190600563ffffffff61583b16565b8111156135bd57600080fd5b600354600160a060020a03166000908152602081905260409020819055600254612ce4908263ffffffff61535a16565b601a6020526000908152604090205481565b600f5481565b60018133600160a060020a03821614806136295750600354600160a060020a031633145b8061365b575081600381111561363b57fe5b3360009081526005602052604090205460ff16600381111561365957fe5b145b151561366657600080fd5b61366f83614e37565b151560011461367d57600080fd5b600a54600160a060020a0384166000908152601660205260409020600301546120ec9163ffffffff61535a16565b600354600160a060020a031633146136c257600080fd5b6000811180156136d45750600e548111155b15156136df57600080fd5b600a55565b60155460009060ff16156136f757600080fd5b33151561370357600080fd5b61370c33614e37565b151560011461371a57600080fd5b61372333613a56565b1561372d57600080fd5b601d5460ff161561373d57600080fd5b601054600f546137529163ffffffff61535a16565b601e5490915081111561376457600080fd5b34811461377057600080fd5b601d805460ff191660019081179091556019805480830182557f944998273e477b495144fb8794c914197f3ccb46be2900f4698fd0ef743c9695018054600160a060020a031916339081179091559054600091825260186020908152604090922060001991909101815585516137ed93919091019186019061585e565b5033600090815260186020908152604090912083516138149260039092019185019061585e565b50336000818152600560209081526040808320805460ff1916600290811790915560189092528220015561384790613dfa565b15156138d857601b8054600181019091557f3ad8aa4f87544323a9d1e5dd902f40c356527a7955687113db5f9a85ad579dc181018054600160a060020a031916339081179091556000818152601a60209081526040918290208490558151938452905191927fe9eee4b6f0944ea3221f484d3cafd6725325d0e10e80d8a0ce605e03204a9392929081900390910190a25b3360008181526018602090815260409182902054825190815291517ff9b5503d775129d84677e5448bfbee5f2d06cd1becca8c59f0175a6e2741fdc29281900390910190a25050601d805460ff1916905550565b61393581614e37565b151560011461394357600080fd5b600160a060020a03811633141561395957600080fd5b60135433600090815260208190526040902054101561397757600080fd5b600d54600160a060020a0382166000908152601660205260409020600301546139a59163ffffffff61535a16565b600160a060020a038216600090815260166020526040902060030155601354612712903390615513565b600354600160a060020a031633146139e657600080fd5b60155460ff16156139f657600080fd5b6015805460ff191660011790556040517f6985a02210a168e66602d3235cb6db0e70f92b3ba4d376a33c0f3d9434bff62590600090a1565b601b805482908110613a3c57fe5b600091825260209091200154600160a060020a0316905081565b6019546000901515613a6a57506000612d07565b600160a060020a038216600081815260186020526040902054601980549091908110613a9257fe5b600091825260209091200154600160a060020a03161492915050565b600354600160a060020a03163314613ac557600080fd5b600081118015613ad757506014548111155b1515613ae257600080fd5b601155565b6001803360009081526005602052604090205460ff166003811115613b0857fe5b1480613b1e5750600354600160a060020a031633145b1515613b2957600080fd5b600160a060020a0382166000908152601c6020526040902054829060ff161515613b5257600080fd5b613b5b83613a56565b1515600114613b6957600080fd5b601254600160a060020a038416600090815260208190526040902054613b949163ffffffff61535a16565b600160a060020a038416600090815260208190526040902055601254600254613bc29163ffffffff61535a16565b6002555050600160a060020a03166000908152601c60205260409020805460ff19169055565b600354600160a060020a031681565b600354600160a060020a03163314613c0e57600080fd5b600081118015613c2057506014548111155b1515613c2b57600080fd5b601055565b6000613c3b82613dfa565b1515600114613c4957600080fd5b50600160a060020a03166000908152601a602052604090206001015490565b601f5481565b6019805482908110613a3c57fe5b600080808333600160a060020a03821614613c9657600080fd5b613c9f33613a56565b1515600114613cad57600080fd5b3360009081526018602052604090205460198054919450906000198101908110613cd357fe5b60009182526020909120015460198054600160a060020a039092169350839185908110613cfc57fe5b60009182526020808320919091018054600160a060020a031916600160a060020a0394851617905591841681526018909152604090208390556019805490613d489060001983016158d8565b5060408051848152905133917f9a7645671d17df9d8a56da32f492abc024226a7c752939c4ed5b97d8f703516e919081900360200190a2604080518481529051600160a060020a038416917fc297b919791d4a5d47a04d139cb0ebd01d79816c869255d0af00a22240dc1c9e919081900360200190a250909392505050565b6000816003811115613dd557fe5b3360009081526005602052604090205460ff166003811115613df357fe5b1492915050565b601b546000901515613e0e57506000612d07565b600160a060020a0382166000818152601a6020526040902054601b80549091908110613a9257fe5b600354600160a060020a03163314613e4d57600080fd5b600081118015613e5f57506008548111155b1515613e6a57600080fd5b600755565b60008233600160a060020a0382161480613e935750600354600160a060020a031633145b1515613e9e57600080fd5b60155460ff1615613eae57600080fd5b613eb733614e37565b1515600114613ec557600080fd5b3360009081526016602090815260409091208451613eeb9260059092019186019061585e565b5033600081815260166020908152604091829020548251908152915160008051602061591c8339815191529281900390910190a25060019392505050565b60006002803360009081526005602052604090205460ff166003811115613f4c57fe5b1480613f625750600354600160a060020a031633145b1515613f6d57600080fd5b60155460ff1615613f7d57600080fd5b613f8684614e37565b1515600114613f9457600080fd5b600160a060020a03841660009081526016602090815260409091208451613fc39260069092019186019061585e565b50600160a060020a038416600081815260166020908152604091829020548251908152915160008051602061591c8339815191529281900390910190a25060019392505050565b6016602090815260009182526040918290208054600180830180548651600293821615610100026000190190911692909204601f8101869004860283018601909652858252919492939092908301828280156140a75780601f1061407c576101008083540402835291602001916140a7565b820191906000526020600020905b81548152906001019060200180831161408a57829003601f168201915b505050506003830154600484015460058501805460408051602060026101006001861615026000190190941693909304601f810184900484028201840190925281815296979496600160a060020a038516965060a060020a90940460ff169493929183018282801561415a5780601f1061412f5761010080835404028352916020019161415a565b820191906000526020600020905b81548152906001019060200180831161413d57829003601f168201915b5050505060068301805460408051602060026001851615610100026000190190941693909304601f81018490048402820184019092528181529495949350908301828280156141ea5780601f106141bf576101008083540402835291602001916141ea565b820191906000526020600020905b8154815290600101906020018083116141cd57829003601f168201915b5050505050905087565b6000600160a060020a038316151561420b57600080fd5b33600090815260208190526040902054821180159061422a5750600082115b151561423557600080fd5b33600090815260208190526040902054614255908363ffffffff6154fe16565b3360009081526020819052604080822092909255600160a060020a03851681522054614287908363ffffffff61535a16565b600160a060020a038416600081815260208181526040918290209390935580518581529051919233927fddf252ad1be2c89b69c2b068fc378daa952ba7f163c4a11628f55a4df523b3ef9281900390910190a350600192915050565b600354600160a060020a031633146142fa57600080fd5b60008111801561430c57506014548111155b151561431757600080fd5b601355565b600c5481565b60175490565b60018133600160a060020a038216148061434c5750600354600160a060020a031633145b8061437e575081600381111561435e57fe5b3360009081526005602052604090205460ff16600381111561437c57fe5b145b151561438957600080fd5b61439283614e37565b15156001146143a057600080fd5b600954600160a060020a0384166000908152601660205260409020600301546120ec9163ffffffff61535a16565b600354600090600160a060020a031633146143e857600080fd5b50303190565b6017805482908110613a3c57fe5b6015546000906060908190839060ff161561441657600080fd5b6001803360009081526005602052604090205460ff16600381111561443757fe5b148061444d5750600354600160a060020a031633145b151561445857600080fd5b601980548790811061446657fe5b600091825260208220015460198054600160a060020a03909216926018929091908a90811061449157fe5b9060005260206000200160009054906101000a9004600160a060020a0316600160a060020a0316600160a060020a031681526020019081526020016000206001016018600060198a8154811015156144e557fe5b6000918252602080832090910154600160a060020a031683528201929092526040018120601980546003909201926018929091908c90811061452357fe5b6000918252602080832090910154600160a060020a03168352828101939093526040918201902060029081015485548351601f600019600184161561010002019092169390930490810185900485028301850190935282825292909185918301828280156145d25780601f106145a7576101008083540402835291602001916145d2565b820191906000526020600020905b8154815290600101906020018083116145b557829003601f168201915b5050855460408051602060026001851615610100026000190190941693909304601f8101849004840282018401909252818152959850879450925084019050828280156146605780601f1061463557610100808354040283529160200191614660565b820191906000526020600020905b81548152906001019060200180831161464357829003601f168201915b505050505091509450945094509450509193509193565b601554600090606090829060ff161561468f57600080fd5b61469884613a56565b15156001146146a657600080fd5b600160a060020a0384166000908152601860205260409020546019805490919081106146ce57fe5b6000918252602080832090910154600160a060020a03878116845260188352604093849020600280820154600390920180548751601f600019600184161561010002019092169390930490810187900487028301870190975286825292909316949193909291849183018282801561229a5780601f1061226f5761010080835404028352916020019161229a565b60115481565b60075481565b60195490565b600354600160a060020a0316331461478557600080fd5b6000811180156147975750600e548111155b15156147a257600080fd5b600d55565b6147b081614e37565b15156001146147be57600080fd5b600160a060020a0381163314156147d457600080fd5b600d54600160a060020a0382166000908152601660205260408120600301549091614805919063ffffffff6154fe16565b101561481057600080fd5b60135433600090815260208190526040902054101561482e57600080fd5b600d54600160a060020a0382166000908152601660205260409020600301546139a59163ffffffff6154fe16565b600354600160a060020a0316331461487357600080fd5b6000811180156148855750600e548111155b151561489057600080fd5b600955565b600354600160a060020a031633146148ac57600080fd5b6000811180156148be57506014548111155b15156148c957600080fd5b600f55565b60065481565b60006001803360009081526005602052604090205460ff1660038111156148f757fe5b148061490d5750600354600160a060020a031633145b151561491857600080fd5b61492183613a56565b151560011461492f57600080fd5b5050600160a060020a03166000908152601c602052604090205460ff1690565b600160a060020a03918216600090815260016020908152604080832093909416825291909152205490565b6001803360009081526005602052604090205460ff16600381111561499b57fe5b14806149b15750600354600160a060020a031633145b15156149bc57600080fd5b6149c582613a56565b15156001146149d357600080fd5b50600160a060020a03166000908152601c60205260409020805460ff19166001179055565b614a0181613a56565b1515600114614a0f57600080fd5b600160a060020a038116331415614a2557600080fd5b600d54600160a060020a0382166000908152601860205260408120600201549091614a56919063ffffffff6154fe16565b1015614a6157600080fd5b601354336000908152602081905260409020541015614a7f57600080fd5b600d54600160a060020a0382166000908152601860205260409020600201546131a79163ffffffff6154fe16565b60135481565b600d5481565b8133600160a060020a03821614614acf57600080fd5b614ad883614e37565b1515600114614ae657600080fd5b600160a060020a0382161515614afb57600080fd5b600160a060020a038316600090815260166020908152604091829020600190810180548451600293821615610100026000190190911692909204601f8101849004840283018401909452838252614c4e938693830182828015614b9f5780601f10614b7457610100808354040283529160200191614b9f565b820191906000526020600020905b815481529060010190602001808311614b8257829003601f168201915b50505050600160a060020a0387166000908152601660209081526040918290206005018054835160026001831615610100026000190190921691909104601f810184900484028201840190945283815293509190830182828015614c445780601f10614c1957610100808354040283529160200191614c44565b820191906000526020600020905b815481529060010190602001808311614c2757829003601f168201915b505050505061536c565b614c57336155d3565b81600160a060020a031683600160a060020a03167f8be0079c531659141344cd1fd0a4f28419497f9722a3daafe3b4186f6b6457e060405160405180910390a3505050565b601554600090606090829060ff1615614cb457600080fd5b6017805485908110614cc257fe5b600091825260208220015460178054600160a060020a039092169260169290919088908110614ced57fe5b6000918252602080832090910154600160a060020a0316835282019290925260400181206017805460059092019260169290919089908110614d2b57fe5b6000918252602080832090910154600160a060020a0316835282810193909352604091820190206003015483548251601f60026000196001851615610100020190931692909204918201859004850281018501909352808352909284919083018282801561229a5780601f1061226f5761010080835404028352916020019161229a565b600354600160a060020a03163314614dc657600080fd5b600160a060020a0381161515614ddb57600080fd5b600354604051600160a060020a038084169216907f8be0079c531659141344cd1fd0a4f28419497f9722a3daafe3b4186f6b6457e090600090a360038054600160a060020a031916600160a060020a0392909216919091179055565b6017546000901515614e4b57506000612d07565b600160a060020a038216600081815260166020526040902054601780549091908110613a9257fe5b60125481565b60155460009060ff1615614e8c57600080fd5b6002803360009081526005602052604090205460ff166003811115614ead57fe5b1480614ec35750600354600160a060020a031633145b1515614ece57600080fd5b614ed783613dfa565b1515600114614ee557600080fd5b600160a060020a0383166000908152601a60205260409020600101805485908110614f0c57fe5b600091825260209091200154600160a060020a0316949350505050565b6018602090815260009182526040918290208054600180830180548651600293821615610100026000190190911692909204601f810186900486028301860190965285825291949293909290830182828015614fc65780601f10614f9b57610100808354040283529160200191614fc6565b820191906000526020600020905b815481529060010190602001808311614fa957829003601f168201915b505050506002838101546003850180546040805160206001841615610100026000190190931695909504601f81018390048302860183019091528085529596929592945090919083018282801561505e5780601f106150335761010080835404028352916020019161505e565b820191906000526020600020905b81548152906001019060200180831161504157829003601f168201915b5050505050905084565b601554606090600090819081908190819060ff161561508657600080fd5b6001803360009081526005602052604090205460ff1660038111156150a757fe5b14806150bd5750600354600160a060020a031633145b15156150c857600080fd5b6016600060178a8154811015156150db57fe5b9060005260206000200160009054906101000a9004600160a060020a0316600160a060020a0316600160a060020a031681526020019081526020016000206001016016600060178b81548110151561512f57fe5b6000918252602080832090910154600160a060020a031683528201929092526040018120601780546002909201926016929091908d90811061516d57fe5b6000918252602080832090910154600160a060020a031683528281019390935260409182018120308252600701909252902054815481106151aa57fe5b90600052602060002090602091828204019190069054906101000a900460ff166016600060178c8154811015156151dd57fe5b6000918252602080832090910154600160a060020a039081168452908301939093526040909101812060040154601780549190931692601692918e90811061522157fe5b600091825260208083209190910154600160a060020a031683528201929092526040018120600401546017805460a060020a90920460ff16926016929091908f90811061526a57fe5b6000918252602080832090910154600160a060020a03168352820192909252604001902060030154601780548e9081106152a057fe5b60009182526020918290200154865460408051601f60026000196001861615610100020190941693909304928301859004850281018501909152818152600160a060020a039092169288919083018282801561533d5780601f106153125761010080835404028352916020019161533d565b820191906000526020600020905b81548152906001019060200180831161532057829003601f168201915b505050505095509650965096509650965096505091939550919395565b600082820183811015611a4057600080fd5b61537583614e37565b1561537f57600080fd5b60178054600180820183557fc624b66cc0138b8fabc209247f72d758e1cf3343756d543badbf24212bed8c159091018054600160a060020a031916600160a060020a03871690811790915591546000928352601660209081526040909320600019909101815584516153f99391909201919085019061585e565b50600160a060020a038316600090815260166020908152604090912082516154299260059092019184019061585e565b50600160a060020a038316600081815260166020818152604080842060048101805474ff000000000000000000000000000000000000000019168155600282018054600181018255818852858820868204018054601f9092166101000a60ff0219909116905554308088526007840186528488206000199092019091558787529484528054600160a060020a03191690941790935560038301939093559054825190815291517fd75b88a9203b17f9356ca063241beac16a25d5a46f485b378c2c229e864bdd4d9281900390910190a2505050565b60008282111561550d57600080fd5b50900390565b600160a060020a03821660009081526020819052604090205481111561553857600080fd5b600160a060020a038216600090815260208190526040902054615561908263ffffffff6154fe16565b600160a060020a03831660009081526020819052604090205560025461558d908263ffffffff6154fe16565b600255604080518281529051600160a060020a038416917fcc16f5dbb4873280815c1ee09dbd06736cffcc184412cf7a71a0fdb75d397ca5919081900360200190a25050565b60008060008060006155e486614e37565b15156001146155f257600080fd5b600160a060020a0386811660009081526016602052604090206004015416301461572b57600160a060020a0380871660009081526016602052604090206004015416945061563f85613dfa565b1561572b57600160a060020a038086166000818152601a60208181526040808420958c1684526002860182528320549390925290526001909101805491955090600019810190811061568d57fe5b6000918252602080832090910154600160a060020a038881168452601a90925260409092206001018054919092169450849190869081106156ca57fe5b60009182526020808320919091018054600160a060020a031916600160a060020a03948516179055878316808352601a8083526040808520958716855260028601845284208990559252526001018054906157299060001983016158d8565b505b600160a060020a0386166000908152601660205260409020546017805491935090600019810190811061575a57fe5b60009182526020909120015460178054600160a060020a03909216925082918490811061578357fe5b60009182526020808320919091018054600160a060020a031916600160a060020a03948516179055918316815260169091526040902082905560178054906157cf9060001983016158d8565b5060408051838152905133917f117183c06981515bdfa0b70d0448d8eb6ba07648cda62ab7c2b4361eeff80a1b919081900360200190a2604080518381529051600160a060020a0383169160008051602061591c833981519152919081900360200190a2505050505050565b60008080831161584a57600080fd5b828481151561585557fe5b04949350505050565b828054600181600116156101000203166002900490600052602060002090601f016020900481019282601f1061589f57805160ff19168380011785556158cc565b828001600101855582156158cc579182015b828111156158cc5782518255916020019190600101906158b1565b506124dc929150615901565b8154818355818111156158fc576000838152602090206158fc918101908301615901565b505050565b61215391905b808211156124dc576000815560010161590756000a069cb19d168bc7a049b956ce2d15e1fa917e5024d1584c4a7d683d9774b609a165627a7a723058203d951e63e6a9e06e16be229b8c82c3bb8dd937728c605aee5968ff7efde676b20029",
  "source": "pragma solidity ^0.4.23;\r\n\r\nimport \"./Users.sol\";\r\n\r\n\r\ncontract Factory is Users {\r\n\r\n    bytes32 public symbol;\r\n    bytes32 public  tokenName;\r\n    uint8 public decimals;\r\n    bool private reentrancyLock = false;\r\n    uint private max = 2**256-1;\r\n    uint public rate = 1000;\r\n\r\n    constructor() public {\r\n        symbol = \"IDF\";\r\n        tokenName = \"identiFormToken\";\r\n        decimals = 18;\r\n    }\r\n\r\n    function _buy(address _beneficiary, uint tokens) internal {\r\n        require(_totalSupply.add(tokens) <= max);\r\n        balances[_beneficiary] = balances[_beneficiary].add(tokens);\r\n        _totalSupply = _totalSupply.add(tokens);\r\n        emit Transfer(address(0), _beneficiary, tokens);\r\n    }\r\n\r\n    function setRate(uint _rate) public onlyOwner {\r\n        require(_rate > 0 && _rate <= max);\r\n        rate = _rate;\r\n    }\r\n\r\n    function () public payable {\r\n        require(!reentrancyLock);\r\n        reentrancyLock = true;\r\n        uint _weiAmount = msg.value;\r\n        address _beneficiary = msg.sender;\r\n        require(_beneficiary != address(0) && _beneficiary != owner);\r\n        require(_weiAmount != 0);\r\n        require(_weiAmount.mul(rate) <= max);\r\n        uint tokens = _weiAmount.mul(rate);\r\n        _buy(_beneficiary, tokens);\r\n        reentrancyLock = false;\r\n    }\r\n\r\n    function balance() public view onlyOwner returns (uint) {\r\n        return address(this).balance;\r\n    }\r\n\r\n    function withdraw() public onlyOwner {\r\n        owner.transfer(address(this).balance);\r\n    }\r\n\r\n    function setTeamTokens(uint _tokens) public onlyOwner {\r\n        require(_tokens <= _totalSupply.div(5));\r\n        balances[owner] = _tokens;\r\n        _totalSupply = _totalSupply.add(_tokens);\r\n    }\r\n\r\n    function burn(uint _amount) public onlyOwner {\r\n        balances[owner] = balances[owner].sub(_amount);\r\n        _totalSupply = _totalSupply.sub(_amount);\r\n    }\r\n\r\n}\r\n",
  "sourcePath": "C:\\Users\\DXenu\\Desktop\\box\\identiform\\contracts\\Factory.sol",
  "compiler": {
    "name": "solc",
    "version": "0.4.24+commit.e67f0147.Emscripten.clang"
  },
  "schemaVersion": "2.0.0",
  "updatedAt": "2018-06-17T14:56:53.006Z"
}