{
  "contractName": "Pausable",
  "abi": [
    {
      "constant": true,
      "inputs": [],
      "name": "bot",
      "outputs": [
        {
          "name": "",
          "type": "address"
        }
      ],
      "payable": false,
      "stateMutability": "view",
      "type": "function"
    },
    {
      "constant": true,
      "inputs": [],
      "name": "paused",
      "outputs": [
        {
          "name": "",
          "type": "bool"
        }
      ],
      "payable": false,
      "stateMutability": "view",
      "type": "function"
    },
    {
      "constant": true,
      "inputs": [],
      "name": "validate",
      "outputs": [
        {
          "name": "",
          "type": "bool"
        }
      ],
      "payable": false,
      "stateMutability": "view",
      "type": "function"
    },
    {
      "constant": false,
      "inputs": [
        {
          "name": "_bot",
          "type": "address"
        }
      ],
      "name": "setBot",
      "outputs": [],
      "payable": false,
      "stateMutability": "nonpayable",
      "type": "function"
    },
    {
      "constant": true,
      "inputs": [],
      "name": "owner",
      "outputs": [
        {
          "name": "",
          "type": "address"
        }
      ],
      "payable": false,
      "stateMutability": "view",
      "type": "function"
    },
    {
      "constant": false,
      "inputs": [
        {
          "name": "_newOwner",
          "type": "address"
        }
      ],
      "name": "transferOwnership",
      "outputs": [],
      "payable": false,
      "stateMutability": "nonpayable",
      "type": "function"
    },
    {
      "anonymous": false,
      "inputs": [],
      "name": "Pause",
      "type": "event"
    },
    {
      "anonymous": false,
      "inputs": [],
      "name": "Unpause",
      "type": "event"
    },
    {
      "anonymous": false,
      "inputs": [
        {
          "indexed": true,
          "name": "previousOwner",
          "type": "address"
        },
        {
          "indexed": true,
          "name": "newOwner",
          "type": "address"
        }
      ],
      "name": "OwnershipTransferred",
      "type": "event"
    },
    {
      "constant": false,
      "inputs": [],
      "name": "pause",
      "outputs": [],
      "payable": false,
      "stateMutability": "nonpayable",
      "type": "function"
    },
    {
      "constant": false,
      "inputs": [],
      "name": "unpause",
      "outputs": [],
      "payable": false,
      "stateMutability": "nonpayable",
      "type": "function"
    }
  ],
  "bytecode": "0x60806040526001805460a060020a60ff021916905560008054600160a060020a03191633179055610402806100356000396000f30060806040526004361061008d5763ffffffff7c010000000000000000000000000000000000000000000000000000000060003504166310814c3781146100925780633f4ba83a146100c35780635c975abb146100da5780636901f668146101035780636b5caec4146101185780638456cb59146101395780638da5cb5b1461014e578063f2fde38b14610163575b600080fd5b34801561009e57600080fd5b506100a7610184565b60408051600160a060020a039092168252519081900360200190f35b3480156100cf57600080fd5b506100d8610193565b005b3480156100e657600080fd5b506100ef61021c565b604080519115158252519081900360200190f35b34801561010f57600080fd5b506100ef61023d565b34801561012457600080fd5b506100d8600160a060020a036004351661024e565b34801561014557600080fd5b506100d8610294565b34801561015a57600080fd5b506100a7610333565b34801561016f57600080fd5b506100d8600160a060020a0360043516610342565b600154600160a060020a031681565b600054600160a060020a031633146101aa57600080fd5b60015474010000000000000000000000000000000000000000900460ff1615156101d357600080fd5b6001805474ff0000000000000000000000000000000000000000191690556040517f7805862f689e2f13df9f062ff482ad3ad112aca9e0847911ed832e158c525b3390600090a1565b60015474010000000000000000000000000000000000000000900460ff1681565b600054600160a060020a0316331490565b600054600160a060020a0316331461026557600080fd5b6001805473ffffffffffffffffffffffffffffffffffffffff1916600160a060020a0392909216919091179055565b600054600160a060020a031633146102ab57600080fd5b60015474010000000000000000000000000000000000000000900460ff16156102d357600080fd5b6001805474ff00000000000000000000000000000000000000001916740100000000000000000000000000000000000000001790556040517f6985a02210a168e66602d3235cb6db0e70f92b3ba4d376a33c0f3d9434bff62590600090a1565b600054600160a060020a031681565b600054600160a060020a0316331461035957600080fd5b600160a060020a038116151561036e57600080fd5b60008054604051600160a060020a03808516939216917f8be0079c531659141344cd1fd0a4f28419497f9722a3daafe3b4186f6b6457e091a36000805473ffffffffffffffffffffffffffffffffffffffff1916600160a060020a03929092169190911790555600a165627a7a72305820f25a0d2169dbd8a2780e486c002b53cabfe02d96b4c35a270ea8495356a15d760029",
  "source": "pragma solidity ^0.4.23;\r\n\r\nimport \"./Ownable.sol\";\r\n\r\n\r\ncontract Pausable is Ownable {\r\n\r\n    event Pause();\r\n    event Unpause();\r\n\r\n    bool public paused = false;\r\n\r\n    modifier whenNotPaused() {\r\n        require(!paused);\r\n        _;\r\n    }\r\n\r\n    modifier whenPaused() {\r\n        require(paused);\r\n        _;\r\n    }\r\n\r\n    /*\r\n    * @title Pause contract\r\n    * @author Tadas Talaikis <info@talaikis.com>\r\n    */\r\n    function pause() onlyOwner whenNotPaused public {\r\n        paused = true;\r\n        emit Pause();\r\n    }\r\n\r\n    \r\n    /*\r\n    * @title Unpause contract\r\n    * @author Tadas Talaikis <info@talaikis.com>\r\n    */\r\n    function unpause() onlyOwner whenPaused public {\r\n        paused = false;\r\n        emit Unpause();\r\n    }\r\n\r\n}\r\n",
  "sourcePath": "C:\\Users\\DXenu\\Desktop\\box\\identiform\\contracts\\database\\Pausable.sol",
  "compiler": {
    "name": "solc",
    "version": "0.4.24+commit.e67f0147.Emscripten.clang"
  },
  "schemaVersion": "2.0.0",
  "updatedAt": "2018-06-17T09:46:19.842Z"
}